:020000040800F2
:1000000068EA012085FE0008F9F80008FBF80008FE
:10001000FDF80008FFF8000801F9000800000000E2
:1000200000000000000000000000000029EC0008B3
:1000300003F9000800000000D1EB0008E1E9000826
:10004000D5FE0008D9FE0008DDFE0008E1FE00082C
:10005000E5FE0008E9FE0008EDFE0008F1FE0008DC
:10006000F5FE0008F9FE0008FDFE000801FF00088B
:1000700005FF000809FF000805F900085FF90008FE
:100080000DFF000865F9000811FF000815FF0008C2
:1000900019FF00081DFF000821FF000825FF0008C8
:1000A00029FF00082DFF000831FF00086BF9000848
:1000B00071F9000835FF000839FF00083DFF00080E
:1000C00041FF000845FF000849FF00084DFF0008F8
:1000D00051FF000877F9000895F90008B3F9000806
:1000E00055FF000859FF00085DFF000861FF000888
:1000F00065FF000869FF00086DFF000871FF000838
:1001000075FF000879FF0008B9F900087DFF0008B5
:1001100081FF000885FF000889FF00088DFF0008A7
:10012000E1F9000891FF0008E7F9000895FF0008D1
:1001300099FF00089DFF0008A1FF0008A5FF000827
:10014000A9FF0008ADFF0008B1FF0008B5FF0008D7
:10015000B9FF0008BDFF0008EDF90008C1FF000865
:10016000C5FF0008C9FF0008CDFF0008D1FF000847
:10017000D5FF0008D9FF0008DDFF000800000000DF
:10018000E1FF0008E5FF0008BFF34F8F17490A6839
:1001900002F4E062164802430A60BFF34F8F00BFCB
:1001A000FDE7144901220A70B5EE400AF1EE10FA9B
:1001B00002D1B7EE000A704700220A7080B200EE4A
:1001C000900AF8EE600A80EE800A70470948012123
:1001D0000170B5EE400AF1EE10FA02D1B7EE000A56
:1001E00070470021017080EE800A70470CED00E03E
:1001F0000400FA0588B801202DE9F04FADF5437DE4
:100200008146DFF8DC1901F0DDFEDFF8D8496060D7
:10021000DFF8D45905F51976DFF8D089DFF8D07901
:10022000002800F037810B3060600078412806D04C
:1002300042282BD0432850D0582877D0B3E0002054
:1002400060706068801C60600BE07A54401C6070D5
:100250006168491C616009780D2902D10021C0B292
:100260003954606802780D2A03D060780146092964
:10027000EBDB384601F05CFF80B2DFF8781991EDD6
:100280001A0AFFF78EFF86ED1B0A94E000206070CB
:100290006068801C60600BE07A54401C607061688C
:1002A000491C616009780D2902D10021C0B239547E
:1002B000606802780D2A03D0607801460929EBDBDB
:1002C000384601F035FF80B2DFF8281991ED1B0A9E
:1002D000FFF767FF86ED1E0A6DE000206070606822
:1002E000801C60600BE07A54401C60706168491C9F
:1002F000616009780D2902D10021C0B239546068CB
:1003000002780D2A03D0607801460929EBDB3846D4
:1003100001F00EFF80B2DFF8DC1891ED1C0AFFF748
:1003200040FF05F5397080ED010A44E0002060705F
:100330006068801C60600BE07A54401C60706168EB
:10034000491C616009780D2902D10021C0B23954DD
:10035000606802780D2A03D0607801460929EBDB3A
:10036000384601F0E5FEDFF88CA880B29AED1A0A53
:10037000FFF717FF86ED1B0A384601F0D9FE80B261
:100380009AED1B0AFFF70DFF86ED1E0A384601F0B5
:10039000CFFE80B29AED1C0AFFF703FF05F5397016
:1003A00080ED010A07E04FF47A730722DFF848185E
:1003B000404601F008FF284602F028FB684602F09C
:1003C0007FFB284669464FF4437203F053F9706F80
:1003D00003F0B0F9CDE90201306F03F0ABF9CDE9DC
:1003E0000001F06E03F0A6F902460B46DFF80C1888
:1003F000384603F0C3F9384603F0E0F902464FF4FB
:100400007A7392B23946404601F0DDFE05F5397A3D
:10041000DAF8000003F08EF9CDE90201F06F03F085
:1004200089F9CDE90001B06F03F084F902460B466B
:10043000DFF8CC17384603F0A1F9384603F0BEF9CF
:100440004FF47A73024692B23946404601F0BBFE41
:10045000DAF80C0003F06EF9CDE90201DAF80800D1
:1004600003F068F9CDE90001DAF8040003F062F95D
:1004700002460B46DFF88C17384603F07FF9384602
:1004800003F09CF94FF47A73024692B23946404623
:1004900001F099FEDFF87017484601F093FD6060A7
:1004A000002800F06E810B3060600078412807D092
:1004B000422835D0432863D0582800F09380E9E0E3
:1004C000002060706068801C60600BE07A54401C03
:1004D00060706168491C616009780D2902D10021B2
:1004E000C0B23954606802780D2A03D060780146A2
:1004F0000929EBDB384603F08EF951EC100B03F0C1
:1005000093F900EE900ADFF8EC0690ED1A0A96EDEA
:100510001B1A20EE010AFFF759FE86ED1D0AC1E005
:10052000002060706068801C60600BE07A54401CA2
:1005300060706168491C616009780D2902D1002151
:10054000C0B23954606802780D2A03D06078014641
:100550000929EBDB384603F05EF951EC100B03F090
:1005600063F900EE900ADFF88C0690ED1B0A96ED19
:100570001E1A20EE010AFFF729FE85EDB90A91E067
:10058000002060706068801C60600BE07A54401C42
:1005900060706168491C616009780D2902D10021F1
:1005A000C0B23954606802780D2A03D060780146E1
:1005B0000929EBDB384603F02EF905F5397A51ECC1
:1005C000100B03F031F900EE900ADFF8280690EDE9
:1005D0001C0A9AED011A20EE010AFFF7F7FD8AEDD9
:1005E000030A5FE0002060706068801C60600BE0C0
:1005F0007A54401C60706168491C616009780D295B
:1006000002D10021C0B23954606802780D2A03D0AB
:10061000607801460929EBDB384603F0FCF805F564
:10062000397BDFF8D0A551EC100B03F0FDF800EE9C
:10063000900A9AED1C0A9BED011A20EE010AFFF7C1
:10064000C5FD8BED030A384603F0E5F851EC100BBD
:1006500003F0EAF800EE900A9AED1B0A96ED1E1AD6
:1006600020EE010AFFF7B2FD8BED000A384603F0D9
:10067000D2F851EC100B03F0D7F800EE900A9AED87
:100680001A0A96ED1B1A20EE010AFFF79FFD86ED70
:100690001D0A07E04FF47A730722DFF85C15404625
:1006A00001F091FD284602F0B1F9684602F008FA1F
:1006B000284669464FF4437202F0DCFF706F03F086
:1006C00039F8CDE90201306F03F034F8CDE90001CB
:1006D000F06E03F02FF802460B460FF62041384625
:1006E00003F04CF8384603F069F84FF47A73024689
:1006F00092B23946404601F066FD05F5397ADAF8DE
:10070000000003F017F8CDE90201F06F03F012F8D2
:10071000CDE90001B06F03F00DF802460B460FF66D
:10072000F431384603F02AF8384603F047F84FF41E
:100730007A73024692B23946404601F044FDDAF837
:100740000C0002F0F7FFCDE90201DAF8080002F030
:10075000F1FFCDE90001DAF8040002F0EBFF0246F8
:100760000B460FF6C831384603F008F8384603F058
:1007700025F84FF47A73024692B23946404601F0AA
:1007800022FD0FF6C031484601F01CFC60600028D5
:1007900000F02C810B3060600078412806D04228A0
:1007A0002BD0432850D0582874D0AEE00020607081
:1007B0006068801C60600BE07A54401C6070616867
:1007C000491C616009780D2902D10021C0B2395459
:1007D000606802780D2A03D0607801460929EBDBB6
:1007E000384601F0A5FC80B2DFF8081491ED0E0A3E
:1007F000FFF7D7FC86ED120A8FE00020607060687A
:10080000801C60600BE07A54401C60706168491C79
:10081000616009780D2902D10021C0B239546068A5
:1008200002780D2A03D0607801460929EBDB3846AF
:1008300001F07EFC80B2DFF8BC1391ED0F0AFFF7E8
:10084000B0FC86ED150A68E0002060706068801CCE
:1008500060600BE07A54401C60706168491C616004
:1008600009780D2902D10021C0B23954606802789C
:100870000D2A03D0607801460929EBDB384601F0E8
:1008800057FC80B2DB4991ED100AFFF78AFC86ED38
:10089000180A42E0002060706068801C60600BE015
:1008A0007A54401C60706168491C616009780D29A8
:1008B00002D10021C0B23954606802780D2A03D0F9
:1008C000607801460929EBDB384601F031FCDFF89E
:1008D00024A380B29AED0E0AFFF763FC86ED120A9C
:1008E000384601F025FC80B29AED0F0AFFF759FC5B
:1008F00086ED150A384601F01BFC80B29AED100A0D
:10090000FFF74FFC86ED180A07E04FF47A730722D1
:100910000FF64821404601F056FC284602F076F8D2
:10092000684602F0CDF8284669464FF4437202F05B
:10093000A1FE306D02F0FEFECDE90201F06C02F086
:10094000F9FECDE90001B06C02F0F4FE02460B4660
:100950000FF61021384602F011FF384602F02EFF44
:100960004FF47A73024692B23946404601F02BFCAE
:10097000F06D02F0DFFECDE90201B06D02F0DAFEAB
:10098000CDE90001706D02F0D5FE02460B460FF670
:10099000EC11384602F0F2FE384602F00FFF4FF439
:1009A0007A73024692B23946404601F00CFCB06EB2
:1009B00002F0C0FECDE90201706E02F0BBFECDE98F
:1009C0000001306E02F0B6FE02460B460FF6C4116F
:1009D000384602F0D3FE384602F0F0FE4FF47A7348
:1009E000024692B23946404601F0EDFB0FF6601127
:1009F000484601F0E7FA6060002800F078810B308B
:100A000060600078412807D0422834D0432861D064
:100A1000582800F08E80F9E0002060706068801C2B
:100A200060600BE07A54401C60706168491C616032
:100A300009780D2902D10021C0B2395460680278CA
:100A40000D2A03D0607801460929EBDB384602F015
:100A5000E2FE51EC100B02F0E7FE00EE900A654852
:100A600090ED0E0A96ED121A20EE010AFFF7AEFB8A
:100A700086ED140AD2E0002060706068801C60601F
:100A80000BE07A54401C60706168491C6160097811
:100A90000D2902D10021C0B23954606802780D2AB4
:100AA00003D0607801460929EBDB384602F0B3FE3B
:100AB00051EC100B02F0B8FE00EE900A4D4890ED9C
:100AC0000F0A96ED151A20EE010AFFF77FFB86ED5F
:100AD000170AA3E0002060706068801C60600BE073
:100AE0007A54401C60706168491C616009780D2966
:100AF00002D10021C0B23954606802780D2A03D0B7
:100B0000607801460929EBDB384602F084FE51EC9F
:100B1000100B02F089FE00EE900A364890ED100AA4
:100B200096ED181A20EE010AFFF750FB86ED1A0A1F
:100B300074E0002060706068801C60600BE07A5494
:100B4000401C60706168491C616009780D2902D100
:100B50000021C0B23954606802780D2A03D0607851
:100B600001460929EBDB384602F055FEDFF884A088
:100B700051EC100B02F058FE00EE900A9AED0E0AAE
:100B800096ED121A20EE010AFFF720FB86ED140AFB
:100B9000384602F040FE51EC100B02F045FE00EE2C
:100BA000900A9AED0F0A96ED151A20EE010AFFF74A
:100BB0000DFB86ED170A384602F02DFE51EC100BA6
:100BC00002F032FE00EE900A9AED100A96ED181A25
:100BD00020EE010AFFF7FAFA86ED1A0A1EE000BFBE
:100BE00008FE000848E2012058B4012004E1012079
:100BF000ECDB012088B801205C130008FC1200081F
:100C0000141300082C13000814FE00084FF47A7324
:100C100007220FF24871404601F0D5FA284601F04C
:100C2000F5FE684601F04CFF284669464FF44372D2
:100C300002F020FD306D02F07DFDCDE90201F06C87
:100C400002F078FDCDE90001B06C02F073FD0246C0
:100C50000B460FF21071384602F090FD384602F054
:100C6000ADFD4FF47A73024692B23946404601F028
:100C7000AAFAF06D02F05EFDCDE90201B06D02F05E
:100C800059FDCDE90001706D02F054FD02460B469E
:100C90000FF2E861384602F071FD384602F08EFD31
:100CA0004FF47A73024692B23946404601F08BFA0D
:100CB000B06E02F03FFDCDE90201706E02F03AFD28
:100CC000CDE90001306E02F035FD02460B460FF211
:100CD000C461384602F052FD384602F06FFD4FF411
:100CE0007A73024692B23946404601F06CFA0FF22E
:100CF000BC61484601F066F96060002801D000F050
:100D000093FB0FF2B461484601F05CF96060002883
:100D100001D000F079FC0FF2A861484601F052F9C9
:100D2000606000280CD04FF47A7308220FF29C61A7
:100D3000404601F048FAC82002F0F8FDFFF724FA17
:100D40000FF29461484601F03DF96060002807D039
:100D50004FF47A7317220FF28861404601F033FA9C
:100D60000FF29461484601F02DF96060002809D027
:100D700001F08FFE4FF47A732322DFF8241E4046E1
:100D800001F021FA0FF27C61484601F01BF9606026
:100D9000002800F059810B3060600078312806D0BF
:100DA000C0F05281332800F0E28070D34CE1002083
:100DB00060706068801C60600DE005F26B118B5400
:100DC000401C60706268521C626012782C2A02D14A
:100DD0000022C0B20A5461680B782C2B03D06078D3
:100DE00002463F2AE9DB481C6060002060700DE08D
:100DF00005F2AB118B54401C60706268521C62603B
:100E000012782C2A02D10022C0B20A5461680B78F1
:100E10002C2B03D0607802463F2AE9DB481C606037
:100E2000002060700BE07A54401C60706168491CBF
:100E3000616009780D2902D10021C0B2395460687F
:100E400002780D2A03D0607801460929EBDB384689
:100E500001F06EF9A5F8BC01284601F0D7FDB5F800
:100E6000BC01009005F2AB1305F26B120FF2A0511A
:100E7000384602F083FC384602F0A0FC4FF47A7347
:100E8000024692B23946404601F09DF9DCE000206E
:100E900060706068801C60600DE005F2BF118B54CB
:100EA000401C60706268521C626012782C2A02D169
:100EB0000022C0B20A5461680B782C2B03D06078F2
:100EC00002463F2AE9DB481C6060002060700DE0AC
:100ED00005F2FF118B54401C60706268521C626006
:100EE00012782C2A02D10022C0B20A5461680B7811
:100EF0002C2B03D0607802463F2AE9DB481C606057
:100F0000002060700BE07A54401C60706168491CDE
:100F1000616009780D2902D10021C0B2395460689E
:100F200002780D2A03D0607801460929EBDB3846A8
:100F300001F0FEF8A5F81002284601F067FDB5F8AB
:100F40001002009005F2FF1305F2BF120FF6684180
:100F5000384602F013FC384602F030FC4FF47A7346
:100F6000024692B23946404601F02DF96CE000206D
:100F700060706068801C60600DE005F213218B5486
:100F8000401C60706268521C626012782C2A02D188
:100F90000022C0B20A5461680B782C2B03D0607811
:100FA00002463F2AE9DB481C6060002060700DE0CB
:100FB00005F253218B54401C60706268521C6260C1
:100FC00012782C2A02D10022C0B20A5461680B7830
:100FD0002C2B03D0607802463F2AE9DB481C606076
:100FE000002060700BE07A54401C60706168491CFE
:100FF000616009780D2902D10021C0B239546068BE
:1010000002780D2A03D0607801460929EBDB3846C7
:1010100001F08EF83080284601F0F8FC308800900E
:1010200005F2532305F213220FF6A431384602F0DD
:10103000A5FB384602F0C2FB4FF47A73024692B227
:101040003946404601F0BFF80FF69C31484600F0A3
:10105000B9FF6060002800F0038109306060002063
:101060002070024602E07A54401C2070207801462D
:101070000C29F8DB60680178312906D0C0F0F080D7
:10108000332900F0A08050D3EAE011466170801C43
:1010900060600FE005F144035A54401C60706168C1
:1010A000491C616009782C2904D1002105F1440212
:1010B000C0B2115463681A782C2A03D060780146B4
:1010C0003F29E7DB581C60600020607005F1840157
:1010D0000BE08B54401C60706268521C6260127896
:1010E0000D2A02D10022C0B20A54606803780D2B89
:1010F00003D0607802461F2AEBDB284601F086FC0D
:1011000005F1840305F144020FF6E821384602F0A8
:1011100035FB384602F052FB4FF47A73024692B226
:101120003946404601F04FF89AE011466170801C44
:1011300060600DE005F1A6018B54401C6070626890
:10114000521C626012782C2A02D10022C0B20A54CA
:1011500061680B782C2B03D0607802463F2AE9DBCC
:10116000481C60600020607005F1E6010BE08B54C4
:10117000401C60706268521C626012780D2A02D1B5
:101180000022C0B20A54606803780D2B03D0607847
:1011900002461F2AEBDB284601F038FC05F1E60386
:1011A00005F1A6020FF66021384602F0E7FA38464C
:1011B00002F004FB4FF47A73024692B2394640467D
:1011C00001F001F84CE011466170801C60600DE098
:1011D00005F584718B54401C60706268521C62601B
:1011E00012782C2A02D10022C0B20A5461680B780E
:1011F0002C2B03D0607802463F2AE9DB481C606054
:101200000020607005F5A4710BE08B54401C6070E9
:101210006268521C626012780D2A02D10022C0B2AC
:101220000A54606803780D2B03D0607802461F2AA9
:10123000EBDB284601F0EAFB05F5A47305F58472A3
:101240000FF6D811384602F099FA384602F0B6FA8D
:101250004FF47A73024692B23946404600F0B3FF2B
:101260000FF6CC11484600F0ADFE6060002840D07B
:101270000930606000202070024602E07A54401C71
:101280002070207801462129F8DB1046607005F1B6
:1012900024030DE05A54401C60706168491C616071
:1012A00009780D2904D1002105F12402C0B211549E
:1012B000606802780D2A03D0607801461F29E9DBB7
:1012C000284601F0A3FB05F124020FF67011384601
:1012D00002F054FA384602F071FA4FF47A7302467B
:1012E00092B2394640460DF5437DBDE8F04F00F01F
:1012F0006ABF0DF5437DBDE8F08F00004375727243
:1013000020413A204B3D256620423D256620523D36
:1013100025660A004375727220423A204B3D2566CD
:1013200020423D256620523D25660A0043757272B3
:1013300020433A204B3D256620423D256620523D04
:1013400025660A0041542B434C424143564B000052
:1013500041542B434C424143565200000A455252DD
:101360004F520A00566F6C7420413A204B3D25665F
:1013700020423D256620523D25660A00566F6C745A
:1013800020423A204B3D256620423D256620523DB5
:1013900025660A00566F6C7420433A204B3D256643
:1013A00020423D256620523D25660A0041542B4EC1
:1013B000455453455400000041542B4D45415300C2
:1013C00041542B5245534554000000002B524553C5
:1013D00045540D0A0000000041542B53454E440073
:1013E0000A2B53454E44204E6F7420696D706C6516
:1013F0006D656E7465640A0041542B534554444531
:101400004600000041542B534554534552563D006D
:101410000A2B534554534552563D312C25732C25E8
:10142000732C25640A0000002DE9FE43DFF87447A1
:101430000FF61401204602F0A1F9204602F0BEF991
:101440000246DFF864574FF47A7392B22146284679
:1014500000F0B9FE0FF2FC71204602F08FF9204631
:1014600002F0ACF94FF47A73024692B22146284654
:1014700000F0A9FE0FF608020FF2F471204602F008
:101480007DF9204602F09AF94FF47A73024692B23F
:101490002146284600F097FEDFF8106706F1240287
:1014A0000FF2F071204602F069F9204602F086F949
:1014B0004FF47A73024692B22146284600F083FE2A
:1014C00006F1840306F144020FF2E071204602F0B7
:1014D00055F9204602F072F94FF47A73024692B23F
:1014E0002146284600F06FFE06F1E60306F1A6024B
:1014F0000FF2D071204602F041F9204602F05EF969
:101500004FF47A73024692B22146284600F05BFE01
:1015100006F5A47306F584720FF2C071204602F03E
:101520002DF9204602F04AF94FF47A73024692B23E
:101530002146284600F047FE06F266220FF2B471FB
:10154000204602F01BF9204602F038F94FF47A7376
:10155000024692B22146284600F035FE06F5DE78B6
:10156000DFF84C76B8F80000019006F2AB1000905E
:1015700006F26B1396F86A213946204602F0FEF80F
:10158000204602F01BF94FF47A73024692B22146CC
:10159000284600F018FE06F50479B9F8000001901D
:1015A00006F2FF10009006F2BF1398F8022007F130
:1015B0003001204602F0E2F8204602F0FFF84FF436
:1015C0007A73024692B22146284600F0FCFDB6F836
:1015D0006402019006F25320009006F2132399F85A
:1015E000022007F16001204602F0C8F8204602F010
:1015F000E5F84FF47A73024692B22146284603B0CA
:10160000BDE8F04300F0DFBD2DE9FC41DFF8944573
:101610000FF2EC61204602F0B1F8204602F0CEF85D
:101620000246DFF884554FF47A7392B22146284679
:1016300000F0C9FD0FF248630FF2E4620FF2CC61D3
:10164000204602F09BF8204602F0B8F84FF47A7377
:10165000024692B22146284600F0B5FDDFF85465F7
:10166000306B02F067F8CDE90001B06A02F062F871
:1016700002460B460FF2BC61204602F07FF820467E
:1016800002F09CF84FF47A73024692B22146284643
:1016900000F099FD706F02F04DF8CDE90001706C1B
:1016A00002F048F802460B460FF2A861204602F00D
:1016B00065F8204602F082F84FF47A73024692B23F
:1016C0002146284600F07FFD0FF2040802E000BF2B
:1016D0000D0A00004FF47A7302224146284600F0BA
:1016E00072FD706F02F026F8CDE90001706C02F017
:1016F00021F802460B460FF27461204602F03EF8D4
:10170000204602F05BF84FF47A73024692B221460B
:10171000284600F058FDD6F8800002F00BF8CDE91D
:101720000001306D02F006F802460B460FF25861D8
:10173000204602F023F8204602F040F84FF47A7376
:10174000024692B22146284600F03DFD06F184078C
:10175000B86801F0EFFFCDE90001F06D01F0EAFF9C
:1017600002460B460FF23C61204602F007F8204685
:1017700002F024F84FF47A73024692B221462846CA
:1017800000F021FD4FF47A7302224146284600F012
:101790001AFDB06F01F0CEFFCDE90001B06C01F091
:1017A000C9FF02460B460FF21861204601F0E6FF22
:1017B000204602F003F84FF47A73024692B22146B3
:1017C000284600F000FD386801F0B4FFCDE90001C3
:1017D000706D01F0AFFF02460B460FF2006120462C
:1017E00001F0CCFF204601F0E9FF4FF47A73024686
:1017F00092B22146284600F0E6FCF86801F09AFF14
:10180000CDE90001306E01F095FF02460B460FF264
:10181000E851204601F0B2FF204601F0CFFF4FF41F
:101820007A73024692B22146284600F0CCFC4FF46F
:101830007A7302224146284600F0C5FCF06F01F0A1
:1018400079FFCDE90001F06C01F074FF02460B4610
:101850000FF2C051204601F091FF204601F0AEFF8B
:101860004FF47A73024692B22146284600F0ABFC50
:10187000786801F05FFFCDE90001B06D01F05AFF1B
:1018800002460B460FF2A851204601F077FF204692
:1018900001F094FF4FF47A73024692B22146284633
:1018A00000F091FC386901F045FFCDE90001706E50
:1018B00001F040FF02460B460FF29051204601F026
:1018C0005DFF204601F07AFF4FF47A73024692B230
:1018D0002146284600F077FC4FF47A7302224146F5
:1018E000284600F070FC01F097F9F06801F022FF43
:1018F00002460B460FF27051204601F03FFF204692
:1019000001F05CFF4FF47A73024692B221462846FA
:1019100000F059FC306901F00DFF02460B460FF252
:101920005C51204601F02AFF204601F047FF4FF4AA
:101930007A73024692B22146284600F044FC706950
:1019400001F0F8FE02460B460FF24451204601F02A
:1019500015FF204601F032FF4FF47A73024692B22F
:101960002146284600F02FFCB06901F0E3FE024654
:101970000B460FF23051204601F000FF204601F0E7
:101980001DFF4FF47A73024692B22146284600F0BA
:101990001AFCF06901F0CEFE02460B460FF2185118
:1019A000204601F0EBFE204601F008FF4FF47A7369
:1019B000024692B22146284600F005FC306A01F04A
:1019C000B9FE02460B460FF20451204601F0D6FE46
:1019D000204601F0F3FE4FF47A73024692B221469C
:1019E000284600F0F0FB706A01F0A4FE02460B46A8
:1019F0000FF2EC41204601F0C1FE204601F0DEFE70
:101A00004FF47A73024692B22146284600F0DBFB7F
:101A10004FF47A7302224146284600F0D4FB3A7D07
:101A200002F001020FF2CC41204601F0A7FE204651
:101A300001F0C4FE4FF47A73024692B22146284662
:101A400000F0C1FB387DC0F340020FF2BC412046DC
:101A500001F094FE204601F0B1FE4FF47A73024685
:101A600092B22146284600F0AEFB387DC0F38002DA
:101A70000FF2A841204601F081FE204601F09EFEB3
:101A80004FF47A73024692B22146284600F09BFB3F
:101A9000387DC0F3C0020FF29841204601F06EFE7F
:101AA000204601F08BFE4FF47A73024692B2214633
:101AB000284600F088FB387DC0F300120FF2844105
:101AC000204601F05BFE204601F078FE4FF47A7369
:101AD000024692B22146284600F075FB387DC0F3DD
:101AE00040120FF27441204601F048FE204601F0FA
:101AF00065FE4FF47A73024692B22146284600F002
:101B000062FB387DC0F380120FF26041204601F085
:101B100035FE204601F052FE4FF47A73024692B22F
:101B20002146284600F04FFB3A7DD2090FF2504182
:101B3000204601F023FE204601F040FE4FF47A7368
:101B4000024692B22146284600F03DFB4FF47A73DC
:101B500002224146284600F036FB0FF2384120466B
:101B600001F00CFE204601F029FE4FF47A73024684
:101B700092B22146284600F026FB0FF23041204663
:101B800001F0FCFD204601F019FE4FF47A73024685
:101B900092B22146284602B0BDE8F04100F013BBE6
:101BA00024FD0008ECDB012004E1012058B40120F1
:101BB00048FA000888B801200A2B5345545345526F
:101BC000563D322C25732C25732C25640A00000009
:101BD0000A2B534554534552563D332C25732C251F
:101BE000732C25640A00000041542B534554415086
:101BF0003D0000000A2B53455441503D312C2573C4
:101C00002C25730A000000000A2B53455441503D17
:101C1000322C25732C25730A000000000A2B534533
:101C20005441503D332C25732C25730A00000000CD
:101C300041542B534554534E3D0000000A2B53454D
:101C400054534E3D25730A002B4E45545345540DB5
:101C50000A000000436F6E63656E747261746F7288
:101C600020556E6976657273616C2D310D0A000026
:101C700046572056657273696F6E2025730D0A00F2
:101C80005265762E312E302031302E30372E3230C4
:101C90003139000044657669636520536572204ED2
:101CA000756D3A2025730D0A000000004150313A4D
:101CB00020535349443D25732C20506173733D25B7
:101CC000730D0A004150323A20535349443D257365
:101CD0002C20506173733D25730D0A004150333A37
:101CE00020535349443D25732C20506173733D2587
:101CF000730D0A00444E53313D25730D0A00000058
:101D00000A2B4D4541530D0A0000000048573A2068
:101D100025732C2046573A2025730D0A0000000039
:101D20005265762E312E302031332E30362E323021
:101D30003139000045787420706F7765723A20253C
:101D40002E3166562C20564241543A20252E3166BB
:101D5000560D0A0041444320413A20252E33665651
:101D60002C20252E3366410D0A0000005068617357
:101D70006520413A2020202020252E3166562C2037
:101D8000252E3266410D0A0050686173652041209E
:101D90004D41583A20252E3166562C20252E32668C
:101DA000410D0A0050686173652041204D494E3A4B
:101DB00020252E3166562C20252E3266410D0A0034
:101DC00050686173652042202020203A20252E3162
:101DD00066562C20252E3266410D0A00506861732C
:101DE0006520425F4D41583A20252E3166562C2001
:101DF000252E3266410D0A00506861736520425FEE
:101E00004D494E3A20252E3166562C20252E32661D
:101E1000410D0A0050686173652043202020203A5C
:101E200020252E3166562C20252E3266410D0A00C3
:101E3000506861736520435F4D41583A20252E312B
:101E400066562C20252E3266410D0A0050686173BB
:101E50006520435F4D494E3A20252E3166562C2091
:101E6000252E3266410D0A00444320496E5F303A08
:101E700020252E3366560D0A0000000044432049F9
:101E80006E5F313A20252E3366560D0A00000000A1
:101E9000444320496E5F323A20252E3366560D0AA0
:101EA00000000000444320496E5F333A20252E3362
:101EB00066560D0A00000000444320496E5F343A24
:101EC00020252E3366560D0A0000000044432049A9
:101ED0006E5F353A20252E3366560D0A000000004D
:101EE000444320496E5F363A20252E3366560D0A4C
:101EF00000000000446973637265746520494E5F99
:101F0000303A2025640D0A00446973637265746574
:101F100020494E5F313A2025640D0A0044697363FD
:101F20007265746520494E5F323A2025640D0A00BF
:101F3000446973637265746520494E5F333A2025A6
:101F4000640D0A00446973637265746520494E5FCD
:101F5000343A2025640D0A00446973637265746520
:101F600020494E5F353A2025640D0A0044697363A9
:101F70007265746520494E5F363A2025640D0A006B
:101F8000446973637265746520494E5F373A202552
:101F9000640D0A00537065656420313A203E31308B
:101FA000303030206D730D0A0000000053706565FD
:101FB0006420323A203E3130303030206D730D0ACB
:101FC0000000000070B50D462C7834B970BD11F8D2
:101FD000013F1678B34206D0401C214601F02EFD89
:101FE00028B101462A4612F8013F002BEFD170BDFF
:101FF0002DE9F84F84B00E4617460BB100221A6047
:102000000446A04601E008F1010898F8000001F03C
:1020100020FD0028F7D198F800002D2816BF2B28A6
:1020200018F8015B2B25002F019603D4012F01D056
:10203000252F03DB002E55D0346053E0002F0CDD3C
:10204000102F04BF98F80000302802BF98F8010054
:1020500040F02000782811D10CE098F800003028DA
:1020600018BF0A270AD198F8010040F0200078280C
:1020700003D1102708F1020800E00827CDF80C80F2
:1020800001E008F1010898F800003028F9D0064E68
:102090007E4414364FF0000906F12800CDF8088080
:1020A000CA468DF800000BE064DB00009DF80010CC
:1020B000401ACA465FFA80FB07FB09B908F101081C
:1020C00098F8000001F0CFFC01463A4606F12800DE
:1020D00001F0D4FC0028E9D10399414504D10198CD
:1020E00000B10460002020E00299F05DA8EB01013E
:1020F000081A002810D406DCB9EB0B0103D3B1FB9E
:10210000F7F0504508D0AFF30080049808B10121E2
:1021100001604FF0FF3903E02D2D08BFC9F1000920
:10212000019808B1C0F80080484605B0BDE8F08FBE
:10213000FFE700230A2200215AE7000038B5040017
:1021400001D1012032BD04F138056878002804D19E
:1021500000202870204601F0C0FF2420687020680D
:10216000C16821F40051C160204600F0A5FA206842
:10217000016921F4904101612068416921F02A013F
:1021800041612068C16841F40051C160002068606D
:1021900020206870A870002032BD10B5002801D141
:1021A000012010BD00F13804242161700168CA6863
:1021B00022F40052CA6002F072F800206060607081
:1021C000A070207010BD2DE9F84305460C469046DE
:1021D0001E4605F138077878202855D1002C02D00A
:1021E0004046002801D101204FE0387801284BD02B
:1021F00001203870002078602120787002F0CAF841
:102200008146A5F82480A5F8268003E014F8010B88
:1022100029684860E88C002826D0E88C401EE884B5
:10222000A868B0F5805F00964B4614D1002280214B
:10223000284600F066F9002801D0032025E0208818
:10224000C0F30800296848602869002801D1A41C4F
:10225000E0E7641CDEE700228021284600F051F907
:102260000028D3D0032010E000964B4600224021E6
:10227000284600F046F9002801D0032005E0202080
:1022800078700020387000E00220BDE8F28310B4BE
:1022900000F138039C78202C26D1002901D01400AD
:1022A00001D1012021E01C78012C01D102201CE089
:1022B00001241C7081628285C2850021596022211F
:1022C0009970002119700168CA6842F48072CA606E
:1022D00001684A6942F001024A610068C16841F040
:1022E0002001C160002000E0022010BC704738B51A
:1022F0000446134604F138056878202834D10029B3
:1023000001D0180001D1012032BD2878012801D167
:10231000022032BD012028702162A384E3840020C2
:102320006860212068700FF25110226BD0630FF2A9
:102330007510226B10640FF27510226BD0640020B0
:10234000226B10652068021D206B02F0BEF86FF052
:10235000400021680860002028702068416941F031
:1023600080014161002032BD022032BD38B50446F3
:1023700020680168C268436911F00F0007D18D061B
:1023800005D5950603D52046BDE8324048E1002832
:1023900061D0D80702D412F4907F5CD00846C00701
:1023A00005D5D00503D5E06B40F00100E063480798
:1023B00006D51846C00703D5E06B40F00200E06385
:1023C000880706D51846C00703D5E06B40F0040027
:1023D000E063080705D5D80703D5E06B40F0080097
:1023E000E063E06B002846D0880604D5900602D54D
:1023F000204600F015F920684069800900F00100CE
:10240000E16B090701D400281FD0204600F0B5F881
:1024100020684169490613D5416921F040014161B5
:10242000606B00280CD00FF271110165606B02F037
:1024300084F800281FD0606B016DBDE83440084768
:102440002046BDE8324002F006BA204602F003FA08
:102450000020E06331BD080605D5100603D52046EF
:10246000BDE832409EE0480605D5500603D520461B
:10247000BDE83240C7E031BD816B00680068C0052F
:102480000CD40020C8840868426922F080024261AE
:102490000868C16841F04001C1607047084602F019
:1024A000CAB90000806B02F08BBA000038B5846BAB
:1024B00020684069C00900F0010004F1390529785D
:1024C000212906D1002804D00020E084204600F015
:1024D0004BF820684069800900F0010069782229E2
:1024E00006D1002804D00020E085204600F045F801
:1024F000E06B40F01000E0632046BDE8324002F09F
:10250000AAB92DE9F04105460E4617469846069CA5
:10251000286800683040B04201D1012000E000206E
:10252000394688421DD114F1010FF1D0002C05D09D
:1025300001F030FFA0EB08008442E9D22868C168AE
:1025400021F4D071C160286841694908490041619E
:1025500005F13800202141708170002101700320B5
:1025600000E00020BDE8F0810168CA6822F0C002E6
:10257000CA60202180F8391070470168CA6822F4C7
:102580009072CA6001684A69520852004A6120216B
:1025900080F83A1070470000806B0021C185C1842B
:1025A00002F059B990F8391021292AD1016A8268BC
:1025B000B2F5805F0ED10988C1F30801026851604D
:1025C000026A0169002902D1911C016207E0511CD5
:1025D000016204E04A1C0262097802685160C18C01
:1025E000491EC18489B2002909D10168CA6822F054
:1025F0008002CA600068C16841F04001C1600020EB
:1026000070470220704780B50168CA6822F0400216
:10261000CA60202180F8391002F00DF9002002BDB7
:1026200080B590F83A10222944D10169826A836802
:10263000B3F5805F11D103680029596806D1C1F351
:1026400008011180816A891C816215E001F0FF0197
:102650001180816A491C81620EE0002905D1511C5C
:10266000816201684968117006E0511C816201684D
:10267000496801F07F011170C18D491EC18589B281
:10268000002915D10168CA6822F02002CA600168D9
:10269000CA6822F48072CA6001684A69520852000E
:1026A0004A61202180F83A1002F08BF9002002BD27
:1026B000002002BD022002BD2DE9F0410446216840
:1026C0000A6922F44052E06802430A612168CA683C
:1026D00097480240A06802432069024360690243B0
:1026E000E0690243CA6021684A6922F44072A06925
:1026F00002434A6120688F49E269B2F5004F40F019
:102700008B80884202D08C49884242D102F0EFF996
:10271000054602F0ECF9064602F0E9F9074602F038
:10272000E6F9804602F0E3F9616849006422192362
:102730005D43B5FBF1F59446B5FBFCF55E43B6FB96
:10274000F1F65F43B7FBF1F7B7FBFCF702FB176647
:10275000F60032361746B6FBF7F6760006F4F87642
:1027600006EB051603FB08F8B8FBF1F54343B3FB92
:10277000F1F01146B0FBF1F002FB1052D200323200
:102780000846B2FBF0F000F007008619206886606A
:10279000CAE002F0A1F9054602F09EF9064602F0F1
:1027A0009BF9074602F098F9804602F095F96168B6
:1027B0004900642219235D43B5FBF1F59446B5FB4E
:1027C000FCF55E43B6FBF1F65F43B7FBF1F7B7FBF1
:1027D000FCF702FB1766F60032361746B6FBF7F633
:1027E000760006F4F87606EB051603FB08F8B8FB4E
:1027F000F1F54343B3FBF1F01146B0FBF1F002FBFE
:102800001052D20032320846B2FBF0F000F007005E
:1028100086192068866087E0884202D0464988424F
:1028200041D102F064F9054602F061F9064602F072
:102830005EF9074602F05BF9804602F058F96168DC
:102840008900642219235D43B5FBF1F59446B5FB7D
:10285000FCF55E43B6FBF1F65F43B7FBF1F7B7FB60
:10286000FCF702FB1766360132361746B6FBF7F661
:1028700006F0F00606EB051603FB08F8B8FBF1F5C9
:102880004343B3FBF1F01146B0FBF1F002FB1052F1
:10289000120132320846B2FBF0F000F00F00861948
:1028A0002068866040E002F017F9054602F014F94E
:1028B000064602F011F9074602F00EF9804602F0D2
:1028C0000BF961688900642219235D43B5FBF1F5BA
:1028D0009446B5FBFCF55E43B6FBF1F65F43B7FBF0
:1028E000F1F7B7FBFCF702FB1766360132361746E5
:1028F000B6FBF7F606F0F00606EB051603FB08F844
:10290000B8FBF1F54343B3FBF1F01146B0FBF1F036
:1029100002FB1052120132320846B2FBF0F000F016
:102920000F00861920688660BDE8F0810000000075
:10293000F369FFFF001001400014014038B5012287
:102940004FF40061DFF8D40B02F0ACFADFF8D44B9F
:1029500002F0E6FA206002F0E6FA606002F0E6FAC1
:10296000A0600FF6344104F10C0000F007FF04F101
:102970000C0000F023FF0246DFF8AC5B4FF4FA7363
:1029800092B204F10C012846FFF71DFC642000F010
:10299000CDFFC82002F067FB2268C2F3074302F0B4
:1029A000FF020FF6004104F10C0000F0E7FE04F115
:1029B0000C0000F003FF4FF4FA73024692B204F1E8
:1029C0000C012846FFF7FFFB642000F0AFFF4FF437
:1029D000FA7002F048FB0FF6E03104F10C0000F051
:1029E000CDFE04F10C0000F0E9FE4FF4FA7302464C
:1029F00092B204F10C012846FFF7E5FB642000F0D9
:102A000095FF0A20BDE8324002F02DBBFEB504461A
:102A1000DFF8185B012085F80E03C82000F086FF60
:102A20000027DFF80C6B17E064230122A021304659
:102A300003F0C6FD0028F7D14FF4FA600290202081
:102A4000019004EB4710009010237A0192B2A0216C
:102A5000304603F0C1FB7F1C182FE5D3642301220D
:102A6000A021304603F0ACFD0028F7D14FF4FA6006
:102A700002900C20019004F54070009010234FF458
:102A80004072A021304603F0A7FB002085F80E031A
:102A9000F7BD00B5ADF5437D6846DFF8981A4FF4F1
:102AA000437200F0E7FD6846FFF7B0FFDFF87C0AED
:102AB00069464FF4437200F0DDFD0DF5437D00BD26
:102AC00070B5ADF5467D0446DFF8605A012085F803
:102AD0000E03C82000F02AFFDFF8546A4FF0FF33DE
:102AE0000122A021304603F06BFD0028F6D14FF4FF
:102AF000FA6002904FF44370019003A800901023F5
:102B00000022A021304603F00BFC002085F80E03C4
:102B1000204603A94FF4437200F0ACFD0DF5467D4D
:102B200070BD18B5ADF5437DDFF80C0A016841F0C2
:102B300008010160FFF702FFDFF8004A01224FF4AD
:102B40000041204602F0AEF901220821204602F0A1
:102B5000A9F901221021204602F0A4F90122202126
:102B6000204602F09FF90021DFF8D40904F081F833
:102B70006846FFF7A5FFDFF8B449204669464FF4E1
:102B8000437200F077FD04F234400021016041609F
:102B900004F54370417001210170B7EE000A04F2A0
:102BA0005C6004F0C3F8B7EE000A04F2CC4004F015
:102BB000BDF8B7EE000A04F2945004F0B7F8B7EE8F
:102BC000000A04F5D86004F0B1F8B7EE000A04F585
:102BD000A66004F0ABF8B7EE000A04F5BF6004F09D
:102BE000A5F8002012E0DFF85C19C0EBC00201EB91
:102BF0008201DFF854290A60DFF850294A60DFF8C3
:102C000050298A604FF08042CA60401C0B28EADBE2
:102C10000DF5447D10BD0000DFF83809002101608A
:102C2000416081609FEDA50A80ED030A80ED040AF2
:102C300080ED050A01634163816380ED0F0A80ED39
:102C4000100A80ED110A704790ED000AD2ED000ADB
:102C5000F4EE400AF1EE10FA01D582ED000A90ED93
:102C6000000AD1ED000AB4EE600AF1EE10FA01D5C7
:102C700081ED000A70472DE9F8430746DFF8AC58AC
:102C800005F586642078002840F015814FF0000893
:102C900005F5966664E008EB480007EB8009B9F893
:102CA000081005F25C6004F05AF884ED0E0AB9F8D9
:102CB000001005F2CC4004F052F884ED0F0AB9F888
:102CC000041005F2945004F04AF884ED100A05F55A
:102CD000906205F28C4105F58D60FFF7B5FF05F2B6
:102CE000844205F5926105F26C40FFF7ADFF05F5F2
:102CF000916205F2944105F58E60FFF7A5FFB9F8E2
:102D00000A1005F5D86004F02AF884ED1A0AB9F81B
:102D1000021005F5A66004F022F884ED1B0AB9F84C
:102D2000061005F5BF6004F01AF884ED1C0A32465F
:102D300005F2BC4105F59360FFF786FF05F2B4424A
:102D400005F5986105F29C40FFF77EFF05F5976257
:102D500005F2C44105F59460FFF776FF08F101081C
:102D6000B8F1280F97DB05F52B7090ED020AD0ED36
:102D7000000A94ED0E1A21EE201A21EE001A84EDBD
:102D8000111A90ED051AD0ED031A94ED0F2A22EED8
:102D9000212A22EE012A84ED122A90ED082AD0ED94
:102DA000062A94ED103A23EE223A23EE023A84EDFD
:102DB000133A94ED143A23EE203A23EE003A84EDD0
:102DC000143AD4ED153A63EEA13A63EE813AC4EDBC
:102DD000153AD4ED163A63EEA23A63EE823AC4EDA8
:102DE000163A63EE200A20EE800A84ED140A94ED70
:102DF000180A20EE210A20EE010A84ED140A94ED4F
:102E0000190A20EE220A20EE020A84ED140A90ED3F
:102E10000B0AD0ED090A94ED1A1A21EE201A21EEC0
:102E2000001A84ED1D1A90ED0E1AD0ED0C1A94EDD7
:102E30001B2A22EE212A22EE012A84ED1E2A90ED81
:102E4000112AD0ED0F2A94ED1C3A23EE223A23EEFC
:102E5000023A84ED1F3A96ED003A23EE203A23EE33
:102E6000003A86ED003A96ED013A23EE213A23EE40
:102E7000013A86ED013A96ED023A23EE223A23EE2C
:102E8000023A86ED023A96ED033A63EE200A20EE0E
:102E9000800A86ED030A96ED040A20EE210A20EE50
:102EA000010A86ED040A96ED050A20EE220A20EEBC
:102EB000020A86ED050ABDE8F1830000FFFF7F7F6F
:102EC0002DE9F8432DED028B8046DFF8607607F59B
:102ED00086663078002840F037814FF00009DFF82F
:102EE00064567EE0162010FB09F008EB0004A08A6F
:102EF00000EE100AB8EE400A05F58C7003F0B6FF3C
:102F000086ED0D0A608A00EE100AB8EE400A05F15F
:102F1000FC0003F0ABFF86ED0C0AE08900EE100A1E
:102F2000B8EE400A05F1C40003F0A0FF86ED0A0ADE
:102F3000208A00EE100AB8EE400A05F1E00003F026
:102F400095FF86ED0B0A208800EE100AB8EE400AC5
:102F5000284603F08BFF86ED030A608800EE100A16
:102F6000B8EE400A05F11C0003F080FF86ED040A6C
:102F7000A08800EE100AB8EE400A05F1380003F010
:102F800075FF86ED050AE08800EE100AB8EE400AEB
:102F900005F1540003F06AFF86ED060A208900EE71
:102FA000100AB8EE400A05F1700003F05FFF86EDED
:102FB000070A608900EE100AB8EE400A05F18C009D
:102FC00003F054FF86ED080AA08900EE100AB8EE5F
:102FD000400A05F1A80003F049FF86ED090A09F14E
:102FE0000109B9F1280FFFF67DAF96ED0D8A07F5BF
:102FF0002177D7ED008A96ED0C0A28EE800AF0EED4
:10300000000A20EE200A80EE080AD7ED090A20EE19
:10301000200A86ED0C0A96ED0A0A28EE800A10EEC8
:10302000100A00F087FBDFF83025DFF8303503F0B9
:103030003FFF04460D4618EE100A00F07BFB0246E7
:103040000B462046294604F005F804460D46386A2A
:1030500000F070FB22462B4603F02AFF00F0E4FB51
:10306000B06296ED0B0A28EE800A80EE080A10EE98
:10307000100A00F05FFB02460B46DFF8E404DFF8BD
:10308000E41404F00BF90022DFF8DC3403F0E2FF73
:103090000022DFF8D83404F073F900F0C5FBF062C9
:1030A00096ED030A28EE800A80EE080AD7ED010AA1
:1030B00020EE200A86ED030A96ED040A28EE800A27
:1030C00080EE080AD7ED020A20EE200A86ED040AF7
:1030D00096ED050A28EE800A80EE080AD7ED030A6D
:1030E00020EE200A86ED050A96ED060A28EE800AF3
:1030F00080EE080AD7ED040A20EE200A86ED060AC3
:1031000096ED070A28EE800A80EE080AD7ED050A38
:1031100020EE200A86ED070A96ED080A28EE800ABE
:1031200080EE080AD7ED060A20EE200A86ED080A8E
:1031300096ED090A28EE800A80EE080AD7ED070A04
:1031400020EE200A86ED090ABDEC028BBDE8F18372
:1031500038B5DFF81C548021284601F09BFEDFF8CB
:10316000CC4394F8C81460F3000184F8C8144FF4F9
:103170008071284601F08EFE94F8C81460F3410176
:1031800084F8C814DFF8EC534FF48041284601F06E
:1031900081FE94F8C81460F3820184F8C8144FF4D7
:1031A0000041284601F076FE94F8C81460F3C3018C
:1031B00084F8C8144FF48051284601F06BFE94F84F
:1031C000C81460F3041184F8C8144FF40051284661
:1031D00001F060FE94F8C81460F3451184F8C81437
:1031E0004FF48061284601F055FE94F8C81460F34E
:1031F000861184F8C8144FF40061284601F04AFE95
:1032000094F8C81401F07F0141EAC01184F8C81491
:1032100031BD10B5D84C0221C84801F03BFE002852
:10322000208807D1014641F2707291421ADA401C9F
:10323000208010BD002801D0401E208020886428F6
:1032400005D1002020800120B84981F81C04208885
:1032500040F6B831884205D1002020800120B349D2
:1032600081F81C0410BD70B5C44D2C784FF47A72EF
:10327000C34E002C05D13146C248304400F0FAF963
:1032800005E006F57A71C048304400F0F3F968783B
:10329000002828D0002C0DD1002006F5FA61FA286C
:1032A00017DA6A68121806EB80035B8821F812307F
:1032B000401CF4E7002006F5FA6108E06A6812187D
:1032C00006EB8003B3F8EA3321F81230401CFA28E9
:1032D000F4DB6868FA30686049F64041884202D3FE
:1032E00000206870686070BD32E70000042800D9D3
:1032F000704738B52DED028B90B0DFE810F0050077
:103300004C009200FA00EA00002004F06BF9002162
:10331000084604F02BFA9D4CA06E00F00BFA024612
:103320004FEA0103A7A1684600F028FA984D01234F
:10333000D5E900010A460146684604F002FA09216F
:10334000002004F013FAE06E00F0F4F902460B4698
:10335000A0A1684600F012FA0123D5E900010A464F
:103360000146684604F0EDF91221002004F0FEF950
:10337000206F00F0DFF902464FEA010399A1684689
:1033800000F0FCF90123D5E900010A460146684630
:1033900004F0D7F9ADE0002004F024F9002108463C
:1033A00004F0E4F9794CA06B00F0C4F902460B4636
:1033B00090A1684600F0E2F9754D0123D5E90001BE
:1033C0000A460146684604F0BCF90921002004F0D1
:1033D000CDF9E06B00F0AEF902460B4689A16846D4
:1033E00000F0CCF90123D5E900010A460146684600
:1033F00004F0A7F91221002004F0B8F9206C00F0C5
:1034000099F902464FEA010382A1684600F0B6F935
:103410000123D5E900010A460146684604F091F906
:1034200067E0002004F0DEF80021084604F09EF971
:10343000564C9FED3B8A94ED000A20EE080A10EEF0
:10344000100A00F077F902464FEA010375A16846B9
:1034500000F094F94E4D0123D5E900010A460146DA
:10346000684604F06EF90921002004F07FF994ED1C
:10347000010A20EE080A10EE100A00F05BF902467D
:103480004FEA01036BA1684600F078F90123D5E902
:1034900000010A460146684604F053F91221002053
:1034A00004F064F994ED020A20EE080A10EE100A06
:1034B00000F040F902460B4662A1684600F05EF952
:1034C0000123D5E900010A460146684604F039F9AE
:1034D0000FE0002004F086F80021084604F046F9C9
:1034E00001232B48D0E9004521462A46294804F00B
:1034F00028F910B0BDEC028B31BD10B501460B4C64
:1035000004F2133000F03AF904F544700021018010
:1035100004218170012084F80F0310BD00000240D7
:103520000000C84260DB012004E1012058B4012002
:1035300058DF012000F40008082004E000100240D9
:1035400028E2012000D901209766253535B7FFBF55
:10355000946E7F3FD8B80120936FB6B931BD274034
:1035600052B81E85EB51E83F00000440000039408E
:1035700000080240000C024066E2012080B80120F1
:1035800044070020504001003844010094B8012055
:10359000000000206BB7012041542B524F4C4530A6
:1035A0000000000041542B4E414D455649425F25D5
:1035B000303264253032640041542B524553455417
:1035C00000000000546F6B20412020252E30664102
:1035D00000000000546F6B20422020252E306641F1
:1035E00000000000546F6B20432020252E306641E0
:1035F0000000000048616E7020412020252E3066BA
:103600005600000048616E7020422020252E306652
:103610005600000048616E7020432020252E306641
:103620005600000054656D6E20312020252E306636
:103630002A00000054656D6E20322020252E306651
:103640002A00000054656D6E20332020252E306640
:103650002A00000062B38B0708D0521E11F8013B0C
:1036600000F8013B00F024808B07F6D1830740F07F
:10367000208000BF103A07D330B4B1E83810103AB8
:10368000A0E83810F9D230BC530724BFB1E80810C5
:10369000A0E8081044BF51F8043B40F8043BD207AF
:1036A00024BF31F8022B20F8022B44BF0B780370A3
:1036B0007047121F17D35B0009D151F8043B20F863
:1036C000023B1B0C121F20F8023BF6D20BE051F814
:1036D000043B00F8013B1B0A20F8023B1B0C121FA5
:1036E00000F8013BF3D238BF121D521E24BF11F85F
:1036F000013B00F8013BF8D8704730B4002513E0D7
:1037000050F8042BD30744BFA9F101039A18091FED
:10371000042942F8045BFAD213468C0744BF158093
:103720009B1CC90748BF1D7050F8041B0029E7D136
:1037300030BC7047C0F3C75181B1FF2906D0C1101A
:10374000400721F0E04101F16051704741020CBF98
:1037500040F4E0016FF000410020704700F00041AC
:1037600000020AD0B0FA80FC00FA0CF001F16051BE
:10377000A1EB0C5101EBD021400570470CB430B5E2
:1037800083B00A4606A902910446002501940095DB
:1037900002AB01A9084878441E3003F0F1FF019AFA
:1037A000157000284EBF04460198041B204603B044
:1037B00030BC5DF80CFB00BF6700000000F10103A6
:1037C000810704D010F8011B820781B1FAD1026889
:1037D000A2F10131914311F0803104BF50F8042F60
:1037E000F6E709BAB1FA81F100EBD100401CC01A2A
:1037F0007047B1F5807F02D34FF0FF307047017002
:10380000012070470078401E8041C043C00F7047C0
:1038100041EC100B01BD80B505F08EFAF8E70268A7
:10382000531C03601170704701F000428B1AA3F122
:103830006051B1F5801F0ADBB1F17F6F1FD242EA00
:10384000C102C10071F1004142EB507070470B158D
:10385000C3F10903212B10D2890241EA9051800261
:103860000128494141F0004121FA03F0C3F120034E
:10387000994071F1004150417047100070476FF05E
:10388000000013EB103F5CBF000E42EAC0507047CF
:10389000014600200A46842A01D0C91C0846704708
:1038A000EFF30580401E8041C043C00F704780B5D4
:1038B00005F071FB002002BD38B584B004460D460A
:1038C0006069002815D0A069002812D0B4F908005A
:1038D000FFF7DEFFA16902916169019100902B461B
:1038E00022692168606805F02BFA0390039805B0FF
:1038F00030BDB4F90800FFF7CBFF03A90191009098
:103900002B46226992B22168606805F056FA0128B8
:10391000ECD00020EBE74FF08050DFF81C1108607E
:10392000BFF34F8FBFF36F8F0020704780B5002823
:1039300000D1012005F009FB002002BD1CB5436841
:10394000002B0BD0012907D1032000900022114643
:10395000012005F0F0FE16BD002016BD01290DD195
:1039600003220021012005F037FF040004D00023CA
:103970001A46114605F063FF204616BD002016BD0D
:1039800038B5044600200090002C01D1802032BDC3
:10399000054611F1010F02D14FF0FF3502E0002979
:1039A00000D00D46FFF77CFF002814D06A460021A6
:1039B000204606F024F9012813D10098002808D0E9
:1039C0004FF08050DFF870100860BFF34F8FBFF3E7
:1039D0006F8F002032BD2946204606F045F80128A9
:1039E000F7D0FF2032BD38B50446002528460090A8
:1039F000FFF756FF002814D06946204605F0DDFF8A
:103A0000012801D0FF2032BD0098002812D04FF0CD
:103A10008050DFF824100860BFF34F8FBFF36F8F23
:103A200008E02B461A461146204605F008FF0128FB
:103A300000D0FF25284632BD04ED00E0C9B202786F
:103A40008A421AB11CBF10F8012FF9E718BF0020F5
:103A5000704710B5044606F0EDF901462046096AA4
:103A6000BDE81040084710B5044606F0E3F90146EA
:103A70002046896ABDE8104008472E00C9B2830776
:103A800006D0521E22D310F8013B9942F7D11FE015
:103A9000083A13D302F1040241EA012141EA01414B
:103AA00050F8043B121F21BF4B40A3F1013C2CEA0C
:103AB000030C1CF0803FF3D0C9B2001F083210F88D
:103AC000013B521E28BF91EA030FF8D818BF01200E
:103AD000401E704782B000200090DFF84008416827
:103AE00041F480414160416801F4804100910099B6
:103AF00000210091016841F080510160006800F0F0
:103B000080500090009800220F216FF0010002B059
:103B100006F023BA38B586B0044600221421684660
:103B200006F038FA2068DFF8F81788426FD10020D5
:103B30000590DFF8F007416941F480714161416906
:103B400001F480710591059900210591016841F00A
:103B500004010160016801F004010591059900214B
:103B60000591016841F001010160016801F0010166
:103B70000591059900210591016841F0020101605C
:103B8000006800F00200059005983F200090032097
:103B90000190002002906946DFF88C0701F00AF8D6
:103BA000CF20009003200190002002906946DFF8AA
:103BB0007C0700F0FFFF032000900190002002909E
:103BC0006946DFF86C0700F0F5FFDFF86857DFF8AB
:103BD0006807286000206860A860E8604FF4806093
:103BE00028614FF4006068614FF40050A8614FF401
:103BF0008070E861002028626862284600F0D0FBEF
:103C0000002801D002F0D7F8A563AC6375E0DFF8B7
:103C10002C17884271D100200590DFF80807416910
:103C200041F400714161416901F400710591059908
:103C300000210591016841F004010160016801F073
:103C400004010591059900210591016841F00101E8
:103C50000160016801F001010591059900210591BC
:103C6000016841F002010160006800F00200059067
:103C700005983E20009003200190002002906946A4
:103C8000DFF8A40600F096FFCF20009003200190FB
:103C9000002002906946DFF8940600F08BFF0320B5
:103CA00000900190002002906946DFF8840600F041
:103CB00081FFDFF88C56DFF88006303028604FF047
:103CC000007068600020A860E8604FF480602861A0
:103CD0004FF4006068614FF40050A8614FF48070A9
:103CE000E861002028626862284600F059FB00283D
:103CF00001D002F060F8A563AC6307B030BD10B529
:103D000086B004460022142101A806F043F9206879
:103D1000DFF83016884222D100200090DFF8040638
:103D2000016941F000510161016901F00051009108
:103D3000009900210091016841F0010101600068D3
:103D400000F00100009000983020019003200290C4
:103D50000020039001A9DFF8D40500F02BFF06B086
:103D600010BD10B586B0044600221421684606F046
:103D700011F92068DFF8D015884227D1002005907E
:103D8000DFF8A045206840F002002060206800F0C5
:103D9000020005900598C02000901220019001209B
:103DA000029003200390042004906946DFF8800508
:103DB00000F000FF00200590206940F40010206111
:103DC000206900F400100590059846E0DFF87C15A6
:103DD000884242D100200590DFF84845206840F035
:103DE00004002060206800F0040005900598002081
:103DF0000590206840F001002060206800F001007C
:103E0000059005984FF40070009012200190012059
:103E1000029003200390042004906946DFF808050F
:103E200000F0C8FE4FF48070009012200190012035
:103E3000029003200390042004906946DFF8EC040C
:103E400000F0B8FE00200590206940F400002061D9
:103E5000206900F400000590059806B010BD2DE91A
:103E6000F04786B0044600221421684606F092F816
:103E70002068DFF8DC14884240F091800020059033
:103E8000DFF8A004016941F480410161016901F496
:103E900080410591059900210591016841F00201D9
:103EA0000160016801F00201059105990021059169
:103EB000016841F004010160006800F00400059011
:103EC00005984FF4144000900220019000200290C9
:103ED000039005200490DFF858546946284600F006
:103EE00069FE4FF480400090022001900020029073
:103EF0000390062004906946284600F05BFE4020AF
:103F00000090022001900020029003900520049070
:103F10006946DFF8140400F04DFEDFF83864DFF87E
:103F2000385435604FF0C06070600020B060F060C1
:103F30004FF4806737614FF40068C6F814804FF47F
:103F40000059C6F818904FF4807AC6F81CA0306269
:103F50007062304600F024FA002801D001F02BFFF7
:103F6000E663B463DFF8F46305F118003060002005
:103F700070604020B0600020F0603761C6F81480A7
:103F8000C6F81890C6F81CA030627062304600F087
:103F900007FA002801D001F00EFFA663B46306B053
:103FA000BDE8F08710B586B004460022142101A8B0
:103FB00005F0F0FF2068DFF8A813884227D1002021
:103FC0000090DFF86003016941F40041016101697B
:103FD00001F400410091009900210091016841F035
:103FE00004010160006800F00400009000984FF4A4
:103FF000E0500190022002900020039003200490E2
:104000000620059001A9DFF8200300F0D3FD06B0DB
:1040100010BD10B586B004460022142101A805F099
:10402000B9FF2068DFF83C1388422DD100200090B2
:10403000BC48416941F001014161416901F0010160
:104040000091009900210091016841F01001016088
:10405000006800F01000009000984FF4206001907C
:10406000022002900020039004900120059001A9F5
:10407000BD4800F09FFD002205211B2005F06DFFCB
:104080001B2005F079FF26E0B849884214D10020B2
:104090000090A448016941F008010161006900F045
:1040A00008000090009800220521322005F055FFFD
:1040B000322005F061FF0EE0AD4988420BD10020AF
:1040C00000909848416941F480314161406900F4B1
:1040D00080300090009806B010BD38B586B0044618
:1040E00000221421684605F055FF2068A149884246
:1040F0004AD1002005908B48416941F0100141618F
:10410000416901F0100105910599002105910168AF
:1041100041F001010160006800F001000590059880
:104120004FF4C06000900220019001200290032013
:1041300003900720049069467C4800F03BFD8E4DBB
:104140008E4828604FF0006068604020A860002022
:10415000E8604FF48060286100206861A861E86130
:1041600028626862284600F01BF9002801D001F09F
:1041700022FE2563AC6300220521252005F0EDFE1B
:10418000252005F0F9FE88E07D49884254D10020C1
:1041900005906448016941F400310161016901F44D
:1041A00000310591059900210591016841F0080150
:1041B0000160006800F008000590059860200090FC
:1041C0000220019001200290032003900720049018
:1041D00069466C4800F0EEFC6B4D6C4828604FF06F
:1041E000006068604020A8600020E8604FF48060B4
:1041F000286100206861A861E86128626862284639
:1042000000F0CEF8002801D001F0D5FD2563AC63A5
:1042100000220521262005F0A0FE262005F0ACFE98
:10422000262005F0AAFE00220421262005F095FE96
:10423000262005F0A1FE30E0554988422DD100200E
:1042400005903848016941F480210161016901F458
:1042500080210591059900210591016841F008012F
:104260000160006800F00800059005984FF4407068
:10427000009002200190012002900320039007206B
:10428000049069463F4800F095FC00220521272054
:1042900005F063FE272005F06FFE07B030BD10B5B6
:1042A000044620683349884211D11C48416821F0F6
:1042B000100141604FF4C0611C4800F04FFD206BBD
:1042C00000F0D2F82520BDE8104005F056BE2C497C
:1042D000884210D11148016821F400310160602149
:1042E000284800F03BFD206B00F0BEF82620BDE81A
:1042F000104005F042BE264988420ED107480168A9
:1043000021F4802101604FF440711E4800F026FD29
:104310002720BDE8104005F030BE10BD40380240F7
:1043200000200140303802400008024000000240F6
:10433000000402406CDC01201064024000210140B6
:10434000CCDC01200074004000540040005C0040C0
:10435000003800402CDD0120586002408CDD012037
:10436000003C00400000014000100240000C0040F2
:104370000040014000100140ECDD0120B864024023
:1043800000440040000C02404CDE0120A0600240CE
:104390000048004001484068704700BF14000020FA
:1043A00070B50446FFF7F6FF0646002C01D1012048
:1043B00070BD04F134050020287002206870206868
:1043C000016849084900016021680868C00709D5EB
:1043D000FFF7E0FF801B0628F6D320202862032089
:1043E000687070BD0A68DFF84803024060680243E5
:1043F000A0680243E0680243206902436069024307
:10440000A0690243E0690243206A0243606A04280B
:1044100003D1E36A206B03431A430A6020684669AC
:10442000606AF60850EAC60604280ED1A06A064360
:10443000E06A002809D0204600F0A8F9002804D03E
:10444000402028620120687070BD206846612046C7
:1044500000F088F93F22A96A8A4082600020286221
:1044600001206870002070BD10B5002801D1012026
:1044700010BD00F134046178022901D1022010BD81
:1044800001680A68520852000A600021026811603F
:1044900002685160026891600268D160026811612F
:1044A00021210268516100F05DF90021A160E16005
:1044B00021616161A161E1613F22A16A8A4082605C
:1044C000002020626070207010BDF8B50446002501
:1044D00004F13406776A3078012801D10220F2BD58
:1044E000012030707078012822D102207070284697
:1044F0003062204600F020F93F21B06A8140B96067
:104500002068016841F0160101602068416941F0AE
:1045100080014161F068002804D02068016841F002
:10452000080101602068016841F00101016002E0BA
:104530002846307002252846F2BD90F83510022931
:1045400003D08021416501207047052180F8351096
:1045500000680168490849000160002070472DE9A2
:10456000FC41044600200090724800684FF4165148
:10457000B0FBF1F504F13406776AD7F80080082122
:10458000B06A01FA00F018EA000F0ED02068026845
:1045900052070AD5026822F004020260B06A814024
:1045A000B960306A40F001003062B06A4146C140F3
:1045B000C9070BD521684969090607D5012101FA08
:1045C00000F0B860306A40F0020030620421B06A46
:1045D00001FA00F018EA000F08D02168096889077D
:1045E00004D5B860306A40F0040030621021B06A2F
:1045F00001FA00F018EA000F23D0216809680907C2
:104600001FD5B8602068016849030ED50068000313
:1046100005D4F168002914D02046884711E071695B
:1046200000290ED0204688470BE00168C90503D455
:10463000016821F008010160F168002901D02046DD
:1046400088472021B06A01FA00F018EA000F4CD028
:1046500021680968C90648D5B860206871780529BD
:10466000016821D121F0160101602068416921F023
:1046700080014161F068002802D17069002804D0EF
:104680002068016821F0080101603F21B06A814083
:10469000B9600020307001207070F169002945D0A8
:1046A0002046BDE8FC41084749030ED500680003D9
:1046B00005D43169002918D02046884715E0B16833
:1046C000002912D0204688470FE00168C90507D4A9
:1046D000016821F01001016000203070012070702D
:1046E000B168002901D020468847306A00281DD0D3
:1046F000306AC00713D5052070702068016849082A
:10470000490001600098401C0090854203D3206856
:104710000068C007F6D40020307001207070B169C5
:10472000002903D02046BDE8FC410847BDE8F381DD
:104730003F8010F02000002030B40468256825F484
:10474000802525600468636003688468402C03D179
:104750009A600068C16002E099600068C26030BC85
:1047600070470000017810391822B1FBF2F200BF47
:1047700023A1895CC1650168890A8902042A02D3E0
:10478000091D816500E08165806D7047024600204B
:10479000936A9169002910D1002B03D0022B01D01C
:1047A00005D37047D16AC90128D501207047D16A65
:1047B000B1F1C07F22D101207047B1F5005F12D165
:1047C000032B1BD8DFE803F0020402090120704725
:1047D000D16AC90112D501207047D16AB1F1C07FF9
:1047E0000CD101207047022B02D9DB1E02D070478A
:1047F00001207047D16AC90100D50120704700002F
:104800000006101600061016684805F004BC68483B
:1048100005F001BC644A6749884200D02C32816AA5
:10482000491E8162C18D491CC185806A017802F1EF
:10483000080005F0D4BB5F49884204D100205A49E2
:1048400081F8290070475C49884203D1002056490D
:1048500081F85500704710B5534C5649884200D036
:104860002C34FFF7E8FF042204F114012068BDE8AE
:104870001040FDF70CBD0021C16100F128010022AC
:104880004A700A70042200F114010068FDF7FFBCB1
:1048900010B5454C2068FDF780FC4FF4007204F120
:1048A000580104F1080005F092FB00F077FB204668
:1048B000BDE81040DFE710B53B4CE06AFDF76DFC4A
:1048C0004FF4806204F5167104F1340005F07FFBAB
:1048D00000F068FB04F12C00BDE81040CBE710B5F8
:1048E000314CE06AFDF759FC4FF4806204F5167113
:1048F00004F1340005F06BFB00F052FB04F12C00D6
:10490000BDE81040B7E7F8B505460E4617464FF428
:10491000FA7403E0641E0A2000F0A5FB97F8290052
:10492000002801D0002CF5D1002C03D03868C06BD2
:10493000002801D078688047012087F82900324696
:1049400092B229463868BDE8F840FDF7D0BC80B582
:104950001A4AFFF7D8FF401E8041C043C00F02BD76
:1049600038B505460C4694F82800002801D0606A46
:1049700000E0206AE1694A1CE2614554E1690A2DC0
:1049800002D0A26991420BD32246FFF7BCFF002060
:10499000E06194F82800401E8041C00F84F8280090
:1049A000284632BD0049DBE7240000202C0000200F
:1049B0005800002004E1012044E1012050000020C3
:1049C000704770472DE9F04104460F46002C5BD03C
:1049D000594E306800F00F00B84205D23770306889
:1049E00000F00F00B8424FD12068544D810712D516
:1049F000400703D5A86840F4E050A860207800077D
:104A000003D5A86840F46040A860A96821F0F001CF
:104A1000A0680143A9602078C0072AD560680128F2
:104A200003D1296889030BD42EE0022801D0032882
:104A300003D12968890103D426E02968890723D591
:104A4000A968890850EA8100A860FFF7A3FC8046A6
:104A5000A86800F00C006168B0EB810F09D0FFF787
:104A600099FCA0EB080041F289318842F0D3032081
:104A70002DE0306800F00F00874207D237703068B1
:104A800000F00F00B84201D0012020E0207840075C
:104A900005D5A96821F4E051E0680143A9602078B8
:104AA000000706D5A86820F46040216940EAC100EB
:104AB000A86000F04DF82249AA68C2F30312895C8D
:104AC000C84020490860002005F0BEFA0020BDE87B
:104AD000F0811C480068704780B5FFF7FAFF1B495A
:104AE000194A1268C2F38222895CC84002BD80B5AF
:104AF000FFF7EFFF1549144A1268C2F34232895C8E
:104B0000C84002BD0F2202600F4A136803F003037E
:104B10004360136803F0F0038360136803F4E05309
:104B2000C3601268D20802F4E052026102480068D1
:104B300000F00F0008607047003C0240003802405F
:104B4000A0FB00082000002008380240C8FE000832
:104B500010B5154C606800F00C00042802D008283D
:104B600002D01EE0114810BD226802F03F0200236F
:104B7000206840022068C0F3881005D50B49A1FBCE
:104B8000000105F09FFA04E00949A1FB000105F0CE
:104B900099FA2168C1F30141491C4900B0FBF1F0C9
:104BA00010BD034810BD00BF0438024000127A0057
:104BB0000024F400F8B400232DE04FF0080C05E0C9
:104BC000DFF800C36045F8D14FF0070C0CFA06FC83
:104BD0004CEA070C45F824C0BB4C2668D5432E4050
:104BE0004F68FF0300D51643266066682E404F6865
:104BF000BF0300D516436660A6682E404F68FF02CB
:104C000000D51643A660E6682E404D68AD0200D57B
:104C10001643E6605B1C0F2B00F29E8001249C4033
:104C20000A682240A242F5D14D68022D01D0122D12
:104C300013D11D46ED0800EB8506356A9F0007F08D
:104C40001C074FF00F0C0CFA07FC25EA0C05D1F8F5
:104C500010C00CFA07F73D43356207685D00032674
:104C6000AE40F643374091F804C00CF0030C0CFA48
:104C700005FC4CEA070707604F68012F05D0022F9B
:104C800003D0112F01D0122F10D187683740D1F8EF
:104C90000CC00CFA05FC4CEA070787604768A7437D
:104CA0004C68C4F300149C4027434760C4683440F8
:104CB0008E6806FA05F52C43C4604C68E400A9D55B
:104CC00000240094814C256845F4804525602468C3
:104CD00004F480440094009C1C46A4087C4D55F8C4
:104CE00024709E0006F00C064FF00F0C0CFA06FC28
:104CF00027EA0C07DFF8DCC1604502D14FF0000C59
:104D000064E7DFF8D4C1604502D14FF0010C5DE7E4
:104D1000DFF8C8C1604502D14FF0020C56E7DFF85A
:104D2000C0C1604502D14FF0030C4FE7DFF8B4C1BA
:104D3000604502D14FF0040C48E7DFF8ACC1604594
:104D400002D14FF0050C41E7DFF8A0C160457FF4C8
:104D500037AF4FF0060C39E7F1BC70472DE9F0474B
:104D600080464FF000090F2249E04FF0080A05E0A5
:104D7000DFF850A1D045F8D14FF0070A0AFA0CFA33
:104D8000D64513D156F825C02CEA070746F82570FA
:104D9000E4434D4D2E6826402E606E6826406E60BE
:104DA000AE682640AE60EE683440EC6003254FEA02
:104DB000490405FA04F4E443D8F800502540C8F843
:104DC00000504D46ED0808EB85052E6A00F01C00EA
:104DD00002FA00F026EA00002862D8F80800204015
:104DE000C8F80800D8F8040020EA0303C8F8043023
:104DF000D8F80C000440C8F80C4009F10109B9F1D9
:104E00000F0F45D8012303FA09F303EA01049C427A
:104E1000F3D14D46AD082E4E56F825E04FEA8900F5
:104E200000F00C0C02FA0CF707EA0E0EDFF8A4A053
:104E3000D04502D14FF0000AA0E7DFF89CA0D04592
:104E400002D14FF0010A99E7DFF890A0D04502D1D6
:104E50004FF0020A92E7DFF888A0D04502D14FF068
:104E6000030A8BE7DFF87CA0D04502D14FF0040A9B
:104E700084E7DFF874A0D04502D14FF0050A7DE742
:104E8000DFF868A0D0457FF473AF4FF0060A75E7EE
:104E9000BDE8F087006901400846401E8041C043DC
:104EA000C00F7047002A01D08161704709048161F9
:104EB000704742690A408A4202D109048161704701
:104EC00081617047001C0240003C014044380240B0
:104ED000083801400000024000040240000802407F
:104EE000000C024000100240001402400018024072
:104EF00080B51048016841F400710160016841F417
:104F000080610160016841F480710160032005F057
:104F100023F8002005F098F8FEF7DCFD002002BD24
:104F200005480068704705480068704704480068F5
:104F300070470000003C0240107AFF1F147AFF1FE8
:104F4000187AFF1FDFF85C0C00F14C01DFF80C2D24
:104F5000C2F81411806CFEF746BDDFF8480C00F56E
:104F60006F71DFF8F82CC2F81411806CFEF73BBDAE
:104F7000DFF8680C00F16C01DFF8E02CC2F81811C2
:104F8000006EFEF730BDDFF8540C00F51371DFF84A
:104F9000CC2CC2F81811006EFEF725BD00F09BBCAA
:104FA00000F0B3BC80B5DFF86C0CDFF8F01C0160DA
:104FB0004FF46131416000218160C16001610C21C9
:104FC000416100218161C161FDF7B8F8002803D07B
:104FD000BDE8014000F0EFBE01BDDFF83C0C016808
:104FE000DFF8382C127889180160DFF8341C486823
:104FF000002802D04868401E48608868002802D017
:105000008868401E88600888401C0880DFF84C2CA7
:1050100080B2B0F57A7F12D100200880DFF8C40C8E
:105020004168491C416002F584710868002801D07C
:10503000401E08604868002801D0401E48609088E3
:10504000401C908080B2B0F5FA6F0BDB002090809E
:105050009079401C9071C0B2032801DB0020907150
:105060000120D070704738B50446FFF793F9054624
:1050700014F1010F05D0DFF8A40B0078241800E02C
:1050800030BFFFF787F9401BA042F9D331BD10B5FF
:10509000DFF8544C002280212046FFF703FF142044
:1050A000FFF7E1FF012280212046FFF7FBFEC82029
:1050B000BDE81040D7E7F8B5B2B0FFF719FF00F030
:1050C00005F900F09FFC00F052FC00F066F900F0DA
:1050D0008DFA00F0B3FA00F0CDFA00F0E7FA00F034
:1050E00002FB00F020FB00F0F6FB00F00EFC00F0ED
:1050F00024FC00F076FB00F000FA00F0C8FBDFF8BB
:10510000EC4BDFF8EC5B02212846FFF7C3FE0028DA
:1051100057D1FDF713FCFDF7BCFC4FF47A7319224D
:105120000FF694412046FDF74EF8DFF8C87B3A6849
:10513000DFF8C46BC2F3074302F0FF020FF694419D
:105140003046FEF71BFB3046FEF738FB4FF47A7310
:10515000024692B231462046FDF735F802F0DEF9FC
:105160000021084602F002FB3A68C2F3074302F04E
:10517000FF020FF678413046FEF700FBDFF87C7B3C
:105180000123D7E900010A460146304602F0D9FA68
:105190001021002002F0EAFA0FF668413046FEF7CF
:1051A000EDFA0123D7E900010A460146304602F034
:1051B000C8FA02F025FA02212846FFF76BFE002804
:1051C000F9D0FDF7AEFCFFF762FFFFF761FBFFF7D9
:1051D00086FB4FF47A731C220FF63C412046FCF705
:1051E000F2FF0FF66840D0E90023CDE90623012144
:1051F00006A8FEF7A3FBDFF8AC1988640FF654404D
:10520000D0E90023CDE90423DFF8F44A012104A802
:10521000FEF794FB20660FF64440D0E90023CDE969
:105220000223012102A8FEF789FB60660FF63440D5
:10523000D0E90023CDE9002301216846FEF77EFB7B
:10524000A0662BA80FF624411C22FEF713FA0021BA
:105250002BA8FEF731FBA06424A80FF62C411C22DA
:10526000FEF708FA002124A8FEF726FBE0641DA83B
:105270000FF630411C22FEF7FDF900211DA8FEF7B4
:105280001BFB206516A80FF638411C22FEF7F2F929
:10529000002116A8FEF710FB60650FA80FF63C4131
:1052A0001C22FEF7E7F900210FA8FEF705FBA06519
:1052B00008A80FF644411C22FEF7DCF9002108A8DB
:1052C000FEF7FAFAE065FEF7F2FAFEE780B596B06F
:1052D000002230210AA804F05DFE0022142105A856
:1052E00004F058FE0022102101A804F053FE002013
:1052F0000090DFF8100A016841F0805101600068F9
:1053000000F080500090009800200090DFF8F8092D
:10531000016841F480410160006800F48040009021
:10532000009801200A904FF480300B9002201090DA
:105330004FF48000119004201290A82013900220B6
:105340001490042015900AA804F0D4FF002801D07E
:1053500000F031FD0F2005900220069000200790FC
:105360004FF4A05008904FF480500990052105A8F3
:10537000FFF728FB002801D000F01DFD012001905F
:10538000322002900220039001A805F027F900289E
:1053900001D000F010FD17B000BD1FB50022102194
:1053A000684604F0F7FDDFF8FC47DFF8600920608D
:1053B0004FF4803060600020A060012020612076E2
:1053C000002084F82000E062DFF84409A062002099
:1053D000E0600B20E061012084F83000606120462D
:1053E00005F0C2F9002801D000F0E5FC0320009090
:1053F00001200190072002906946204605F07AFAC4
:10540000002801D000F0D7FC062000900220019077
:105410006946204605F06EFA002801D000F0CBFC6A
:1054200007200090032001906946204605F062FAAB
:10543000002801D000F0BFFC0E2000900420019055
:105440006946204605F056FA002801D000F0B3FC6A
:105450000F200090052001906946204605F04AFA89
:10546000002801D000F0A7FC082000900620019041
:105470006946204605F03EFA002801D000F09BFC6A
:1054800009200090072001906946204605F032FA75
:10549000002801D000F08FFC0A2000900820019025
:1054A0006946204605F026FA002801D000F083FC6A
:1054B00010200090092001906946204605F01AFA54
:1054C000002801D000F077FC122000900A20019003
:1054D0006946204605F00EFA002801D000F06BFC6A
:1054E000112000900B2001906946204605F002FA39
:1054F000002801D000F05FFC1FBD1FB50022102165
:10550000684604F047FDDFF8D446DFF8080820605D
:105510004FF4803060600020A060012020610020F6
:105520002076012084F82000062060624FF0805031
:10553000E0624FF02060A0620020E0600620E061A1
:10554000012084F830006061204605F00DF9002844
:1055500001D000F030FC00200090012001900020DC
:1055600002906946204605F0C5F9002801D000F0F8
:1055700022FC0B200090022001906946204605F095
:10558000B9F9002801D000F016FC0120009003209A
:1055900001906946204605F0ADF9002801D000F0E1
:1055A0000AFC0C200090042001906946204605F07A
:1055B000A1F9002801D000F0FEFB02200090052098
:1055C00001906946204605F095F9002801D000F0C9
:1055D000F2FB0D200090062001906946204605F060
:1055E00089F9002801D000F0E6FB1FBD1CB50022A0
:1055F0000821684604F0CEFCDFF81C47DFF81C07E2
:105600002060204601F020FB002801D000F0D3FBF1
:1056100000200090019002466946204601F061FB9F
:10562000002801D000F0C7FB10226946204601F097
:1056300058FB002801D000F0BEFB13BD80B5DFF899
:10564000E006DFF8E0160160DFF8DC1641600021BB
:105650008160C1604FF4804101610021416181613D
:10566000C161016200F056FC002802D0BDE8014093
:10567000A1E301BD80B5DFF8B406DFF8B416016020
:10568000DFF8A416416000218160C1604FF48041C1
:105690000161002141618161C161016200F03AFC58
:1056A000002802D0BDE8014085E301BD80B5DFF8E8
:1056B0008406DFF8841601604FF400714160002217
:1056C0008260C26001614BF68031416111468161A7
:1056D000C1610121016205F095FA002802D0BDE800
:1056E000014068E301BD80B5DFF85006DFF85016D1
:1056F00001604FF48271416000218160C1600161ED
:1057000041614FF4007181610021C1610162416218
:1057100081620A21C16205F0C7FB002802D0BDE802
:10572000014048E301BD10B58AB00022102106A84F
:1057300004F030FC00220821684604F02BFC002213
:10574000102102A804F026FCDFF8F845DFF8F80580
:10575000206000206060A060E06020616061A06166
:10576000204605F0E1FB002801D000F024FB4FF4B7
:105770008050069006A9204605F0A9FD002801D01A
:1057800000F019FB204605F012FC002801D000F0C3
:1057900012FB0020009001906946204605F0E6FFCC
:1057A000002801D000F007FB0A200290012003909E
:1057B000002004900590024602A9204605F0B9FC9D
:1057C000002801D000F0F7FA00200290042202A97C
:1057D000204605F0AEFC002801D000F0ECFA0AB03B
:1057E00010BD18B58DB00022102109A804F0D2FB1D
:1057F00000220821684604F0CDFB00221C2102A8EB
:1058000004F0C8FBDFF84445DFF8440520600020C1
:105810006060A06042F60410E06000202061A0619A
:10582000204605F081FB002801D000F0C4FA4FF4B7
:105830008050099009A9204605F049FD002801D0B3
:1058400000F0B9FA204605F099FB002801D000F0DD
:10585000B2FA40200090002001906946204605F0F1
:1058600085FF002801D000F0A6FA60200290642095
:105870000390002004900690024602A9204605F0FD
:10588000ABFC002801D000F096FA0EB010BD1FB599
:1058900000221021684604F07DFBDFF8B844DFF8F1
:1058A000B804206000206060A060E0602061A0611A
:1058B000204605F039FB002801D000F07CFA4FF4B7
:1058C000805000906946204605F001FD002801D077
:1058D00000F071FA1FBD80B5DFF81004DFF87C140A
:1058E00001604FF41651416000218160C160016187
:1058F0000C21416100218161C161FCF71FFC00287E
:1059000002D0BDE8014056E201BD80B5C148E3497F
:1059100001604FF4E131416000218160C1600161AB
:105920000C21416100218161C161FCF707FC002865
:1059300002D0BDE801403EE201BD80B5DFF82004A1
:10594000DFF8201401604FF4E131416000218160F3
:10595000C16001610C21416100218161C161FCF7DD
:10596000EDFB002802D0BDE8014024E201BD80B576
:1059700000200090DFF8F003016841F4800101602D
:10598000016801F4800100910099002100910168F3
:1059900041F400110160006800F4001000900098CC
:1059A000002205210E2004F0D8FA0E2004F0E4FABB
:1059B000002205210F2004F0D0FA0F2004F0DCFAB9
:1059C00000220521112004F0C8FA112004F0D4FAB5
:1059D00000220521382004F0C0FA382004F0CCFA67
:1059E000002205213A2004F0B8FA3A2004F0C4FA63
:1059F00000220521462004F0B0FA4620BDE802400E
:105A000004F0BABA2DE9F84386B0002214216846A2
:105A100004F0C0FA00200590D348016841F010015D
:105A20000160016801F010010591059900210591BF
:105A3000016841F004010160016801F00401059171
:105A4000059900210591016841F08001016001681C
:105A500001F080010591059900210591016841F04F
:105A600001010160016801F0010105910599002122
:105A70000591016841F002010160016801F0020135
:105A80000591059900210591016841F00801016027
:105A9000006800F008000590059849F2BC59944C44
:105AA000002249462046FFF7FDF942F60405AF4EB5
:105AB000002229463046FFF7F5F9AD4F00224FF49A
:105AC00018413846FFF7EEF9DFF81C8200228121E9
:105AD0004046FFF7E7F9CDF8009001200190002043
