:020000040800F2
:10000000B0E70120150101080DFD00080FFD0008F3
:1000100011FD000813FD000815FD00080000000098
:1000200000000000000000000000000095E1000852
:1000300017FD0008000000003DE10008C1DE0008D7
:1000400045010108490101084D010108510101085C
:1000500055010108590101085D010108610101080C
:1000600065010108690101086D01010871010108BC
:10007000750101087901010819FD000873FD0008E8
:100080007D01010879FD0008810101088501010851
:10009000890101088D0101089101010895010108FC
:1000A000990101089D010108A10101087FFD0008D7
:1000B00085FD0008A5010108A9010108AD0101089D
:1000C000B1010108B5010108B9010108BD0101082C
:1000D000C10101088BFD0008A9FD0008C7FD00084B
:1000E000C5010108C9010108CD010108D1010108BC
:1000F000D5010108D9010108DD010108E10101086C
:10010000E5010108E9010108CDFD0008ED01010844
:10011000F1010108F5010108F9010108FD010108DB
:10012000F5FD000801020108FBFD000805020108B9
:10013000090201080D020108110201081502010857
:10014000190201081D020108210201082502010807
:10015000290201082D02010801FE000831020108F0
:1001600035020108390201083D0201084102010877
:1001700045020108490201084D0201080000000083
:100180005102010855020108124901220A70B5EE18
:10019000400AF1EE10FA02D1B7EE000A70470022D1
:1001A0000A7080B200EE900AF8EE600A80EE800AD3
:1001B0007047084801210170B5EE400AF1EE10FACF
:1001C00002D1B7EE000A70470021017080EE800A6C
:1001D00070470000E4B701202DE9F04FADF5437DF5
:1001E0008246DFF8CC1701F0C1FEDFF8C847606037
:1001F000DFF8C45705F51976DFF8C087DFF8C07758
:10020000002800F0F68000F20B00606001784129C0
:1002100004D077D343294DD026D373E000216170F9
:10022000801C60600BE0C255581C6060481C607008
:10023000616809780D2902D1C0B20021C1556368F7
:100240001A780D2A03D0617808460928EBDB384676
:1002500001F08EFE80B2DFF8401E91ED170AFFF725
:1002600093FF86ED1B0A55E000216170801C6060E1
:100270000BE0C255581C6060481C607061680978CA
:100280000D2902D1C0B20021C15563681A780D2A28
:1002900003D0617808460928EBDB384601F068FE98
:1002A00080B2DFF8F41D91ED180AFFF76DFF86EDBF
:1002B0001E0A2FE000216170801C60600BE0C255B7
:1002C000581C6060481C6070616809780D2902D173
:1002D000C0B20021C15563681A780D2A03D0617835
:1002E00008460928EBDB384601F042FE80B2DFF811
:1002F000A81D91ED190AFFF747FF05F5397080ED4C
:10030000010A07E04FF47A730722DFF8901D404698
:1003100001F07DFE284602F0B0FA00A802F007FBCB
:10032000284600A94FF4437203F05EF8706F03F0A3
:1003300097F8CDE90201306F03F092F8CDE90001A2
:10034000F06E03F08DF802460B46DFF8541D384678
:1003500003F0B2F8384603F0C9F802464FF47A7356
:1003600092B23946404601F052FED5F8E40203F05D
:1003700077F8CDE90201F06F03F072F8CDE90001E2
:10038000B06F03F06DF802460B46DFF8181D3846D3
:1003900003F092F8384603F0A9F84FF47A73024656
:1003A00092B23946404601F032FE05F53979D9F866
:1003B0000C0003F055F8CDE90201D9F8080003F06C
:1003C0004FF8CDE90001D9F8040003F049F80246DE
:1003D0000B460FF61051384603F06EF8384603F01E
:1003E00085F84FF47A73024692B23946404601F0DE
:1003F0000EFE0FF6B441504601F0B8FD60600028D3
:1004000000F06B8100F20B0060600178412907D099
:10041000422934D0432961D0582900F09080E5E08A
:1004200000216170801C60600BE0C255581C606048
:10043000481C6070616809780D2902D1C0B20021A2
:10044000C15563681A780D2A03D0617808460928D7
:10045000EBDB384603F065F851EC100B03F06AF85B
:1004600000EE900ADFF8300C90ED170A96ED1B1A9B
:1004700020EE010AFFF79DFE86ED1D0ABEE0002179
:100480006170801C60600BE0C255581C6060481CA5
:100490006070616809780D2902D1C0B20021C15590
:1004A00063681A780D2A03D0617808460928EBDBC7
:1004B000384603F036F851EC100B03F03BF800EE31
:1004C000900ADFF8D40B90ED180A96ED1E1A20EE74
:1004D000010AFFF76EFE85EDB90A8FE00021617019
:1004E000801C60600BE0C255581C6060481C607046
:1004F000616809780D2902D1C0B20021C155636835
:100500001A780D2A03D0617808460928EBDB3846B3
:1005100003F007F805F5397951EC100B03F00AF8F0
:1005200000EE900ADFF8700B90ED190A99ED011AB0
:1005300020EE010AFFF73DFE89ED030A5EE000218F
:100540006170801C60600BE0C255581C6060481CE4
:100550006070616809780D2902D1C0B20021C155CF
:1005600063681A780D2A03D0617808460928EBDB06
:10057000384602F0D6FF05F53979DFF81CBB51EC9F
:10058000100B02F0D7FF00EE900A9BED190A99EDCF
:10059000011A20EE010AFFF70CFE89ED030A384626
:1005A00002F0BFFF51EC100B02F0C4FF00EE900A06
:1005B0009BED180A96ED1E1A20EE010AFFF7F9FDD1
:1005C00085EDB90A384602F0ACFF51EC100B02F091
:1005D000B1FF00EE900A9BED170A96ED1B1A20EE74
:1005E000010AFFF7E6FD86ED1D0A07E04FF47A7376
:1005F00007220FF62031404601F009FD284602F09F
:100600003CF900A802F093F9284600A94FF4437280
:1006100002F0EAFE706F02F023FFCDE90201306FB5
:1006200002F01EFFCDE90001F06E02F019FF024654
:100630000B460FF68021384602F03EFF384602F0A6
:1006400055FF4FF47A73024692B23946404601F0A4
:10065000DEFCD5F8E40202F003FFCDE90201F06F01
:1006600002F0FEFECDE90001B06F02F0F9FE024695
:100670000B460FF65821384602F01EFF384602F0AE
:1006800035FF4FF47A73024692B23946404601F084
:10069000BEFC05F53979D9F80C0002F0E1FECDE990
:1006A0000201D9F8080002F0DBFECDE90001D9F81B
:1006B000040002F0D5FE02460B460FF6282138460C
:1006C00002F0FAFE384602F011FF4FF47A73024648
:1006D00092B23946404601F09AFC0FF6202150466E
:1006E00001F044FC6060002800F0EE8000F20B0096
:1006F00060600178412904D075D343294DD026D3B9
:1007000071E000216170801C60600BE0C255581CD4
:100710006060481C6070616809780D2902D1C0B220
:100720000021C15563681A780D2A03D06178084604
:100730000928EBDB384601F01BFC80B2DFF85819C2
:1007400091ED0E0AFFF720FD86ED120A53E000211D
:100750006170801C60600BE0C255581C6060481CD2
:100760006070616809780D2902D1C0B20021C155BD
:1007700063681A780D2A03D0617808460928EBDBF4
:10078000384601F0F5FB80B2DFF80C1991ED0F0A45
:10079000FFF7FAFC86ED150A2DE000216170801C40
:1007A00060600BE0C255581C6060481C6070616856
:1007B00009780D2902D1C0B20021C15563681A78A9
:1007C0000D2A03D0617808460928EBDB384601F092
:1007D000CFFB80B2DFF8C01891ED100AFFF7D4FC10
:1007E00086ED180A07E04FF47A7307220FF62411FA
:1007F000404601F00CFC284602F03FF800A802F049
:1008000096F8284600A94FF4437202F0EDFD306DD2
:1008100002F026FECDE90201F06C02F021FECDE9E6
:100820000001B06C02F01CFE02460B460FF6EC0114
:10083000384602F041FE384602F058FE4FF47A7313
:10084000024692B23946404601F0E1FBF06D02F0FB
:1008500007FECDE90201B06D02F002FECDE9000114
:10086000706D02F0FDFD02460B460FF6C8013846DA
:1008700002F022FE384602F039FE4FF47A73024647
:1008800092B23946404601F0C2FBB06E02F0E8FD7C
:10089000CDE90201706E02F0E3FDCDE90001306E9A
:1008A00002F0DEFD02460B460FF6A001384602F0CC
:1008B00003FE384602F01AFE4FF47A73024692B2F3
:1008C0003946404601F0A3FB0FF63C01504601F0CB
:1008D0004DFB6060002800F0158100F20B006060A5
:1008E0000178412905D0C0F09C8043296AD02FD3DC
:1008F00097E000216170801C60600BE0C255581CBD
:100900006060481C6070616809780D2902D1C0B22E
:100910000021C15563681A780D2A03D06178084612
:100920000928EBDB384602F0FCFD51EC100B02F01D
:1009300001FE00EE900ADFF8600790ED0E0A96EDDA
:10094000121A20EE010AFFF734FC86ED140A70E05B
:1009500000216170801C60600BE0C255581C606013
:10096000481C6070616809780D2902D1C0B200216D
:10097000C15563681A780D2A03D0617808460928A2
:10098000EBDB384602F0CDFD51EC100B02F0D2FD4E
:1009900000EE900ADFF8000790ED0F0A96ED151AA9
:1009A00020EE010AFFF705FC86ED170A41E000BFC3
:1009B0002401010888DF0120D8B4012044DE012091
:1009C0002CD9012000216170801C60600BE0C255B1
:1009D000581C6060481C6070616809780D2902D15C
:1009E000C0B20021C15563681A780D2A03D061781E
:1009F00008460928EBDB384602F093FD51EC100B5A
:100A000002F098FD00EE900ADFF88C0690ED100AD7
:100A100096ED181A20EE010AFFF7CBFB86ED1A0AB5
:100A200007E04FF47A7307220FF2E861404601F0C5
:100A3000EEFA284601F021FF00A801F078FF2846D1
:100A400000A94FF4437202F0CFFC306D02F008FDB4
:100A5000CDE90201F06C02F003FDCDE90001B06CBC
:100A600002F0FEFC02460B460FF2B061384602F07F
:100A700023FD384602F03AFD4FF47A73024692B2F3
:100A80003946404601F0C3FAF06D02F0E9FCCDE9C9
:100A90000201B06D02F0E4FCCDE90001706D02F0DE
:100AA000DFFC02460B460FF28C61384602F004FD73
:100AB000384602F01BFD4FF47A73024692B2394673
:100AC000404601F0A4FAB06E02F0CAFCCDE9020182
:100AD000706E02F0C5FCCDE90001306E02F0C0FC82
:100AE00002460B460FF26461384602F0E5FC3846D8
:100AF00002F0FCFC4FF47A73024692B2394640464B
:100B000001F085FA0FF25C61504601F02FFA606047
:100B1000002801D000F06AFB0FF25461504601F04A
:100B200025FA6060002801D000F04AFC0FF248610D
:100B3000504601F01BFA6060002807D04FF47A732A
:100B400017220FF23C61404601F061FA0FF2486152
:100B5000504601F00BFA6060002809D001F0D0FE89
:100B60004FF47A7323220FF23C61404601F04FFAB2
:100B70000FF25461504601F0F9F96060002800F06E
:100B8000658100F20B0060600178312906D0C0F069
:100B90005D81332900F0E88073D357E10021617053
:100BA000801C60600FE0401980F86B21581C606069
:100BB000481C6070616809782C2904D1C0B24019C2
:100BC000002180F86B1163681A782C2A03D06178B1
:100BD00008463F28E7DB581C6060002060700FE08B
:100BE000401980F8AB21581C6060481C6070616837
:100BF00009782C2904D1C0B24019002180F8AB112A
:100C000063681A782C2A03D0617808463F28E7DB0E
:100C1000581C6060002060700BE0C255581C60607A
:100C2000481C6070616809780D2902D1C0B20021AA
:100C3000C15563681A780D2A03D0617808460928DF
:100C4000EBDB384601F094F9A5F8BC01284601F029
:100C500014FEB5F8BC01009005F2AB1305F26B125F
:100C60000FF27051384602F027FC384602F03EFC85
:100C70004FF47A73024692B23946404601F0C7F902
:100C8000E4E000216170801C60600FE0401980F892
:100C9000BF21581C6060481C6070616809782C296D
:100CA00004D1C0B24019002180F8BF1163681A78DE
:100CB0002C2A03D0617808463F28E7DB581C606087
:100CC000002060700FE0401980F8FF21581C606020
:100CD000481C6070616809782C2904D1C0B24019A1
:100CE000002180F8FF1163681A782C2A03D06178FC
:100CF00008463F28E7DB581C6060002060700BE06E
:100D0000C255581C6060481C6070616809780D29E4
:100D100002D1C0B20021C15563681A780D2A03D0F0
:100D2000617808460928EBDB384601F021F9A5F87F
:100D30001002284601F0A1FDB5F81002009005F25E
:100D4000FF1305F2BF120FF6AC51384602F0B4FBA8
:100D5000384602F0CBFB4FF47A73024692B2394622
:100D6000404601F054F971E000216170801C606020
:100D70000FE0401980F81322581C6060481C607016
:100D8000616809782C2904D1C0B24019002180F88B
:100D9000131263681A782C2A03D0617808463F281A
:100DA000E7DB581C6060002060700FE0401980F89D
:100DB0005322581C6060481C6070616809782C29B7
:100DC00004D1C0B24019002180F8531263681A7828
:100DD0002C2A03D0617808463F28E7DB581C606066
:100DE000002060700BE0C255581C6060481C6070A9
:100DF000616809780D2902D1C0B20021C15563682C
:100E00001A780D2A03D0617808460928EBDB3846AA
:100E100001F0AEF8A5F86402284601F02EFDB5F801
:100E20006402009005F2532305F213220FF6DC4111
:100E3000384602F041FB384602F058FB4FF47A7313
:100E4000024692B23946404601F0E1F80FF6D4412D
:100E5000504601F08BF86060002800F0188100F225
:100E60000900606000202070024602E0C255481C64
:100E70002070217808460C28F8DB60680178312959
:100E800006D0C0F00481332900F0AC8055D3FEE0D9
:100E900011466170801C60600FE0401980F84420AA
:100EA000581C6060481C6070616809782C2904D166
:100EB000C0B24019002180F8441063681A782C2AC7
:100EC00003D0617808463F28E7DB581C60600020AB
:100ED00060700FE0401980F88420581C6060481C46
:100EE0006070616809780D2904D1C0B240190021F1
:100EF00080F8841063681A780D2A03D06178084658
:100F00001F28E7DB284601F0B8FC05F1840305F152
:100F100044020FF61C41384602F0CEFA384602F081
:100F2000E5FA4FF47A73024692B2394640460DF51F
:100F3000437DBDE8F04F01F06AB811466170801C36
:100F400060600FE0401980F8A620581C6060481CC3
:100F50006070616809782C2904D1C0B24019002161
:100F600080F8A61063681A782C2A03D061780846A6
:100F70003F28E7DB581C6060002060700FE04019DC
:100F800080F8E620581C6060481C60706168097831
:100F90000D2904D1C0B24019002180F8E610636821
:100FA0001A780D2A03D0617808461F28E7DB284607
:100FB00001F063FC05F1E60305F1A6020FF68431AA
:100FC000384602F079FA384602F090FA4FF47A7314
:100FD000024692B2394640460DF5437DBDE8F04FDA
:100FE00001F015B811466170801C60600FE0401977
:100FF00080F80821581C6060481C6070616809789E
:101000002C2904D1C0B24019002180F8081163686E
:101010001A782C2A03D0617808463F28E7DB581C51
:101020006060002060700FE0401980F84821581C73
:101030006060481C6070616809780D2904D1C0B2F5
:101040004019002180F8481163681A780D2A03D0EE
:10105000617808461F28E7DB284601F00EFC05F5FD
:10106000A47305F584720FF6F021384602F024FAD5
:10107000384602F03BFA4FF47A73024692B2394690
:1010800040460DF5437DBDE8F04F00F0C0BF0DF5C3
:10109000437DBDE8F08F0000E4B701201411000883
:1010A000B4100008CC10000841542B434C4241437B
:1010B000435200004375727220413A204B3D256631
:1010C00020423D256620523D25660A004375727216
:1010D00020423A204B3D256620423D256620523D68
:1010E00025660A004375727220433A204B3D2566FF
:1010F00020423D256620523D25660A0041542B437F
:101100004C424143564B000041542B434C42414317
:10111000565200000A4552524F520A00566F6C74E4
:1011200020413A204B3D256620423D256620523D18
:1011300025660A00566F6C7420423A204B3D2566A6
:1011400020423D256620523D25660A00566F6C748C
:1011500020433A204B3D256620423D256620523DE6
:1011600025660A0041542B4E455453455400000057
:1011700041542B4D4541530041542B53454E44009F
:101180000A2B53454E44204E6F7420696D706C6578
:101190006D656E7465640A0041542B534554444593
:1011A000460000000A44656661756C7420736574BE
:1011B00074696E6773206C6F6164656420746F205E
:1011C000454550524F4D0A0041542B534554534509
:1011D00052563D000A2B534554534552563D312C2F
:1011E00025732C25732C25640A0000007CB5DFF8DC
:1011F000F0480FF67811204602F05EF9204602F022
:1012000075F9DFF8E0584FF47A73024692B221463E
:10121000284600F0FCFE0FF66011204602F04CF963
:10122000204602F063F902464FF47A7392B22146E7
:10123000284600F0ECFE0FF66C120FF6581120460F
:1012400002F03AF9204602F051F94FF47A7302465F
:1012500092B22146284600F0DAFEDFF88C280FF61D
:101260005811204602F028F9204602F03FF94FF4C9
:101270007A73024692B22146284600F0C8FEDFF893
:101280006C6806F1840306F144020FF6381120461B
:1012900002F012F9204602F029F94FF47A7302465F
:1012A00092B22146284600F0B2FE06F1E60306F1AE
:1012B000A6020FF62811204602F0FEF8204602F0A2
:1012C00015F94FF47A73024692B22146284600F08F
:1012D0009EFE06F5A47306F584720FF618112046DB
:1012E00002F0EAF8204602F001F94FF47A73024660
:1012F00092B22146284600F08AFE06F266220FF6D8
:101300000C11204602F0D8F8204602F0EFF84FF416
:101310007A73024692B22146284600F078FEB6F86B
:10132000BC01019006F2AB10009006F26B1396F828
:101330006A210FF6E401204602F0BEF8204602F0D2
:10134000D5F84FF47A73024692B22146284600F04F
:101350005EFEB6F81002019006F2FF10009006F251
:10136000BF1396F8BE210FF6E001204602F0A4F864
:10137000204602F0BBF84FF47A73024692B221463F
:10138000284600F044FEB6F86402019006F25320AD
:10139000009006F2132396F812220FF6DC01204685
:1013A00002F08AF8204602F0A1F84FF47A73024660
:1013B00092B22146284602B0BDE8704000F027BE38
:1013C0002DE9FC47DFF818470FF6DC01204602F054
:1013D00073F8204602F08AF8DFF808574FF47A7362
:1013E000024692B22146284600F011FE0FF2B47375
:1013F0000FF6D4020FF6BC01204602F05DF820463D
:1014000002F074F802464FF47A7392B221462846ED
:1014100000F0FDFDDFF8D88608F10C06706A02F0D6
:101420001FF8CDE90001F06902F01AF802460B46F8
:101430000FF6A801204602F03FF8204602F056F8C9
:101440004FF47A73024692B22146284600F0DFFD3F
:10145000306D02F005F8CDE90001F06A02F000F805
:1014600002460B460FF69401204602F025F820466E
:1014700002F03CF84FF47A73024692B221462846B5
:1014800000F0C5FD0FF2040A02E000BF0D0A0000E3
:101490004FF47A7302225146284600F0B8FDDFF877
:1014A0004C9609F52B7796ED140AD7ED090A20EE34
:1014B000200AD7ED0B0A20EE200A10EE100A01F0E8
:1014C000CFFFCDE9000196ED0B0AD9EDAB0A20EE76
:1014D000200AD7ED020A20EE200A10EE100A01F0D1
:1014E000BFFF02460B460FF62C01204601F0E4FF39
:1014F000204601F0FBFF4FF47A73024692B2214678
:10150000284600F084FD96ED170AD7ED090A20EE73
:10151000200AD7ED0B0A20EE200A10EE100A01F087
:101520009FFFCDE9000196ED0E0AD9EDAB0A20EE42
:10153000200AD7ED020A20EE200A10EE100A01F070
:101540008FFF02460B460FF2E871204601F0B4FF10
:10155000204601F0CBFF4FF47A73024692B2214647
:10156000284600F054FD96ED1A0AD7ED090A20EE40
:10157000200AD7ED0B0A20EE200A10EE100A01F027
:101580006FFFCDE9000196ED0E0AD9EDAB0A20EE12
:10159000200AD7ED020A20EE200A10EE100A01F010
:1015A0005FFF02460B460FF2A471204601F084FF54
:1015B000204601F09BFF4FF47A73024692B2214617
:1015C000284600F024FD4FF47A7302225146284643
:1015D00000F01DFD96ED150AD7ED0C0A20EE200A4D
:1015E000D7ED0E0A20EE200A10EE100A01F038FFA7
:1015F000CDE9000196ED0C0AD7ED030A20EE200A92
:10160000D7ED050A20EE200A10EE100A01F028FF9F
:1016100002460B460FF25071204601F04DFF204666
:1016200001F064FF4FF47A73024692B221462846D5
:1016300000F0EDFC96ED180AD7ED0C0A20EE200A1A
:10164000D7ED0E0A20EE200A10EE100A01F008FF76
:10165000CDE9000196ED0F0AD7ED030A20EE200A2E
:10166000D7ED050A20EE200A10EE100A01F0F8FE70
:1016700002460B460FF20C71204601F01DFF20467A
:1016800001F034FF4FF47A73024692B221462846A5
:1016900000F0BDFC96ED1B0AD7ED0C0A20EE200AE7
:1016A000D7ED0E0A20EE200A10EE100A01F0D8FE47
:1016B000CDE9000196ED120AD7ED030A20EE200ACB
:1016C000D7ED050A20EE200A10EE100A01F0C8FE40
:1016D00002460B460FF2C861204601F0EDFE20469F
:1016E00001F004FF4FF47A73024692B22146284675
:1016F00000F08DFC4FF47A7302225146284600F028
:1017000086FC96ED160AD7ED0F0A20EE200AD7EDDB
:10171000110A20EE200A10EE100A01F0A1FECDE918
:10172000000196ED0D0AD7ED060A20EE200AD7ED4E
:10173000080A20EE200A10EE100A01F091FE02467F
:101740000B460FF27861204601F0B6FE204601F00C
:10175000CDFE4FF47A73024692B22146284600F03D
:1017600056FC96ED190AD7ED0F0A20EE200AD7EDA8
:10177000110A20EE200A10EE100A01F071FECDE9E8
:10178000000196ED100AD7ED060A20EE200AD7EDEB
:10179000080A20EE200A10EE100A01F061FE02464F
:1017A0000B460FF23461204601F086FE204601F020
:1017B0009DFE4FF47A73024692B22146284600F00D
:1017C00026FC96ED1C0AD7ED0F0A20EE200AD7ED75
:1017D000110A20EE200A10EE100A01F041FECDE9B8
:1017E000000196ED130AD7ED060A20EE200AD7ED88
:1017F000080A20EE200A10EE100A01F031FE02461F
:101800000B460FF2F051204601F056FE204601F043
:101810006DFE4FF47A73024692B22146284600F0DC
:10182000F6FB4FF47A7302225146284600F0EFFB94
:1018300001F028F9D8F80C0001F012FE02460B4620
:101840000FF2CC51204601F037FE204601F04EFE4B
:101850004FF47A73024692B22146284600F0D7FB35
:10186000706801F0FDFD02460B460FF2B8512046AC
:1018700001F022FE204601F039FE4FF47A73024651
:1018800092B22146284600F0C2FBB06801F0E8FDA4
:1018900002460B460FF2A051204601F00DFE2046F5
:1018A00001F024FE4FF47A73024692B22146284694
:1018B00000F0ADFBF06801F0D3FD02460B460FF2DD
:1018C0008C51204601F0F8FD204601F00FFE4FF448
:1018D0007A73024692B22146284600F098FB30699E
:1018E00001F0BEFD02460B460FF27451204601F096
:1018F000E3FD204601F0FAFD4FF47A73024692B2FE
:101900002146284600F083FB706901F0A9FD0246DC
:101910000B460FF26051204601F0CEFD204601F04B
:10192000E5FD4FF47A73024692B22146284600F054
:101930006EFBB06901F094FD02460B460FF2485170
:10194000204601F0B9FD204601F0D0FD4FF47A7336
:10195000024692B22146284600F059FB98F88000D2
:1019600000F001020FF23451204601F0A5FD20469F
:1019700001F0BCFD4FF47A73024692B2214628462C
:1019800000F045FB98F88000C0F340020FF22051B0
:10199000204601F091FD204601F0A8FD4FF47A7336
:1019A000024692B22146284600F031FB98F88000AA
:1019B000C0F380020FF20C51204601F07DFD20465D
:1019C00001F094FD4FF47A73024692B22146284604
:1019D00000F01DFB98F88000C0F3C0020FF2F84140
:1019E000204601F069FD204601F080FD4FF47A7336
:1019F000024692B22146284600F009FB98F8800082
:101A0000C0F300120FF2E441204601F055FD2046DC
:101A100001F06CFD4FF47A73024692B221462846DB
:101A200000F0F5FA98F88000C0F340120FF2D041B0
:101A3000204601F041FD204601F058FD4FF47A7335
:101A4000024692B22146284600F0E1FA98F880005A
:101A5000C0F380120FF2BC41204601F02DFD20465C
:101A600001F044FD4FF47A73024692B221462846B3
:101A700000F0CDFA98F88000C2090FF2AC41204680
:101A800001F01AFD204601F031FD4FF47A73024651
:101A900092B22146284600F0BAFA0FF2A041204641
:101AA00001F00AFD204601F021FD4FF47A73024651
:101AB00092B22146284600F0AAFA0FF29841204639
:101AC00001F0FAFC204601F011FD4FF47A73024652
:101AD00092B22146284602B0BDE8F04700F097BA1E
:101AE0002CD9012044DE012068B80120D8B401209F
:101AF000E4B701200A2B534554534552563D322C2E
:101B000025732C25732C25640A0000000A2B5345ED
:101B100054534552563D332C25732C25732C256484
:101B20000A00000041542B53455441503D00000031
:101B30000A2B53455441503D312C25732C25730AF3
:101B4000000000000A2B53455441503D322C2573B0
:101B50002C25730A000000000A2B53455441503DC8
:101B6000332C25732C25730A000000002B4E45549E
:101B70005345540D0A000000436F6E63656E747226
:101B800061746F7220556E6976657273616C2D3168
:101B90000D0A000046572056657273696F6E202546
:101BA000730D0A005265762E312E302031302E30E2
:101BB000372E32303139000044697649443A2025C5
:101BC000730D0A004150313A20535349443D257367
:101BD0002C20506173733D25730D0A004150323A39
:101BE00020535349443D25732C20506173733D2588
:101BF000730D0A004150333A20535349443D257335
:101C00002C20506173733D25730D0A00444E5331EF
:101C10003D25730D0A000000535256313A20456E9F
:101C200061626C653D25642C20446F6D61696E3D79
:101C300025732C2049503D25732C20506F72743D24
:101C400025640D0A00000000535256323A20456EBA
:101C500061626C653D25642C20446F6D61696E3D49
:101C600025732C2049503D25732C20506F72743DF4
:101C700025640D0A00000000535256333A20456E89
:101C800061626C653D25642C20446F6D61696E3D19
:101C900025732C2049503D25732C20506F72743DC4
:101CA00025640D0A000000000A2B4D4541530D0A22
:101CB0000000000048573A2025732C2046573A2050
:101CC00025730D0A000000005265762E312E30205B
:101CD00031332E30362E32303139000045787420C1
:101CE000706F7765723A20252E3166562C20564249
:101CF00041543A20252E3166560D0A0041444320B6
:101D0000413A20252E3366562C20252E3366410D70
:101D10000A000000506861736520413A20202020AD
:101D200020252E3166562C20252E3266410D0A00C4
:101D300050686173652041204D41583A20252E316D
:101D400066562C20252E3266410D0A0050686173BC
:101D5000652041204D494E3A20252E3166562C20D3
:101D6000252E3266410D0A005068617365204220BD
:101D70002020203A20252E3166562C20252E326632
:101D8000410D0A00506861736520425F4D41583A29
:101D900020252E3166562C20252E3266410D0A0054
:101DA000506861736520425F4D494E3A20252E31BF
:101DB00066562C20252E3266410D0A00506861734C
:101DC000652043202020203A20252E3166562C20E5
:101DD000252E3266410D0A00506861736520435F0D
:101DE0004D41583A20252E3166562C20252E32663C
:101DF000410D0A00506861736520435F4D494E3ABA
:101E000020252E3166562C20252E3266410D0A00E3
:101E1000444320496E5F303A20252E3366560D0A22
:101E200000000000444320496E5F313A20252E33E4
:101E300066560D0A00000000444320496E5F323AA6
:101E400020252E3366560D0A000000004443204929
:101E50006E5F333A20252E3366560D0A00000000CF
:101E6000444320496E5F343A20252E3366560D0ACE
:101E700000000000444320496E5F353A20252E3390
:101E800066560D0A00000000444320496E5F363A52
:101E900020252E3366560D0A000000004469736346
:101EA0007265746520494E5F303A2025640D0A0042
:101EB000446973637265746520494E5F313A202529
:101EC000640D0A00446973637265746520494E5F4E
:101ED000323A2025640D0A004469736372657465A3
:101EE00020494E5F333A2025640D0A00446973632C
:101EF0007265746520494E5F343A2025640D0A00EE
:101F0000446973637265746520494E5F353A2025D4
:101F1000640D0A00446973637265746520494E5FFD
:101F2000363A2025640D0A0044697363726574654E
:101F300020494E5F373A2025640D0A0053706565CD
:101F40006420313A203E3130303030206D730D0A3C
:101F500000000000537065656420323A203E313045
:101F6000303030206D730D0A0000000001F02ABBF4
:101F70000A22002101F0C8BB10B5040001D10120E4
:101F800010BD94F83900002805D1002084F83800ED
:101F9000204601F0E0FE242084F839002068C16862
:101FA00021F40051C160204600F0B7FA20680169B1
:101FB00021F4904101612068416921F02A014161C9
:101FC0002068C16841F40051C1600020E063202016
:101FD00084F8390084F83A00002010BD10B50400E0
:101FE00001D1012010BD242084F839002068C16887
:101FF00021F40051C160204601F08EFF0020E06313
:1020000084F8390084F83A0084F8380010BD2DE9CE
:10201000F04182B004460D4616461F4694F839003A
:10202000202857D1002D01D0002E01D1012052E0EF
:1020300094F8380001284DD0012084F838000020A1
:10204000E063212084F8390001F0FAFF8046A6847D
:10205000E68403E0206815F8011B4160E08C00284D
:1020600026D0E08C401EE084A068B0F5805F009729
:10207000434614D100228021204600F071F9002847
:1020800001D0032027E020682988C905C90D4160D7
:102090002069002801D1AD1CE0E76D1CDEE70022BD
:1020A0008021204600F05CF90028D3D0032012E004
:1020B0000097434600224021204600F051F90028B5
:1020C00001D0032007E0202084F83900002084F8A4
:1020D000380000E00220BDE8F68190F83A30202B6D
:1020E0002AD1002901D0002A01D10120704790F89F
:1020F0003830012B01D102207047012380F838309D
:1021000081628285C2850021C163222180F83A1054
:10211000002180F838100168CA6842F48072CA60F1
:1021200001684A6942F001024A610068C16841F0F1
:102130002001C160002070470220704710B504469E
:1021400094F83900202839D1002901D0002A01D182
:10215000012010BD94F83800012801D1022010BDE3
:10216000012084F838002162A284E2840020E06328
:10217000212084F83900206B0FF25513C363206BC4
:102180000FF27D130364206B0FF28113C364206B85
:102190000023036513462068021D206B02F002F83D
:1021A00020686FF040010160002084F8380020684A
:1021B000416941F080014161002010BD022010BD45
:1021C00038B5044622681068D168526910F00F03D0
:1021D00007D1850605D58D0603D52046BDE83240DA
:1021E00050E1002B60D0D30702D411F4907F5BD074
:1021F0000346DB0705D5CB0503D5E36B43F00103AD
:10220000E363430706D51346DB0703D5E36B43F0CF
:102210000203E363830706D51346DB0703D5E36BAD
:1022200043F00403E363030705D5D20703D5E26B4C
:1022300042F00802E263E26B002A45D0800604D532
:10224000880602D5204600F01DF920684069800903
:1022500000F00100E16B090701D400281ED02046E0
:1022600000F0BBF820684169490613D5416921F0A7
:1022700040014161606B00280CD00FF27D110165B7
:10228000606B01F0CAFF00281ED0606B016DBDE8D5
:1022900034400847204602F04CF931BD204602F098
:1022A00048F90020E06331BD020605D50A0603D5D2
:1022B0002046BDE83240A7E0400605D5480603D5D4
:1022C0002046BDE83240D0E031BD70477047000085
:1022D00080B5816B00680068C0050CD40020C884FC
:1022E0000868426922F0800242610868C16841F0D2
:1022F0004001C16001BD084602F00BF901BD0000BC
:1023000080B5806BFFF7E1FF01BD000010B5846B65
:1023100020684069C00900F0010094F839102129B3
:1023200006D1002804D00020E084204600F04CF8BC
:1023300020684069800900F0010094F83A102229D1
:1023400006D1002804D00020E085204600F045F8A2
:10235000E06B40F01000E063204602F0EAF810BDA8
:102360002DE9F04104460D4616461F46DDF818805B
:10237000206800682840A84201D1012000E0002028
:10238000B0421ED118F1010FF2D0B8F1000F04D005
:1023900001F056FEC01B8045EAD22068C16821F4D6
:1023A000D071C1602068416949084900416120201D
:1023B00084F8390084F83A00002084F838000320BB
:1023C00000E00020BDE8F0810168CA6822F0C00288
:1023D000CA60202180F8391070470168CA6822F469
:1023E0009072CA6001684A69520852004A6120210D
:1023F00080F83A107047000080B5806B0021C185DD
:10240000C18402F096F801BD90F8391021292AD133
:10241000016A8268B2F5805F0ED102680988C90539
:10242000C90D5160016A0269002A02D1891C01624A
:1024300007E0491C016204E04A1C02620268097854
:102440005160C18C491EC18489B2002909D101683B
:10245000CA6822F08002CA600068C16841F0400189
:10246000C160002070470220704780B50168CA68CB
:1024700022F04002CA60202180F8391002F049F8A9
:10248000002002BD80B590F83A10222943D102699C
:10249000816A8368B3F5805F10D10368002A5A68A7
:1024A00006D1D205D20D0A80816A891C816214E0AE
:1024B000D2B20A80816A491C81620EE0002A05D1ED
:1024C0004A1C8262026852680A7006E04A1C8262F4
:1024D0000268526802F07F020A70C18D491EC185F0
:1024E00089B2002915D10168CA6822F02002CA60A9
:1024F0000168CA6822F48072CA6001684A69520899
:1025000052004A61202180F83A10FFF7DFFE0020D8
:1025100002BD002002BD022002BD2DE9F0470446A5
:102520002068016921F44051E2681143016120688B
:10253000C1689B4A1140A268114322691143626934
:102540001143E2691143C1602068416921F440717F
:10255000A2691143416120689249E269B2F5004FD6
:1025600040F08F80884202D08F49884244D102F0E7
:10257000C8FA824602F0C5FA074602F0C2FA80465F
:1025800002F0BFFA61684FEA41096425192606FB8B
:102590000AF1B1FBF9F12A46B1FBF2F106FB07F2B1
:1025A000B2FBF9F206FB08F3B3FBF9F32F46B3FBDA
:1025B000F7F305FB1322D20032322B46B2FBF3F2C3
:1025C00002F0F802520002EB01177043B0FBF9F879
:1025D00002F097FA7043B0FBF9F02946B0FBF1F036
:1025E00005FB1080C0003230B0FBF1F000F00700B6
:1025F000C01921688860D0E002F078FA824602F0C3
:1026000075FA074602F072FA804602F06FFA6168C6
:102610004FEA41096425192606FB0AF1B1FBF9F1DD
:102620002A46B1FBF2F106FB07F2B2FBF9F206FB18
:1026300008F3B3FBF9F32F46B3FBF7F305FB1322C3
:10264000D20032322B46B2FBF3F202F0F802520013
:1026500002EB01177043B0FBF9F802F047FA704340
:10266000B0FBF9F02946B0FBF1F005FB1080C0008B
:102670003230B0FBF1F000F00700C019216888602B
:102680008BE0884202D04849884243D102F039FAAF
:10269000824602F036FA074602F033FA804602F02C
:1026A00030FA61684FEA81096425192606FB0AF1B0
:1026B000B1FBF9F12A46B1FBF2F106FB07F2B2FBDE
:1026C000F9F206FB08F3B3FBF9F32F46B3FBF7F37C
:1026D00005FB1322120132322B46B2FBF3F202F059
:1026E000F00202EB01177043B0FBF9F802F009FAAF
:1026F0007043B0FBF9F02946B0FBF1F005FB108008
:1027000000013230B0FBF1F000F00F00C019216879
:10271000886042E002F0EAF9824602F0E7F90746F3
:1027200002F0E4F9804602F0E1F961684FEA8109BC
:102730006425192606FB0AF1B1FBF9F12A46B1FB23
:10274000F2F106FB07F2B2FBF9F206FB08F3B3FB6A
:10275000F9F32F46B3FBF7F305FB132212013232D4
:102760002B46B2FBF3F202F0F00202EB01177043CA
:10277000B0FBF9F802F0BAF97043B0FBF9F0294662
:10278000B0FBF1F005FB108000013230B0FBF1F03E
:1027900000F00F00C01921688860BDE8F0870000D4
:1027A000F369FFFF001001400014014038B5012219
:1027B0004FF40061DFF87C0802F048FBDFF878484E
:1027C00001F041FC206001F041FC606001F041FC3F
:1027D000A0600FF6BC0104F10C0000F06DFE04F1E6
:1027E0000C0000F083FE0246DFF850584FF4FA73F5
:1027F00092B204F10C012846FFF709FC642002F0B4
:1028000074FBC82002F064FC2068C0F30743C2B226
:102810000FF6880104F10C0000F04EFE04F10C00EC
:1028200000F064FE4FF4FA73024692B204F10C0118
:102830002846FFF7ECFB642002F057FB4FF4FA70D8
:1028400002F046FC0FF6680104F10C0000F034FEC3
:1028500004F10C0000F04AFE4FF4FA73024692B203
:1028600004F10C012846FFF7D2FB642002F03DFB87
:102870000A20BDE8324002F02BBCFEB50446DFF86A
:10288000C057002085F8C503C82002F02EFB0027A2
:10289000DFF8B06717E064230122A021304603F07F
:1028A000A2FF0028F7D14FF4FA6002902020019097
:1028B00004EB4710009010237A0192B2A021304619
:1028C00003F0A4FD7F1C182FE5D364230122A0216F
:1028D000304603F088FF0028F7D14FF4FA600290E9
:1028E0000C20019004F54070009010234FF44072CA
:1028F000A021304603F08AFD012085F8C503F7BD0D
:1029000000B5ADF5437D00A80FF2B0714FF44372EE
:1029100000F06AFD00A8FFF7B0FFDFF8240700A968
:102920004FF4437200F060FD0DF5437D00BD70B5BE
:10293000ADF5467D0446DFF80857002085F8C5034D
:10294000C82002F0D2FADFF8FC664FF0FF33012214
:10295000A021304603F047FF0028F6D14FF4FA607B
:1029600002904FF44370019003A8009010230022BE
:10297000A021304603F0ECFD012085F8C503204678
:1029800003A94FF4437200F02FFD0DF5467D70BD95
:1029900010B5ADF5447DDFF8B006016841F00801DF
:1029A0000160FFF703FFDFF8A44601224FF4004166
:1029B000204602F04BFA01220821204602F046FA96
:1029C00001221021204602F041FA01222021204656
:1029D00002F03CFA0021DFF8780604F068FA00A85B
:1029E000FFF7A5FFDFF85846204600A94FF44372D1
:1029F00000F0FAFC0020C4F81003C4F8140384F8B3
:102A0000C403012084F8C303B7EE000A04F2745033
:102A100004F0AAFAB7EE000A04F5797004F0A4FAFB
:102A2000B7EE000A04F2AC4004F09EFAB7EE000ADA
:102A300004F5BB6004F098FAB7EE000A04F589606B
:102A400004F092FAB7EE000A04F5A26004F08CFAE2
:102A50000020DFF8003610E0C0EBC0018900DFF88D
:102A6000F8258B508918DFF8F4254A60DFF8F02547
:102A70008A604FF08042CA60401C0B28ECDB0DF5E9
:102A8000447D10BDDFF8B8050021C0F8501300F5F3
:102A90005470416081609FED4F0A80ED030A80ED24
:102AA000040A80ED050A41628162C16280ED0C0A70
:102AB00080ED0D0A80ED0E0A704790ED000AD2ED10
:102AC000000AF4EE400AF1EE10FA01D582ED000A98
:102AD00090ED000AD1ED000AB4EE600AF1EE10FAB2
:102AE00001D581ED000A70472DE9F8430446DFF86F
:102AF000505595F80C0300286AD1002605F5437956
:102B000064E006EB4600870007EB0408B8F80810FD
:102B100005F2745004F041FA89ED0E0A395B05F5AF
:102B2000797004F03AFA89ED0F0AB8F8041005F24A
:102B3000AC4004F032FA89ED100A05F5547205F53F
:102B4000577105F55170FFF7B8FF05F5557205F59A
:102B5000587105F55270FFF7B0FF05F5567205F58F
:102B6000597105F55370FFF7A8FFB8F80A1005F57D
:102B7000BB6004F012FA89ED170AB8F8021005F5E7
:102B8000896004F00AFA89ED180AB8F8061005F50C
:102B9000A26004F002FA89ED190A05F55D7205F5E7
:102BA000607105F55A70FFF788FF05F55E7205F54F
:102BB000617105F55B70FFF780FF05F55F7205F544
:102BC000627105F55C70FFF778FF761C282E98DBA4
:102BD000BDE8F183FFFF7F7F2DE9F0472DED028BEC
:102BE0000446DFF85C6496F80C03002840F04E8140
:102BF000002506F54377DFF860A488E0162010FB77
:102C000005F808EB0409B9F8140000EE100AB8EE54
:102C1000400A0AF58C7004F047FA87ED0D0AB9F8FE
:102C2000120000EE100AB8EE400A0AF1FC0004F0AF
:102C30003BFA87ED0C0AB9F80E0000EE100AB8EE68
:102C4000400A0AF1C40004F02FFA87ED0A0AB9F825
:102C5000100000EE100AB8EE400A0AF1E00004F09D
:102C600023FA87ED0B0A38F8040000EE100AB8EEDC
:102C7000400A504604F018FA87ED030AB9F802003A
:102C800000EE100AB8EE400A0AF11C0004F00CFA3B
:102C900087ED040AB9F8040000EE100AB8EE400A05
:102CA0000AF1380004F000FA87ED050AB9F80600C9
:102CB00000EE100AB8EE400A0AF1540004F0F4F9EC
:102CC00087ED060AB9F8080000EE100AB8EE400ACF
:102CD0000AF1700004F0E8F987ED070AB9F80A0074
:102CE00000EE100AB8EE400A0AF18C0004F0DCF99C
:102CF00087ED080AB9F80C0000EE100AB8EE400A99
:102D00000AF1A80004F0D0F987ED090A6D1C282DFE
:102D1000FFF674AF97ED0D8A06F5217896EDA10ABE
:102D2000D7ED0C0A20EE200AF0EE000A20EE200A71
:102D300080EE080AD8ED090A20EE200A87ED0C0A79
:102D400096EDA10AD7ED0A0A20EE200A10EE100A2D
:102D500000F086FBC34AC44B04F0C8F904460D4694
:102D600018EE100A00F07CFB02460B46204629466E
:102D700004F08EFA04460D46D8F8200000F070FBEF
:102D800022462B4604F0B2F900F0D4FBB86296ED6F
:102D9000A10AD7ED0B0A20EE200A80EE080A10EEF9
:102DA000100A00F05DFB02460B46B048B04904F043
:102DB00093FB0022AF4B04F06BFA0022AE4B04F001
:102DC0004BFC00F0B7FBF86296EDA10AD7ED030AC1
:102DD00020EE200A80EE080AD8ED010A20EE200A33
:102DE00087ED030A96EDA10AD7ED040A20EE200A2A
:102DF00080EE080AD8ED020A20EE200A87ED040AC8
:102E000096EDA10AD7ED050A20EE200A80EE080A09
:102E1000D8ED030A20EE200A87ED050A96EDA10AF7
:102E2000D7ED060A20EE200A80EE080AD8ED040A43
:102E300020EE200A87ED060A96EDA10AD7ED070AD3
:102E400020EE200A80EE080AD8ED050A20EE200ABE
:102E500087ED070A96EDA10AD7ED080A20EE200AB1
:102E600080EE080AD8ED060A20EE200A87ED080A4F
:102E700096EDA10AD7ED090A20EE200A80EE080A95
:102E8000D8ED070A20EE200A87ED090ABDEC028B77
:102E9000BDE8F08738B5794D8021284601F0CFFF95
:102EA000674C94F88C1360F3000184F88C134FF492
:102EB0008071284601F0C3FF94F88C1360F3410140
:102EC00084F88C136E4D4FF48041284601F0B7FF13
:102ED00094F88C1360F3820184F88C134FF4004152
:102EE000284601F0ACFF94F88C1360F3C30184F81A
:102EF0008C134FF48051284601F0A1FF94F88C13F5
:102F000060F3041184F88C134FF40051284601F04B
:102F100096FF94F88C1360F3451184F88C134FF4EA
:102F20008061284601F08BFF94F88C1360F38611C2
:102F300084F88C134FF40061284601F080FF94F868
:102F40008C1301F07F0141EAC01084F88C0331BD7D
:102F500010B54C4C02213D4801F071FF002820883B
:102F600006D141F2707188421ADA401C208010BDEF
:102F7000002801D0401E20802088642805D1002030
:102F800020802F48012180F8D013208840F6B831E6
:102F9000884205D1002020802948012180F8D013E3
:102FA00010BD38B5384C264D95F8DC0300284FF499
:102FB0007A7206D1214604F5A030503004F0C0FBEF
:102FC00006E004F57A7104F5A230383004F0B8FB5D
:102FD00005F57770417800292AD095F8DC1300298F
:102FE0000DD10021FA2919DA4268521804EB420285
:102FF00004EB81035B88A2F8D037491CF2E700217B
:103000000AE04268521804EB420204EB8103B3F871
:10301000EA33A2F8D037491CFA29F2DB4168FA31C9
:10302000416049F64042914202D300214170416023
:1030300031BD000000000240A0D8012044DE012084
:10304000D8B4012098DC0120082004E000100240E0
:1030500068DF01209766253540D6012035B7FFBFD0
:10306000946E7F3F936FB6B931BD274052B81E852D
:10307000EB51E83F000004400000394000080240E6
:10308000000C0240AEDF0120C407002002E7000070
:1030900041542B524F4C45300000000041542B4E00
:1030A000414D455649425F25303264253032640037
:1030B00041542B52455345540000000000000000CD
:1030C00031000000000000000000000000000000CF
:1030D00000000000000000000000000000000000F0
:1030E00000000000000000000000000000000000E0
:1030F00000000000000000000000000000000000D0
:103100004869546563685F324700000000000000B2
:1031100000000000000000000000000000000000AF
:10312000000000000000000000000000000000009F
:10313000000000000000000000000000000000008F
:1031400043726F636F64696C6531303230313700C0
:10315000000000000000000000000000000000006F
:10316000000000000000000000000000000000005F
:10317000000000000000000000000000000000004F
:10318000000000000000000000000000000000003F
:10319000000000000000000000000000000000002F
:1031A000000000000000000000000000000000001F
:1031B000000000000000000000000000000000000F
:1031C00000000000000000000000000000000000FF
:1031D00000000000000000000000000000000000EF
:1031E00000000000000000000000000000000000DF
:1031F00000000000000000000000000000000000CF
:1032000000000000000000000000000000000000BE
:1032100000000000000000000000000000000000AE
:10322000000000000000016D6F746F722D64696111
:10323000672E37626974732E697400000000000005
:10324000000000000000000000000000000000007E
:10325000000000000000000000000000000000006E
:10326000000000000000000000000000000000005E
:103270000000000000000000BB1F00000000000074
:10328000000000000000000000000000000000003E
:10329000000000000000000000000000000000002E
:1032A000000000000000000000000000000000001E
:1032B000000000000000000000000000000000000E
:1032C00000000000000000000000000000000000FE
:1032D00000000000000000000000000000000000EE
:1032E00000000000000000000000000000000000DE
:1032F00000000000000000000000000000000000CE
:1033000000000000000000000000000000000000BD
:1033100000000000000000000000000000000000AD
:1033200000003230382E36372E3232322E323232E0
:1033300000003C00580201010000000000000000F5
:10334000EC51983F0000803F0000803F0000803F2C
:103350000000803F0000803F0000803F0000803F71
:103360000000803F0000803F0000803F0000000020
:103370000000803F0000803F000000000000803F10
:103380000000803F000000000000803F0000803F00
:10339000000000000000803F0000803F00000000AF
:1033A0000000803F0000803F000000000000803FE0
:1033B000000000000000000000000000000000000D
:1033C000000000000000140062B38B0708D0521EFA
:1033D00011F8013B00F8013B00F024808B07F6D187
:1033E000830740F0208000BF103A07D330B4B1E823
:1033F0003810103AA0E83810F9D230BC530724BF77
:10340000B1E80810A0E8081044BF51F8043B40F8A8
:10341000043BD20724BF31F8022B20F8022B44BF13
:103420000B7803707047083A07D3B1E80810083AE0
:1034300040F8043B40F804CBF7D25307E4E750F8D8
:10344000041B61B150F8042BD30744BFA9F1010359
:103450009A18002342F8043B091FFAD1EFE770479E
:103460005FF0FF0C1CEAD05114BF614506E0C110AB
:10347000400721F0E04101F16051704779B900F057
:10348000004100020AD0B0FA80FC00FA0CF001F111
:103490006051A1EB0C5101EBD02140057047410276
:1034A0000CBF40F4E0016FF000010020704702689B
:1034B000531C0360117070470CB41CB5044604A87B
:1034C00001900A46009401AB00A9074878441830DF
:1034D00004F03CF9009900220A7000285CBF0098B3
:1034E000001B16BC5DF80CFBC7FFFFFF00F10103DA
:1034F000810704D010F8011B89B18107FAD1026855
:10350000B2F10131914311F0803F04BF50F8042F14
:10351000F6E710F8011B11B110F8011BFBE7C01A08
:10352000704780B50022002105F07AFA41EC100BBB
:1035300001BD00004FEAF17CBCF1E04C2CBFBCF5B2
:10354000001F11E05FEA4C0C34BFBCF17F5F2EE03E
:103550005FEA9C0C4FEA0C1C4FEA3C0CC10071F175
:1035600000414CEB50707047C90241EA5051C00213
:1035700018BF41F0010141F000414FEA6C50C0F129
:103580000900212810D240EACC7CCCF1200C11FAA1
:103590000CF070F10040CCF1200C21FA0CF00CF092
:1035A000004C40EB0C0070474FEACC70704749006C
:1035B00011F5001F04D84FEACC10FF30C00570474A
:1035C000C817704738B50C46217831B932BD11F8AB
:1035D000013F1578AB4206D0401C217805F022FA55
:1035E00028B10146224612F8013F002BEFD132BD2F
:1035F0002DE9F04F85B080460D4614461E001CBFD5
:1036000000203060474600E07F1C387805F01FFA44
:103610000028F9D138782D2816BF2B2817F8019BE0
:103620004FF02B09002C44D4012C42D0252C40DA39
:10363000012C0ADB102C04BF3878302802BF7878C0
:1036400040F0200078280ED10AE03878302818BFE2
:103650000A2408D1787840F02000782802D110247C
:10366000BF1C00E00824039700E07F1C3878302856
:10367000FBD002970FF294004FF0000A8DF804007F
:1036800009E09DF80410CDF800A0401A5FFA80FB15
:1036900004FB0ABA7F1C387805F0E3F9014622469C
:1036A0000FF2680005F0E8F90028EAD10398B84263
:1036B00004D10DB1C5F80080002022E00FF27401A2
:1036C0000298615C381A401A13D4012807DABAEB61
:1036D0000B0004D30099B0FBF4F0884209D005F048
:1036E000F7F9222101600EB1012030604FF0FF3A5E
:1036F00004E0B9F12D0F08BFCAF1000A05B12F602F
:10370000504605B0BDE8F08F002371E73031323309
:103710003435363738396162636465666768696A6B
:103720006B6C6D6E6F707172737475767778797A71
:103730000000000000002115110E0D0C0B0B0A0AF1
:1037400009090909090808080808080807070707F8
:1037500007070707070707070700000082B00020D8
:103760000090DFF83408416841F4804141604168CD
:1037700001F480410091009900210091016841F01D
:1037800080510160006800F0805000900098002295
:103790000F216FF0010002B005F0F7B930B587B026
:1037A000044601A8142105F00DFA2068DFF8EC1793
:1037B00088426FD100200090DFF8E407416941F4AE
:1037C00080714161416901F480710091009900218B
:1037D0000091016841F004010160016801F00401F9
:1037E0000091009900210091016841F00101016000
:1037F000016801F001010091009900210091016828
:1038000041F002010160006800F0020000900098A1
:103810003F200190032002900020039001A9DFF8CF
:10382000840701F0ABF9CF20019003200290002023
:10383000039001A9DFF8700701F0A0F903200190BF
:1038400002900020039001A9DFF8600701F096F9CB
:10385000DFF85C57DFF85C07286000206860A8602C
:10386000E8604FF4806028614FF4006068614FF4B5
:103870000050A8614FF48070E861002028626862FF
:10388000284600F0F5FB002801D002F016FCA563E5
:10389000AC6375E0DFF82017884271D100200090FA
:1038A000DFF8FC06416941F400714161416901F4AE
:1038B00000710091009900210091016841F004011C
:1038C0000160016801F0040100910099002100915C
:1038D000016841F001010160016801F001010091FE
:1038E000009900210091016841F002010160006827
:1038F00000F00200009000983E200190032002900A
:103900000020039001A9DFF89C0601F037F9CF20D1
:103910000190032002900020039001A9DFF888069F
:1039200001F02CF90320019002900020039001A9DE
:10393000DFF8780601F022F9DFF88056DFF8740628
:10394000303028604FF0007068600020A860E860A8
:103950004FF4806028614FF4006068614FF40050BC
:10396000A8614FF48070E8610020286268622846F0
:1039700000F07EFB002801D002F09FFBA563AC6342
:1039800007B030BD10B586B0044601A8142105F07B
:1039900019F92068DFF82816884222D1002000900B
:1039A000DFF8FC05016941F000510161016901F096
:1039B00000510091009900210091016841F001013E
:1039C0000160006800F00100009000983020019034
:1039D000032002900020039001A9DFF8CC0501F03C
:1039E000CDF806B010BD10B586B0044601A814216C
:1039F00005F0E8F82068DFF8CC15884227D10020D0
:103A00000090DFF89C45206840F0020020602068AC
:103A100000F0020000900098C02001901220029057
:103A200001200390032004900420059001A9DFF8F1
:103A30007C0501F0A3F800200090206940F40010FC
:103A40002061206900F400100090009846E0DFF843
:103A50007815884242D100200090DFF84445206864
:103A600040F004002060206800F0040000900098FE
:103A700000200090206840F001002060206800F0E5
:103A80000100009000984FF4007001901220029005
:103A900001200390032004900420059001A9DFF881
:103AA000040501F06BF84FF4807001901220029031
:103AB00001200390032004900420059001A9DFF861
:103AC000E80401F05BF800200090206940F4000059
:103AD0002061206900F400000090009806B010BD3D
:103AE0002DE9F04786B0044601A8142105F06AF8D4
:103AF0002068DFF8D814884240F0918000200090C0
:103B0000DFF89C04016941F480410161016901F41D
:103B100080410091009900210091016841F002016B
:103B20000160016801F002010091009900210091FB
:103B3000016841F004010160006800F00400009099
:103B400000984FF41440019002200290002003904E
:103B5000049005200590DFF8545401A9284601F08F
:103B60000DF84FF480400190022002900020039055
:103B700004900620059001A9284600F0FFFF402090
:103B800001900220029000200390049005200590EF
:103B900001A9DFF8100400F0F1FFDFF83464DFF86A
:103BA000345435604FF0C06070600020B060F06049
:103BB0004FF4806737614FF40068C6F814804FF403
:103BC0000059C6F818904FF4807AC6F81CA03062ED
:103BD0007062304600F04CFA002801D002F06DFA15
:103BE000E663B463DFF8F06305F11800306000208D
:103BF00070604020B0600020F0603761C6F814802B
:103C0000C6F81890C6F81CA030627062304600F00A
:103C10002FFA002801D002F050FAA663B46306B070
:103C2000BDE8F08710B586B0044601A8142104F061
:103C3000C9FF2068DFF8A413884227D10020009034
:103C4000DFF85C03016941F400410161016901F49D
:103C500000410091009900210091016841F00401A8
:103C60000160006800F00400009000984FF4E050FC
:103C7000019002200290002003900320049006206F
:103C8000059001A9DFF81C0300F078FF06B010BD15
:103C900010B586B0044601A8142104F093FF2068F3
:103CA000DFF83C1388422DD100200090BC484169C8
:103CB00041F001014161416901F001010091009968
:103CC00000210091016841F010010160006800F0DE
:103CD0001000009000984FF42060019002200290A4
:103CE0000020039004900120059001A9BD4800F038
:103CF00045FF002205211B2004F047FF1B2004F094
:103D000053FF26E0B849884214D100200090A4480F
:103D1000016941F008010161006900F008000090AC
:103D2000009800220521322004F02FFF322004F0F9
:103D30003BFF0EE0AD4988420BD10020009098482F
:103D4000416941F480314161406900F48030009064
:103D5000009806B010BD30B587B0044601A8142104
:103D600004F030FF2068A24988424AD10020009028
:103D70008B48416941F010014161416901F0100136
:103D80000091009900210091016841F0010101605A
:103D9000006800F00100009000984FF4C0600190AE
:103DA0000220029001200390032004900720059038
:103DB00001A97D4800F0E2FE8E4D8F4828604FF04B
:103DC000006068604020A8600020E8604FF48060D8
:103DD000286100206861A861E8612862686228465D
:103DE00000F046F9002801D002F067F92563AC63C2
:103DF00000220521252004F0C8FE252004F0D4FE71
:103E000088E07E49884254D10020009064480169CE
:103E100041F400310161016901F400310091009920
:103E200000210091016841F008010160006800F084
:103E3000080000900098602001900220029001206C
:103E40000390032004900720059001A96C4800F01E
:103E500095FE6C4D6C4828604FF000606860402013
:103E6000A8600020E8604FF480602861002068614D
:103E7000A861E86128626862284600F0F9F8002825
:103E800001D002F01AF92563AC6300220521262037
:103E900004F07BFE262004F087FE262004F085FE39
:103EA00000220421262004F070FE262004F07CFE6F
:103EB00030E0564988422DD10020009038480169F1
:103EC00041F480210161016901F480210091009990
:103ED00000210091016841F008010160006800F0D4
:103EE0000800009000984FF440700190022002906A
:103EF00001200390032004900720059001A9404869
:103F000000F03CFE00220521272004F03EFE272081
:103F100004F04AFE07B030BD10B5044620683449AD
:103F2000884211D11C48416821F0100141604FF4D2
:103F3000C0611D4800F0F5FE206B00F000F925205F
:103F4000BDE8104004F031BE2C49884210D112481F
:103F5000016821F4003101606021294800F0E1FE90
:103F6000206B00F0ECF82620BDE8104004F01DBEE8
:103F7000264988420ED10848016821F48021016059
:103F80004FF440711E4800F0CCFE2720BDE81040E1
:103F900004F00BBE10BD000040380240002001407C
:103FA0003038024000080240000002400004024095
:103FB000ACD9012010640240002101400CDA01203C
:103FC0000074004000540040005C00400038004095
:103FD0006CDA012058600240CCDA0120003C00403D
:103FE0000000014000100240000C00400040014071
:103FF000001001402CDB0120B86402400044004066
:10400000000C02408CDB0120A06002400048004010
:1040100080B51248016841F400710160016841F403
:1040200080610160016841F480710160032004F047
:10403000ABFD002004F0CAFDFFF790FB002002BD9D
:10404000074840687047074800687047064800689E
:10405000704706480068704700000000003C0240BE
:10406000A0070020107AFF1F147AFF1F187AFF1F85
:1040700038B50446FFF7E4FF0546002C01D10120C6
:1040800032BD002084F83400022084F83500206816
:10409000016849084900016020680168C9070AD51C
:1040A000FFF7CEFF401B0628F6D3202060650320D3
:1040B00084F8350032BD0168DFF84C231140626896
:1040C0001143A2681143E2681143226911436269F6
:1040D0001143A2691143E2691143226A1143626AE2
:1040E000042A03D1E26A236B1A431143016020685A
:1040F0004069616AC00841EAC00504290FD1A06A7D
:104100000543E06A00280AD0204600F0AAF90028FA
:1041100005D040206065012084F8350032BD20685C
:104120004561204600F089F93F21E26D91408160B0
:1041300000206065012084F83500002032BD10B5F4
:10414000040001D1012010BD94F83500022801D1EE
:10415000022010BD206801684908490001602068FC
:104160000021016020684160206881602068C16092
:1041700020680161206821214161204600F05DF93D
:104180000021E16321646164A164E16421653F2150
:10419000E26D914081600020606584F8350084F80C
:1041A000340010BD70B505460024AE6D95F834009E
:1041B000012801D1022070BD012085F8340095F856
:1041C0003500012823D1022085F835002046686596
:1041D000284600F01DF93F20E96D8840B06028684E
:1041E000016841F0160101602868416941F08001D1
:1041F0004161286C002804D02868016841F008015A
:1042000001602868016841F00101016003E0204677
:1042100085F834000224204670BD90F8351002293C
:1042200003D08021416501207047052180F83510B9
:104230000068016849084900016000207047F8B52E
:10424000044600200090714800684FF41651B0FBFE
:10425000F1F5A66D37680820E16D00FA01F10F4213
:104260000ED021680A6852070AD50A6822F00402B3
:104270000A60E16D8840B060606D40F001006065EB
:10428000E06D27FA00F1C9070BD5216849690906D5
:1042900007D5012101FA00F0B060606D40F0020026
:1042A00060650420E16D8840074208D021680968F4
:1042B000890704D5B060606D40F00400606510208F
:1042C000E16D8840074223D02168096809071FD59E
:1042D000B0602068016849030ED50068000305D46A
:1042E000216C080014D02046884711E0A16C08001A
:1042F0000ED0204688470BE00168C90503D4016849
:1043000021F008010160216C080001D02046884797
:104310002020E16D8840074251D021680968C90614
:104320004DD5B060206894F835100529016823D177
:1043300021F0160101602068416921F0800141618E
:10434000206C002802D1A06C002804D020680168ED
:1043500021F0080101603F20E16D8840B06000203D
:1043600084F83400012084F83500216D08004AD01B
:104370002046BDE8F440084749030ED50068000315
:1043800005D4616C08001AD02046884717E0E16B1D
:10439000080014D02046884711E00168C90509D4F7
:1043A000016821F010010160002084F83400012030
:1043B00084F83500E16B080001D020468847606D25
:1043C000002820D0606DC00716D5052084F8350080
:1043D000206801684908490001600098401C00906D
:1043E000854203D320680068C007F6D4002084F813
:1043F0003400012084F83500E16C080003D0204629
:10440000BDE8F4400847F1BD3F8010F0BC07002034
:1044100030B40468256825F480252560046863604D
:1044200003688468402C03D19A600068C16002E090
:1044300099600068C26030BC70470178103918225A
:10444000B1FBF2F10FF294028A5CC2650268920A33
:104450009202042902D3111D816500E08265806DFE
:1044600070470021826A8369002B10D1002A03D093
:10447000022A01D005D32DE0C06AC0012AD501214E
:1044800028E0C06AB0F1C07F24D1012122E0B3F559
:10449000005F14D1002A05D0022A03D004D3032AD6
:1044A00007D017E0012115E0C06AC00112D5012133
:1044B00010E0C06AB0F1C07F0CD101210AE0022AED
:1044C00002D9D21E02D005E0012103E0C06AC0017A
:1044D00000D50121084670470000000000061016B4
:1044E00000061016674804F0CDBB674804F0CABB4D
:1044F000634A6649884200D02C32816A491E816233
:10450000C18D491CC185806A017802F1080004F060
:10451000A3BB5E49884204D15948002180F8291084
:1045200070475B49884203D15548002180F85510F7
:10453000704710B5524C5549884200D02C34FFF7D3
:10454000E8FF042204F114012068BDE81040FDF7E3
:10455000C4BD0021C16180F8291080F82810042210
:1045600000F114010068FDF7B8BD10B5444C206897
:10457000FDF734FD4FF4007204F1580104F1080016
:1045800004F062FB00F054FD2046BDE81040E0E777
:1045900010B53B4CE06AFDF721FD4FF4806204F555
:1045A000167104F1340004F04FFB00F045FD04F1F6
:1045B0002C00BDE81040CCE710B5314CE06AFDF7A7
:1045C0000DFD4FF4806204F5167104F1340004F01F
:1045D0003BFB00F02FFD04F12C00BDE81040B8E7D4
:1045E000F8B504460D4616464FF4FA7703E07F1EF1
:1045F0000A2000F06DFD96F82900002801D0002F58
:10460000F5D1002F03D03068C06B002801D070684E
:104610008047012086F829002A4692B22146306858
:10462000BDE8F840FDF78ABD80B51A4AFFF7D8FF0C
:10463000401E8041C043C00F02BD38B5044601F1A1
:104640001805287C002801D0E86800E0A8686A689E
:10465000531C6B6014546B680A2C02D08A69934215
:1046600009D30A461946FFF7BBFF00206860287C83
:1046700080F001002874204632BD0149DDE70000CA
:1046800000000020080000203400002044DE01204B
:1046900084DE01202C0000202DE9F04182B00400CE
:1046A00017D0DFF8A8542078C0074BD5A86800F0D1
:1046B0000C00042807D0A86800F00C0008280AD1D4
:1046C0006868400207D5286880033BD560680028E9
:1046D00038D1012053E16068B0F5803F04D12868EB
:1046E00040F48030286012E0B0F5A02F286807D190
:1046F00040F480202860286840F48030286006E07C
:1047000020F480302860286820F4802028606068C9
:1047100000280BD0FFF794FC06462868800311D4CC
:10472000FFF78EFC801B6528F7D325E1FFF788FC97
:1047300006462868800305D5FFF782FC801B6528A4
:10474000F7D319E12078800718D5A86810F00C0F6E
:1047500007D0A86800F00C00082825D1686840023E
:1047600022D42868800702D5E0680128B1D12868E2
:1047700020F0F800216940EAC10028602078000795
:1047800049D5DFF8CC036169002936D001210160E9
:10479000FFF756FC0646686F80073CD4FFF750FCD5
:1047A000801B0328F7D3E7E0DFF8A873E068002850
:1047B00015D001203860FFF743FC064628688007C3
:1047C00005D4FFF73DFC801B0328F7D3D4E028680D
:1047D00020F0F800216940EAC1002860CEE70020FF
:1047E0003860FFF72DFC064628688007C6D5FFF71E
:1047F00027FC801B0328F7D3BEE000210160FFF7F0
:104800001FFC0646686F800705D5FFF719FC801B63
:104810000328F7D3B0E02078400767D50027286C3D
:10482000C0000BD438460090286C40F080502864BB
:10483000286C00F08050009000980127DFF8188362
:10484000D8F80000C00512D4D8F8000040F48070F9
:10485000C8F80000FFF7F4FB0646D8F80000C005D2
:1048600005D4FFF7EDFB801B0328F6D384E0A06896
:10487000012804D1286F40F00100286711E00528C5
:10488000286F07D140F004002867286F40F001002E
:10489000286706E0400840002867286F20F00400E1
:1048A0002867A06800280DD0FFF7CAFB0646286FCE
:1048B000800715D4FFF7C4FB801B41F28931884281
:1048C000F5D359E0FFF7BCFB0646286F800707D5F4
:1048D000FFF7B6FB801B41F289318842F5D34BE0EC
:1048E000012F03D1286C20F080502864A069002893
:1048F00044D0A96801F00C0108293FF4EAAEDFF8C2
:10490000547202282BD100203866FFF799FB064627
:104910002868800105D5FFF793FB801B0328F7D398
:104920002AE0E069216A0843616A40EA8110A16ACD
:10493000891EC903090C50EA0140E16A40EA01609E
:10494000686001203866FFF77BFB06462868800117
:1049500014D4FFF775FB801B0328F7D30CE000206D
:104960003866FFF76DFB06462868800106D5FFF71D
:1049700067FB801B0328F7D3032000E00020BDE87D
:10498000F6812DE9F04104460D46002C5BD0734EB4
:10499000306800F00F00A84205D23570306800F092
:1049A0000F00A8424FD12068684F810712D54007F9
:1049B00003D5B86840F4E050B8602078000703D50C
:1049C000B86840F46040B860B86820F0F000A168B2
:1049D0000843B8602078C0072AD56068012803D151
:1049E000396889030BD42EE0022801D0032803D1B3
:1049F0003968890103D426E03968890723D5B96865
:104A0000890850EA8100B860FFF71AFB8046B86851
:104A100000F00C006168B0EB810F09D0FFF710FBCC
:104A2000A0EB080041F289318842F0D303202DE049
:104A3000306800F00F00854207D23570306800F012
:104A40000F00A84201D0012020E02078400705D5C2
:104A5000B86820F4E050E1680843B86020780007A7
:104A600006D5B86820F46040216940EAC100B8600A
:104A700000F00EF8B968C1F30311394A895CC840E7
:104A800038490860002004F0A1F80020BDE8F0815A
:104A900010B5364C606800F00C00042802D00828DD
:104AA00002D01EE0324810BD206800F03F02002313
:104AB000206840022068C0F3881005D52C49A1FB6E
:104AC000000104F0F3F804E02A49A1FB000104F01E
:104AD000EDF82168C1F30141491C4900B0FBF1F038
:104AE00010BD244810BD1F480068704780B5FFF70F
:104AF000FAFF1D490968C1F382211F4A895CC84039
:104B000002BD80B5FFF7EFFF17490968C1F34231D5
:104B1000194A895CC84002BD0F220260124A13681C
:104B200003F003034360136803F0F003836013682A
:104B300003F4E053C3601268D20802F4E052026149
:104B40000648006800F00F00086070470038024017
:104B5000800E47420000474200700040003C024087
:104B600020000108BC070020083802400438024039
:104B700000127A000024F4003C010108F8B400227D
:104B800025E04FF0080C0CFA06F63E4345F8246089
:104B9000B64C2668DD432E404F68FF0300D51E4308
:104BA000266066682E404F68BF0300D51E436660CE
:104BB000A6682E404F68FF0200D51E43A660E66837
:104BC00035404E68B60200D51D43E560521C102AE0
:104BD00080F0A580012303FA02F40B682340A3426E
:104BE000F4D14D68022D01D0122D12D1D50800EB61
:104BF0008506356A02F00707BF004FF00F0C0CFA6C
:104C000007FC25EA0C05D1F810C00CFA07F73D4364
:104C10003562056856000327B740FF433D4091F8D1
:104C200004C00CF0030C0CFA06FC4CEA0505056008
:104C30004D68012D05D0022D03D0112D01D0122D6C
:104C400011D185683D40D1F80CC00CFA06FC4CEA45
:104C500005058560456825EA04044D68C5F300151F
:104C600095402C434460C56807EA05048D68B5404B
:104C70002C43C4604C68E400A8D5002400947C4C0C
:104C8000256845F480452560246804F48044009438
:104C9000009C9408774D55F8247002F00306B60086
:104CA0004FF00F0C0CFA06FC27EA0C07DFF8C8C11E
:104CB000604502D14FF0000C65E7DFF8C0C16045E8
:104CC00002D14FF0010C5EE7DFF8B4C1604502D1BC
:104CD0004FF0020C57E7DFF8ACC1604502D14FF04E
:104CE000030C50E7DFF8A0C1604502D14FF0040C7F
:104CF00049E7DFF898C1604502D14FF0050C42E763
:104D0000DFF88CC1604502D14FF0060C3BE7DFF8BD
:104D100084C160457FF435AF4FF0070C33E7F1BC39
:104D200070472DE9F043002238E04FF0080909FAF6
:104D30000EFEF04514D155F826E02EEA070745F897
:104D400026706FEA0C06494D2F6837402F606F6858
:104D500037406F60AF683740AF60EF683E40EE604D
:104D600003255600B540ED4306682E400660D60880
:104D700000EB8606376A02F0070C4FEA8C0C03FA48
:104D80000CF327EA0303336283682B408360436894
:104D9000A3434360C3682B40C360521C102A4CD20B
:104DA000012303FA02F404EA010CA445F5D19608A4
:104DB000304D55F8268002F003034FEA830E0F238F
:104DC00003FA0EF707EA0808DFF8AC90484502D16D
:104DD0004FF00009ABE7DFF8A490484502D14FF04F
:104DE0000109A4E7DFF89890484502D14FF0020985
:104DF0009DE7DFF89090484502D14FF0030996E710
:104E0000DFF88490484502D14FF004098FE7DFF8BE
:104E10007C90484502D14FF0050988E7DFF8709093
:104E2000484502D14FF0060981E7DFF86890484510
:104E30007FF47BAF4FF0070979E7BDE8F0830069A5
:104E40000840401E8041C043C00F7047002A01D077
:104E50008161704709048161704742690A408A4252
:104E600002D109048161704781617047003C0140B3
:104E7000443802400838014000000240000402406B
:104E800000080240000C02400010024000140240E2
:104E900000180240001C02400021842800D0C11CE0
:104EA00008467047EFF30580401E8041C043C00FA5
:104EB000704780B504F05AF8002002BD3EB50446A4
:104EC0000D46B4F90800FFF7E7FF02A90191009031
:104ED0002B46226992B22168606803F05FFF0128C7
:104EE00001D000203EBD02983EBD80B5002800D113
:104EF000012004F015F8002002BD10B501290DD1E4
:104F000003220021012004F0EDFB040004D0002363
:104F10001A46114604F016FC204610BD002010BDB4
:104F200038B5044600200090002C01D1802032BD0D
:104F3000054611F1010F02D14FF0FF3504E00029C1
:104F400002D00D0000D10125FFF7ACFF002814D0DE
:104F500000AA0021204604F0E6FD012813D10098A4
:104F6000002808D0DFF874004FF080510160BFF3D3
:104F70004F8FBFF36F8F002032BD2946204604F0CB
:104F800006FD0128F7D0FF2032BD38B504460025C4
:104F900028460090FFF786FF002814D000A920467D
:104FA00004F09AFC012801D0FF2032BD00980028AF
:104FB00012D0DFF828004FF080510160BFF34F8F0F
:104FC000BFF36F8F08E02B461A461146204604F0C7
:104FD000B9FB012800D0FF25284632BD04ED00E0D2
:104FE000DFF8C40CDFF8B41D00F14C024A64806C99
:104FF000FFF7CBBFDFF8B00CDFF8A01D00F56F7234
:105000004A64806CFFF7C1BFDFF8D40CDFF88C1D59
:1050100000F168028A64006EFFF7B7BFDFF8C00CCA
:10502000DFF8781D00F512728A64006EFFF7ADBFDD
:1050300000F0D0BC00F0E8BC80B5DFF8A80CDFF8C9
:10504000601D01604FF46131416000218160C160E9
:1050500001610C21416100218161C161FCF78CFF7C
:10506000002803D0BDE8014001F027B801BDDFF8FA
:10507000A80C0168DFF8A42C127889180160DFF809
:10508000A00C4168002902D04168491E4160816836
:10509000002902D08168491E81600188491C018075
:1050A00089B2B1F57A7F12D100210180DFF8AC0C12
:1050B0004168491C4160DFF8E40C816B002901D094
:1050C000491E8163C16B002901D0491EC16370472D
:1050D00038B50446FEF7B4FF054614F1010F05D0BC
:1050E000DFF8380C0078241800E030BFFEF7A8FF86
:1050F000401BA042F9D331BD10B5DFF8A84C002207
:1051000080212046FFF7A2FE1420FFF7E1FF0122D5
:1051100080212046FFF79AFEC820BDE81040D7E75F
:10512000F0B5A1B0FEF774FF00F052F900F0E9FC11
:1051300000F09CFC00F0B0F900F0D5FA00F0FCFAA9
:1051400000F017FB00F032FB00F04EFB00F06DFBAF
:1051500000F040FC00F058FC00F06EFC00F0C2FBD8
:1051600000F049FA00F013FCFDF712FCFFF7C4FF52
:10517000FFF7FBF9FFF720FADFF82C6C4FF47A7396
:105180001C220FF28C113046FCF741FFDFF81C4C5B
:1051900002212046FFF753FE002855D1FDF706FBFC
:1051A000FDF7AEFB4FF47A7319220FF284113046EB
:1051B000FCF72DFFDFF8F87B3868DFF8F85BC0F309
:1051C0000743C2B20FF284112846FEF775F928464C
:1051D000FEF78CF94FF47A73024692B229463046B4
:1051E000FCF715FF04F0B6FD0021084604F0CBFEE5
:1051F0003868C0F30743C2B20FF268112846FEF7C1
:105200005BF9DFF8B46B0123D6E900010A460146D9
:10521000284604F0A3FE1021002004F0B4FE0FF293
:105220005C112846FEF748F90123D6E900010A4639
:105230000146284604F092FE04F0FEFD02212046BD
:10524000FFF7FDFD0028F9D00FF24410006802902E
:10525000012102A8FFF751FEDFF84C1A8864DFF83D
:105260005C0B00680190DFF8784A012101A8FFF784
:1052700044FE20660FF6446000680090012100A8FB
:10528000FFF73BFE60661CA80FF634611422FEF7A0
:10529000ABF800211CA8FFF711FEA06417A8DFF8E7
:1052A000201B1422FEF7A0F8002117A8FFF706FE26
:1052B000E06412A8DFF8341D1422FEF795F80021EF
:1052C00012A8FFF7FBFD20650DA80FF2C8011422FC
:1052D000FEF78AF800210DA8FFF7F0FD606508A829
:1052E0000FF2C4011422FEF77FF8002108A8FFF78F
:1052F000E5FDA06503A80FF2C4011422FEF774F8BF
:10530000002103A8FFF7DAFDE065FFF7D2FDFEE715
:105310000A434F4E43454E545241544F522022555A
:105320004E4956455253414C2D31220A000000008F
:105330000A44656661756C742073657474696E6780
:1053400073206C6F616465640A00000042545F4E14
:10535000616D653A5649425F2530326425303264CA
:105360000A00000042545F4E616D653A5649425F43
:105370002530326425303264000000004465662028
:10538000454550524F4D206C6F61646564000000CC
:1053900000000000A4FF0008255D000801000000D7
:1053A0000000000080000000B4FF0008615D0008FC
:1053B000000000000000000000010000C4FF000821
:1053C000C55D0008000000000000000000010000B2
:1053D00000B597B00AA8302103F0F4FB05A814210A
:1053E00003F0F0FB01A8102103F0ECFB002000907B
:1053F000DFF8FC0B016841F080510160006800F0AB
:1054000080500090009800200090DFF8E80B0168C1
:1054100041F480410160006800F4804000900098F1
:1054200001200A904FF480300B90022010904FF42E
:105430008000119004201290A82013900220149054
:10544000042015900AA8FFF727F9002801D000F0E2
:1054500034FE0F20059002200690002007904FF4A4
:10546000A05008904FF480500990052105A8FFF73F
:1054700088FA002801D000F020FE0120019032209F
:1054800002900220039001A804F088FD002801D0BA
:1054900000F013FE17B000BD1FB500A8102103F0E7
:1054A00091FBDFF80448DFF8500B20604FF48030A8
:1054B00060600020A060012020612076002084F838
:1054C0002000E062DFF8340BA0620020E0600B20D7
:1054D000E061012084F830006061204604F024FE81
:1054E000002801D000F0E9FD032000900120019088
:1054F0000720029000A9204604F0E3FE002801D016
:1055000000F0DBFD062000900220019000A920465B
:1055100004F0D7FE002801D000F0CFFD0720009056
:105520000320019000A9204604F0CBFE002801D002
:1055300000F0C3FD0E2000900420019000A9204639
:1055400004F0BFFE002801D000F0B7FD0F2000904E
:105550000520019000A9204604F0B3FE002801D0E8
:1055600000F0ABFD082000900620019000A9204625
:1055700004F0A7FE002801D000F09FFD0920009054
:105580000720019000A9204604F09BFE002801D0CE
:1055900000F093FD0A2000900820019000A9204609
:1055A00004F08FFE002801D000F087FD102000904D
:1055B0000920019000A9204604F083FE002801D0B4
:1055C00000F07BFD122000900A20019000A92046E7
:1055D00004F077FE002801D000F06FFD112000904C
:1055E0000B20019000A9204604F06BFE002801D09A
:1055F00000F063FD1FBD1FB500A8102103F0E2FA03
:10560000DFF8DC46DFF8F80920604FF48030606096
:105610000020A0600120206100202076012084F875
:105620002000062060624FF08050E0624FF0206062
:10563000A0620020E0600620E061012084F83000D4
:105640006061204604F070FD002801D000F035FDB7
:1056500000200090012001900020029000A9204627
:1056600004F02FFE002801D000F027FD0B20009051
:105670000220019000A9204604F023FE002801D05A
:1056800000F01BFD012000900320019000A920469E
:1056900004F017FE002801D000F00FFD0C20009050
:1056A0000420019000A9204604F00BFE002801D040
:1056B00000F003FD022000900520019000A9204683
:1056C00004F0FFFD002801D000F0F7FC0D20009051
:1056D0000620019000A9204604F0F3FD002801D027
:1056E00000F0EBFC1FBD1CB50FF6E810D0E900235D
:1056F000CDE90023DFF80C49DFF80C0920602046D3
:1057000001F0C0FB002801D000F0D7FC0020009081
:105710000190024600A9204601F001FC002801D0BA
:1057200000F0CBFC102200A9204601F0F8FB002875
:1057300001D000F0C2FC13BD80B5DFF8D008DFF85F
:10574000D0180160DFF8CC18416000218160C16091
:105750004FF480410161002141618161C1610162B9
:1057600000F0EAFC002803D0BDE8014000F0A5BC31
:1057700001BD80B5DFF8A008DFF8A0180160DFF8F0
:105780009418416000218160C1604FF48041016143
:10579000002141618161C161016200F0CDFC0028FE
:1057A00003D0BDE8014000F088BC01BD80B5DFF842
:1057B0007008DFF8701801604FF40071416000223A
:1057C0008260C26001614BF68031416111468161A6
:1057D000C1610121016204F005FF002803D0BDE88A
:1057E000014000F06ABC01BD80B5DFF83C08DFF87D
:1057F0003C1801604FF48271416000218160C160FA
:10580000016141614FF4007181610021C161016258
:10581000416281620A21C16205F03AF8002803D092
:10582000BDE8014000F049BC01BD10B58AB006A832
:10583000102103F0C7F90FF6A400D0E90023CDE949
:10584000042300A8102103F0BDF9DFF8E447DFF8D6
:10585000E407206000206060A060E060206160617B
:10586000A061204605F056F8002801D000F025FC84
:105870004FF48050069006A9204605F032FA002821
:1058800001D000F01AFC204605F08CF8002801D069
:1058900000F013FC00200490059004A9204605F0B8
:1058A00081FC002801D000F008FC0A2000900120B3
:1058B0000190002002900390024600A9204605F0C6
:1058C00036F9002801D000F0F8FB002000900422F7
:1058D00000A9204605F02BF9002801D000F0EDFBCF
:1058E0000AB010BD10B58EB009A8102103F06AF9F6
:1058F0000FF2F070D0E90023CDE9002302A81C21AB
:1059000003F060F9DFF83047DFF83007206000204F
:105910006060A06042F60410E06000202061A06199
:10592000204604F0F7FF002801D000F0C6FB4FF43A
:105930008050099009A9204605F0D3F9002801D02C
:1059400000F0BBFB204605F011F8002801D000F064
:10595000B4FB402000900020019000A9204605F0F3
:1059600021FC002801D000F0A8FB602002906420F8
:105970000390002004900690024602A9204605F0FC
:105980002EF9002801D000F098FB0EB010BD1FB515
:1059900000A8102103F016F9DFF8A446DFF8A406EA
:1059A000206000206060A060E0602061A06120466F
:1059B00004F0B0FF002801D000F07FFB4FF48050CE
:1059C000009000A9204605F08CF9002801D000F0D5
:1059D00074FB1FBD80B5DFF8D003DFF86C160160E3
:1059E0004FF41651416000218160C16001610C21BA
:1059F000416100218161C161FCF7BEFA002802D03B
:105A0000BDE8014059E301BD80B5B648E4490160F5
:105A10004FF4E131416000218160C16001610C21DE
:105A2000416100218161C161FCF7A6FA002802D022
:105A3000BDE8014041E301BD80B5DFF81006DFF8A5
:105A4000101601604FF4E131416000218160C160B6
:105A500001610C21416100218161C161FCF78CFA77
:105A6000002802D0BDE8014027E301BD80B5002039
:105A70000090DFF8E005016841F4800101600168F1
:105A800001F480010091009900210091016841F426
:105A900000110160006800F40010009000980022DE
:105AA00005210E2003F071F80E2003F07DF800228E
:105AB00005210F2003F069F80F2003F075F800228C
:105AC0000521112003F061F8112003F06DF8002288
:105AD0000521382003F059F8382003F065F800223A
