:020000040800F2
:1000000078E70120E9F70008F9F30008FBF300089E
:10001000FDF30008FFF3000801F4000800000000F1
:10002000000000000000000000000000A1F3000834
:1000300003F400080000000049F3000809F100087B
:1000400019F800081DF8000821F8000825F8000834
:1000500029F800082DF8000831F8000835F80008E4
:1000600039F800083DF8000841F8000845F8000894
:1000700049F800084DF8000805F400085FF400088E
:1000800051F8000865F4000855F8000859F8000810
:100090005DF8000861F8000865F8000869F80008D4
:1000A0006DF8000871F8000875F800086BF4000896
:1000B00071F4000879F800087DF8000881F800085C
:1000C00085F8000889F800088DF8000891F8000804
:1000D00095F8000877F4000895F40008B3F40008D8
:1000E00099F800089DF80008A1F80008A5F8000894
:1000F000A9F80008ADF80008B1F80008B5F8000844
:10010000B9F80008BDF80008B9F40008C1F8000803
:10011000C5F80008C9F80008CDF80008D1F80008B3
:10012000E1F40008D5F80008E7F40008D9F8000861
:10013000DDF80008E1F80008E5F80008E9F8000833
:10014000EDF80008F1F80008F5F80008F9F80008E3
:10015000FDF8000801F90008EDF4000805F90008B1
:1001600009F900080DF9000811F9000815F900084F
:1001700019F900081DF9000821F900080000000025
:1001800025F9000829F9000800000000000000001F
:10019000000000000000000000000000001000103F
:1001A00000100010001000100000001000000000FF
:1001B00000280028002800000000000000000000C7
:1001C0000000000000240024007C00240048007C83
:1001D000004800480000000000380054005000387B
:1001E0000014005400540038001000000020005497
:1001F00000580030002800540014000800000000DF
:100200000010002800280010003400480048003486
:1002100000000000001000100010000000000000AE
:100220000000000000000000000800100020002076
:1002300000200020002000200010000800200010F6
:10024000000800080008000800080008001000204E
:10025000001000380010002800000000000000001E
:10026000000000000000000000100010007C0010E2
:10027000001000000000000000000000000000006E
:10028000000000000000001000100010000000003E
:100290000000000000000038000000000000000026
:1002A000000000000000000000000000000000103E
:1002B00000000000000800080010001000100010EE
:1002C00000200020000000000038004400440054DA
:1002D00000440044004400380000000000100030DA
:1002E000005000100010001000100010000000006E
:1002F0000038004400440004000800100020007C86
:10030000000000000038004400040018000400044D
:1003100000440038000000000008001800280028F1
:100320000048007C0008000800000000007C00403D
:100330000040007800040004004400380000000081
:100340000038004400400078004400440044003875
:1003500000000000007C00040008001000100020D5
:100360000020002000000000003800440044003855
:1003700000440044004400380000000000380044FD
:1003800000440044003C0004004400380000000029
:10039000000000000010000000000000000000103D
:1003A000000000000000000000000010000000003D
:1003B000000000100010001000000000000C0030D1
:1003C00000400030000C00000000000000000000B1
:1003D0000000007C0000007C000000000000000025
:1003E0000000000000600018000400180060000019
:1003F0000000000000380044000400080010001055
:10040000000000100000000000380044004C0054C0
:10041000005C004000400038000000000010002890
:10042000002800280028007C004400440000000050
:100430000078004400440078004400440044007800
:100440000000000000380044004000400040004030
:1004500000440038000000000070004800440044E0
:10046000004400440048007000000000007C004090
:100470000040007C004000400040007C0000000084
:10048000007C0040004000780040004000400040F8
:10049000000000000038004400400040005C0044C0
:1004A0000044003800000000004400440044007C88
:1004B00000440044004400440000000000380010E4
:1004C00000100010001000100010003800000000A4
:1004D0000004000400040004000400040044003888
:1004E0000000000000440048005000600050004838
:1004F0000048004400000000004000400040004070
:10050000004000400040007C000000000044006CFF
:10051000006C00540044004400440044000000000B
:1005200000440064006400540054004C004C00443B
:10053000000000000038004400440044004400442F
:1005400000440038000000000078004400440044EB
:1005500000780040004000400000000000380044E7
:1005600000440044004400440054003800040000EB
:1005700000780044004400440078004800480044EB
:100580000000000000380044004000300008000473
:100590000044003800000000007C00100010001033
:1005A0000010001000100010000000000044004483
:1005B00000440044004400440044003800000000AF
:1005C00000440044004400280028002800100010C7
:1005D0000000000000440044005400540054006C2B
:1005E0000028002800000000004400280028001017
:1005F00000100028002800440000000000440044CF
:10060000002800280010001000100010000000005A
:10061000007C000400080010001000200040007C56
:100620000000000000180010001000100010001062
:100630000010001000100018002000200010001012
:10064000001000100008000800000000003000103A
:1006500000100010001000100010001000100030FA
:1006600000100028002800440000000000000000E6
:10067000000000000000000000000000000000007A
:1006800000000000000000FE00200010000000003C
:10069000000000000000000000000000000000005A
:1006A00000380044003C0044004C003400000000CE
:1006B00000400040005800640044004400640058BA
:1006C000000000000000000000380044004000402E
:1006D0000044003800000000000400040034004C16
:1006E00000440044004C0034000000000000000002
:1006F00000380044007C0040004400380000000046
:10070000000C0010007C0010001000100010001001
:1007100000000000000000000034004C00440044D1
:10072000004C003400040078004000400058006491
:100730000044004400440044000000000010000099
:1007400000700010001000100010001000000000E9
:1007500000100000007000100010001000100010C9
:10076000001000E0004000400048005000600050D1
:10077000004800440000000000700010001000104D
:100780000010001000100010000000000000000029
:10079000007800540054005400540054000000003D
:1007A000000000000058006400440044004400447D
:1007B0000000000000000000003800440044004435
:1007C00000440038000000000000000000580064F1
:1007D0000044004400640058004000400000000055
:1007E0000034004C00440044004C00340004000479
:1007F000000000000058006400400040004000403D
:100800000000000000000000003800440030000834
:100810000044003800000000002000200078002084
:100820000020002000200018000000000000000050
:100830000044004400440044004C00340000000028
:100840000000000000440044002800280028001098
:100850000000000000000000005400540054006C30
:1008600000280028000000000000000000440028CC
:1008700000100010002800440000000000000000EC
:100880000044004400280028001000100010006000
:1008900000000000007C0008001000200040007CE8
:1008A00000000000001800100010001000200020C0
:1008B00000100010001000180010001000100010B0
:1008C0000010001000100010001000100030001088
:1008D0000010001000080008001000100010003088
:1008E0000000000000000074004C00000000000048
:1008F00000000000000000000000000000000000F8
:1009000000000000000000000000000000000000E7
:1009100000000000000000000000000000000000D7
:100920000000000000000000E003E003E003E0033B
:10093000E003E003E003E003C003C003C001C00123
:10094000C001C001C001000000000000E003E0039E
:10095000E003000000000000000000003C1E3C1E00
:100960003C1E3C1E3C1E3C1E3C1E000000000000C5
:100970000000000000000000000000000000000077
:100980000000000000000000000000000000000067
:10099000CE01CE03DE039E039C039C07FF3FFF7F37
:1009A0003807380F780F780F780EFFFFFFFFF01E23
:1009B000F01CE01CE03CE03DE039000000000000DD
:1009C00000000000FC03FE0FEE1FE01EE01EE01E14
:1009D000E01EE01FE00FE007F003FC01FE01FE0156
:1009E000FE01FE01FE01FE01FE3DFC3FF00FE001B5
:1009F000E001000000000000033E07F78FE78EE7EC
:100A00009EE3BCE3B8E7F8E7F0F7E03FC001FF037F
:100A1000FF07F307F30FF31EF33CF338F3787FF08F
:100A20003FE000000000000000000000E007F80FB9
:100A3000780F781F781F781F780FF00FE00F801F56
:100A4000C37FC3FBE7F3F7F1F7F0FFF07FF03EF869
:100A50007F7CFF3FEF1F000000000000000000004F
:100A6000E003E003E003E003E003C003C001000093
:100A70000000000000000000000000000000000076
:100A80000000000000000000000000000000000066
:100A9000000000003F007C00F001E001C003C0073F
:100AA00080078007800F000F000F000F000F000F5E
:100AB000000F800F80078007C007C003E001F0012E
:100AC0007C003F000F000000007E001FC007C00335
:100AD000E001F001F000F000F80078007800780004
:100AE000780078007800F800F000F000F001E001F4
:100AF000C003C007001F007E00780000E003C003B1
:100B0000C001CE39FF3F7F3F20037003F807780F05
:100B10003C1F38060000000000000000000000003C
:100B200000000000000000000000000000000000C5
:100B3000000000000000000000000000C001C00133
:100B4000C001C001C001C001C001FFFFFFFFC00123
:100B5000C001C001C001C001C001000000000000D0
:100B60000000000000000000000000000000000085
:100B70000000000000000000000000000000000075
:100B8000000000000000E003E003E003E003E001F8
:100B9000E001E001C001800300000000000000004F
:100BA0000000000000000000000000000000FE3F08
:100BB000FE3F0000000000000000000000000000F8
:100BC0000000000000000000000000000000000025
:100BD0000000000000000000000000000000000015
:100BE0000000000000000000000000000000E00322
:100BF000E003E003E003000000000000000000004C
:100C00000F000F001E001E003C003C007800780022
:100C1000F000F000E001E001C003C003800780079E
:100C2000000F000F001E001E003C003C0078007802
:100C300000F00000F007F80F7C1F3E3E1E3C1F7CBA
:100C40001F7C0F780F780F780F780F780F780F7858
:100C50001F7C1F7C1E3C3E3E7C1FF80FF0070000EF
:100C60000000000000000000F000F007F03FF03F3F
:100C7000F001F001F001F001F001F001F001F001EC
:100C8000F001F001F001F001F001F001F001FF3F8F
:100C9000FF3F00000000000000000000E00FF83FF0
:100CA0007C3C3C003E003E003E003C003C007C00A2
:100CB000F800F001E003C0078007000F001E003EAF
:100CC000003CFE3FFE3F000000000000000000006E
:100CD000F00FF81F7C1C3E003E003E003C003C0034
:100CE000F800F00FF80F7C003E001E001E001E00F2
:100CF0001E003E007C1CF81FE01F000000000000EA
:100D0000000000007800F800F800F801F803F80788
:100D1000F807780F781E781E783C78787878FFFF8F
:100D2000FFFF7800780078007800780078000000F5
:100D30000000000000000000FC1FFC1FFC1F001E44
:100D4000001E001E001E001EE01FF81FFC007C009D
:100D50003E003E001E003E003E003C007C1CF81F92
:100D6000E01F00000000000000000000FC01FE0782
:100D70008E0F001F001E003E003C003CF83DFC3F73
:100D80003E7F1F7E0F3C0F3C0F3C0F3C0F3E1F1E53
:100D90003E1FFC0FF00300000000000000000000F8
:100DA000FF3FFF3FFF3F0F001E001E003C003800CA
:100DB0007800F000F000E001E001C003C00380070C
:100DC000800F800F000F001F001F000000000000B8
:100DD00000000000F807FC0F3E1F1E1E1E3E1E3EB8
:100DE0001E1E3C1FF80FF007F80FFC1E3E3E1F3C76
:100DF0001F7C0F7C0F7C1F3C3E3FFC1FF007000058
:100E00000000000000000000F007F80F7C1E3E3CD0
:100E10001E3C1F7C1F7C1F7C1F7C1F3C3F3EFF1F16
:100E2000EF071F001E001E003E003C00F838F03F98
:100E3000E01F0000000000000000000000000000B3
:100E40000000000000000000E003E003E003E00316
:100E50000000000000000000000000000000E003AF
:100E6000E003E003E00300000000000000000000D9
:100E7000000000000000000000000000E003E003AC
:100E8000E003E0030000000000000000000000009C
:100E90000000E003E003E003E003E001E001E00123
:100EA000C0038003000000000000000000000000FC
:100EB00003000F003F00FC00F003C00F003F00FEE6
:100EC000003FC00FF003FC003F000F0003000000D4
:100ED0000000000000000000000000000000000012
:100EE000000000000000000000000000FFFFFFFF06
:100EF000000000000000FFFFFFFF000000000000F6
:100F000000000000000000000000000000000000E1
:100F1000000000000000000000E000F8007E801FDC
:100F2000E007F8017E001F007E00F801E007801F47
:100F3000007E00F800E0000000000000000000005B
:100F4000F01FFC3F3E381F381F381E001E003C00BB
:100F50007800F000E001C003C003C007C007000034
:100F600000000000C007C007C0070000000000002C
:100F700000000000F803FE0F1E1F0F3E7F3CFF78AD
:100F8000EF79C773C7F38FF38FF38FF39FF39FF35B
:100F9000FF73FF7BF779003C1C1FFC0FF803000078
:100FA0000000000000000000000000000000E0035E
:100FB000E003F007F007F007780F780F7C0E3C1E77
:100FC0003C1E3E3CFE3FFF3F1F780F780FF007F0BE
:100FD00007F000000000000000000000000000001A
:100FE0000000F83FFC3F3E3C1E3C1E3C1E3C3E3C8D
:100FF0007C3CF03FF83F7E3C1F3C1F3C0F3C0F3CCD
:101000001F3CFE3FF83F0000000000000000000011
:10101000000000000000FF01FF07871F003E003CAA
:10102000007C00780078007800780078007C007CF4
:10103000003E003F831FFF07FF010000000000008B
:1010400000000000000000000000F07FFC7F7E78C0
:101050001F781F780F780F780F780F780F780F7838
:101060000F780F781F781E787E78F87FE07F000079
:101070000000000000000000000000000000FF3F32
:10108000FF3F003E003E003E003E003E003EFE3F71
:10109000FE3F003E003E003E003E003E003EFF3F61
:1010A000FF3F000000000000000000000000000002
:1010B0000000FF1FFF1F001E001E001E001E001E5E
:1010C000001EFF1FFF1F001E001E001E001E001E30
:1010D000001E001E001E00000000000000000000B6
:1010E000000000000000FE03FF0F871F003E007C91
:1010F000007C007800F800F87FF87FF80F780F7C0C
:101100000F7C0F3E8F1FFF0FFE030000000000004A
:10111000000000000000000000001F7C1F7C1F7CFE
:101120001F7C1F7C1F7C1F7C1F7CFF7FFF7F1F7C21
:101130001F7C1F7C1F7C1F7C1F7C1F7C1F7C000072
:101140000000000000000000000000000000FF3F61
:10115000FF3FE003E003E003E003E003E003E0031C
:10116000E003E003E003E003E003E003E003FF3F0C
:10117000FF3F000000000000000000000000000031
:101180000000FC1FFC1F7C007C007C007C007C00BD
:101190007C007C007C007C007C007C007800780077
:1011A000F838F03FC03F00000000000000000000E1
:1011B0000000000000001F3C1E3C3C3C783CF03C22
:1011C000E03DE03FC03F803FC03FE03FF03DF03CAE
:1011D000783C7C3C3E3C1F3C0F3C00000000000083
:1011E00000000000000000000000003E003E003E45
:1011F000003E003E003E003E003E003E003E003EFF
:10120000003E003E003E003E003EFF3FFF3F00002C
:1012100000000000000000000000000000001FF8B7
:101220001FFC1FFC3FFE3FFE3FFE7FFF77FF77FF67
:10123000F7F7E7F7E7F3E7F3C7F307F007F007F08F
:1012400007F00000000000000000000000000000A7
:1012500000000F7C0F7C0F7E0F7F0F7F8F7F8F7FB3
:10126000CF7FEF7BEF79FF79FF78FF787F783F784A
:101270003F781F781F780000000000000000000089
:10128000000000000000F007FC1F3E3E1F7C0F78AE
:101290000F780FF80FF80FF80FF80FF80FF80F7816
:1012A0000F781F7C3E3EFC1FF0070000000000008E
:1012B00000000000000000000000FC3FFF3F1F3E58
:1012C0000F3E0F3E0F3E0F3E1F3E3F3EFC3FF03FA6
:1012D000003E003E003E003E003E003E003E00005C
:1012E0000000000000000000000000000000F00707
:1012F000FC1F3E3E1F7C0F780F780FF80FF80FF899
:101300000FF80FF80FF80F780F781F7C3E3EFC1F88
:10131000F8077C003F000F00030000000000000001
:101320000000F03FFC3F7E3C3E3C1E3C1E3C3E3CF1
:101330003C3CFC3CF03FE03FF03DF83C7C3C3E3C1C
:101340001E3C1F3C0F3C000000000000000000009D
:10135000000000000000FC07FE1F0E3E003C003CA9
:10136000003C003EC01FF80FFE037F001F000F006F
:101370000F001F203E3CFC3FF01F0000000000005B
:1013800000000000000000000000FFFFFFFFE0037E
:10139000E003E003E003E003E003E003E003E00335
:1013A000E003E003E003E003E003E003E003000008
:1013B00000000000000000000000000000000F7CA2
:1013C0000F7C0F7C0F7C0F7C0F7C0F7C0F7C0F7CC5
:1013D0000F7C0F7C0F7C0F7C1E3C1E3C3E3EFC1F96
:1013E000F007000000000000000000000000000006
:1013F000000007F007F007F80F780F7C1E3C1E3C3A
:101400001E3E3C1E3C1F781F780FF80FF007F007B8
:10141000F007E003E003000000000000000000000F
:1014200000000000000003E003F003F007F0E7F322
:10143000E7F3E7F3E773F77BF77FFF7F7F7F7F7F3C
:101440007E7F7E3F3E3E3E3E3E3E0000000000006E
:101450000000000000000000000007F80F7C1E3EA6
:101460003E3E3C1FF80FF007E007E003E003F00703
:10147000F80F7C0F7C1E3E3C1F780F780FF00000A9
:10148000000000000000000000000000000007F85D
:1014900007780F7C1E3C1E3E3C1F780FF80FF007AC
:1014A000E003E003E003E003E003E003E003E00324
:1014B000E003000000000000000000000000000049
:1014C0000000FF7FFF7F0F001F003E007C00F80040
:1014D000F000E001E003C007800F000F001E003E97
:1014E000007CFF7FFF7F0000000000000000000084
:1014F000FF07800780078007800780078007800735
:1015000080078007800780078007800780078007A3
:101510008007800780078007800780078007FF0714
:10152000FF07000000780078003C003C001E001E11
:10153000000F000F80078007C003C003E001E00137
:10154000F000F000780078003C003C001E001E0017
:101550000F000F0007000000F07FF000F000F00027
:10156000F000F000F000F000F000F000F000F000FB
:10157000F000F000F000F000F000F000F000F000EB
:10158000F000F000F000F07FF07F0000C000C0012C
:10159000C001E003E003F007F0077807780F380F89
:1015A0003C1E3C1E1E3C1E3C0F380F780778000086
:1015B000000000000000000000000000000000002B
:1015C000000000000000000000000000000000001B
:1015D000000000000000000000000000000000000B
:1015E00000000000000000000000FFFFFFFF0000FF
:1015F00000000000F00000000000000000000000FB
:1016000000000000000000000000000000000000DA
:1016100000000000000000000000000000000000CA
:1016200000000000000000000000000000000000BA
:1016300000000000F80FFC3F7C3C3E003E003E00F6
:10164000FE07FE1F3E3E3E7C3E783E7C7E7CFF3F9A
:10165000CF1F00000000000000000000003C003C24
:10166000003C003C003C003CF83DFE3F3E3F1F3E3E
:101670000F3C0F3C0F3C0F3C0F3C0F3C1F3C1E3CF3
:101680003E3FFC3FF03B0000000000000000000077
:10169000000000000000000000000000FE03FF0F3B
:1016A000871F003E003E003C007C007C007C003C2C
:1016B000003E003E871FFF0FFE03000000000000F9
:1016C000000000001F001F001F001F001F001F0060
:1016D000FF07FF1F3F3E1F3C1F7C1F7C1F7C1F78A6
:1016E0001F781F7C1F7C3F3C7F3EFF1FDF0F0000E9
:1016F00000000000000000000000000000000000EA
:1017000000000000F803FC0F3E1F1E3E1F3C1F7C24
:10171000FF7FFF7F007C007C003C003E071FFF0F27
:10172000FE0300000000000000000000FF01E103D4
:10173000C003C007C007C007FF7FFF7FC007C00707
:10174000C007C007C007C007C007C007C007C00761
:10175000C007C007C0070000000000000000000034
:10176000000000000000000000000000EF07FF1F65
:101770007F3E1F3C1F7C1F7C1F781F781F781F7CBB
:101780001F7C3F3C7F3EFF1FDF0F1E001E001E0020
:101790007C38F83F003C003C003C003C003C003CF6
:1017A000FC3DFE3F9E3F1F3F1F3E1F3C1F3C1F3C1A
:1017B0001F3C1F3C1F3C1F3C1F3C1F3C1F3C0000AC
:1017C0000000000000000000F001F0010000000037
:1017D00000000000E07FE07FE001E001E001E001C7
:1017E000E001E001E001E001E001E001E001E001F1
:1017F000E00100000000000000000000F800F80018
:101800000000000000000000F83FF83FF800F8007A
:10181000F800F800F800F800F800F800F800F80008
:10182000F800F800F800F800F800F000F071E07F30
:10183000003C003C003C003C003C003C1F3C3E3C6B
:101840007C3CF83CF03DE03DC03FC03FE03FF03D18
:10185000F83C7C3C3E3C1F3C1F3C0000000000006C
:1018600000000000F07FF001F001F001F001F00154
:10187000F001F001F001F001F001F001F001F001E0
:10188000F001F001F001F001F001F001F0010000C1
:101890000000000000000000000000000000000048
:1018A000000000009EF7FFFFFFFFFFFFE7FBE7F9E7
:1018B000C7F1C7F1C7F1C7F1C7F1C7F1C7F1C7F168
:1018C000C7F1000000000000000000000000000060
:1018D0000000000000000000FC3DFE3F9E3F1F3F57
:1018E0001F3E1F3C1F3C1F3C1F3C1F3C1F3C1F3C1E
:1018F0001F3C1F3C1F3C00000000000000000000D7
:10190000000000000000000000000000F007FC1FC5
:101910003E3E1F3C1F7C0F780F780F780F780F78B2
:101920001F7C1F3C3E3EFC1FF00700000000000033
:1019300000000000000000000000000000000000A7
:10194000F83DFE3F3E3F1F3E0F3C0F3C0F3C0F3C1F
:101950000F3C0F3C1F3C1E3E3E3FFC3FF83F003C0F
:10196000003C003C003C003C000000000000000087
:1019700000000000EE07FE1F7E3E1E3C1E7C1E780F
:101980001E781E781E781E781E7C3E7C7E3EFE1FD2
:10199000DE0F1E001E001E001E001E0000000000C4
:1019A00000000000000000007F1FFF1FE71FC71F8F
:1019B000871F001F001F001F001F001F001F001FA8
:1019C000001F001F001F00000000000000000000BA
:1019D000000000000000000000000000FC07FE1FE7
:1019E0000E1E003E003E003FE01FFC07FE003E00D2
:1019F0001E001E003E3CFC3FF01F000000000000E7
:101A00000000000000000000000080078007800741
:101A1000FF7FFF7F800780078007800780078007A0
:101A20008007800780078007C007FF03FF010000D1
:101A300000000000000000000000000000000000A6
:101A4000000000001E3C1E3C1E3C1E3C1E3C1E3C7A
:101A50001E3C1E3C1E3C1E3C3E3C7E3CFE3EFE1F91
:101A6000DE0F000000000000000000000000000089
:101A7000000000000000000007F00F780F781E3C07
:101A80001E3C1E3E3C1E3C1E780F780FF00FF007E8
:101A9000F007E003E0030000000000000000000089
:101AA00000000000000000000000000003F0E3F16F
:101AB000E3F3E7F3F7F3F7F3F77F777F7F7F7F7F3A
:101AC0007F7F3E3E3E3E3E3E3E3E00000000000028
:101AD0000000000000000000000000000000000006
:101AE0000F7C1E3E3C3E3C1FF80FF007F007E00362
:101AF000F007F807F80F7C1E3E3E1F3C1F780000E1
:101B000000000000000000000000000000000000D5
:101B10000000000007F80F780F7C1E3C1E3C3C1EA6
:101B20003C1E3C1F780FF80FF007F007E003E003BE
:101B3000C003C003C0038007800F007F00000000C7
:101B40000000000000000000FF3FFF3F1F003E00BC
:101B50007C00F800F001E003C007800F001F001EAA
:101B6000003CFF7FFF7F000000000000000000003D
:101B7000FE01E003C003C003C003C003E001E001B5
:101B8000E001C001C003803F803FC003C001E0010D
:101B9000E001E001C003C003C003C003E003FE0195
:101BA0007E000000C001C001C001C001C001C00131
:101BB000C001C001C001C001C001C001C001C0011D
:101BC000C001C001C001C001C001C001C001C0010D
:101BD000C001C001C0010000C03FE003E001E0011E
:101BE000E001E001C001C003C003C001E001FE004C
:101BF000FE00E001C001C003C003C001E001E0013C
:101C0000E001E001E003C03F003F000000000000F1
:101C100000000000000000000000000000000000C4
:101C20000000073FC77FE773FFF17EF00000000070
:101C300000000000000000000000000000000000A4
:101C4000124901220A70B5EE400AF1EE10FA02D1F3
:101C5000B7EE000A704700220A7080B200EE900AC8
:101C6000F8EE600A80EE800A704708480121017092
:101C7000B5EE400AF1EE10FA02D1B7EE000A704755
:101C80000021017080EE800A70470000E4B7012057
:101C90002DE9F047ADF5447D8246DFF8EC1D01F0FB
:101CA000C7FCDFF8E84D6060DFF8E45D05F5197604
:101CB000DFF8E08DDFF8E07D002800F0F68000F22C
:101CC0000B0060600178412904D077D343294DD0BF
:101CD00026D373E000216170801C60600BE0C25568
:101CE000581C6060481C6070616809780D2902D139
:101CF000C0B20021C15563681A780D2A03D06178FB
:101D000008460928EBDB384601F094FC80B2DFF886
:101D10008C1D91ED110AFFF793FF86ED1B0A55E02C
:101D200000216170801C60600BE0C255581C60602F
:101D3000481C6070616809780D2902D1C0B2002189
:101D4000C15563681A780D2A03D0617808460928BE
:101D5000EBDB384601F06EFC80B2DFF8401D91ED00
:101D6000120AFFF76DFF86ED1E0A2FE00021617059
:101D7000801C60600BE0C255581C6060481C60709D
:101D8000616809780D2902D1C0B20021C15563688C
:101D90001A780D2A03D0617808460928EBDB38460B
:101DA00001F048FC80B2DFF8F41C91ED130AFFF754
:101DB00047FF05F5397080ED010A07E04FF47A73AB
:101DC0000722DFF8DC1C404601F083FC284602F0C5
:101DD00084F800A802F0DBF8284600A94FF443720B
:101DE00002F0A0FD706F02F0D9FDCDE90201306F65
:101DF00002F0D4FDCDE90001F06E02F0CFFD024605
:101E00000B460FF6AC41384602F0F4FD384602F0BE
:101E10000BFE02464FF47A7392B23946404601F007
:101E200058FCD5F8E40202F0B9FDCDE90201F06FEB
:101E300002F0B4FDCDE90001B06F02F0AFFD024643
:101E40000B460FF68441384602F0D4FD384602F0C6
:101E5000EBFD4FF47A73024692B23946404601F0E8
:101E600038FC05F53979D9F80C0002F097FDCDE979
:101E70000201D9F8080002F091FDCDE90001D9F87E
:101E8000040002F08BFD02460B460FF65441384623
:101E900002F0B0FD384602F0C7FD4FF47A730246F7
:101EA00092B23946404601F014FC0FF6F831504624
:101EB00001F0BEFB6060002800F0128100F20B0010
:101EC00060600178412905D0C0F0938043295FD03C
:101ED0002FD38EE000216170801C60600BE0C25542
:101EE000581C6060481C6070616809780D2902D137
:101EF000C0B20021C15563681A780D2A03D06178F9
:101F000008460928EBDB384602F0A9FD51EC100B1E
:101F100002F0AEFD00EE900ADFF8800B90ED110AA2
:101F200096ED1B1A20EE010AFFF79FFE86ED1D0AB3
:101F300067E000216170801C60600BE0C255581C96
:101F40006060481C6070616809780D2902D1C0B2D8
:101F50000021C15563681A780D2A03D061780846BC
:101F60000928EBDB384602F07AFD51EC100B02F049
:101F70007FFD00EE900ADFF8240B90ED120A96ED3B
:101F80001E1A20EE010AFFF770FE85EDB90A38E04F
:101F900000216170801C60600BE0C255581C6060BD
:101FA000481C6070616809780D2902D1C0B2002117
:101FB000C15563681A780D2A03D06178084609284C
:101FC000EBDB384602F04BFD05F5397951EC100B8F
:101FD00002F04EFD00EE900ADFF8C00A90ED130A01
:101FE00099ED011A20EE010AFFF73FFE89ED030A81
:101FF00007E04FF47A730722DFF8A41A404601F095
:1020000068FB284601F069FF00A801F0C0FF2846E0
:1020100000A94FF4437202F085FC706F02F0BEFC21
:10202000CDE90201306F02F0B9FCCDE90001F06E9C
:1020300002F0B4FC02460B460FF67421384602F05B
:10204000D9FC384602F0F0FC4FF47A73024692B2A3
:102050003946404601F03DFBD5F8E40202F09EFC13
:10206000CDE90201F06F02F099FCCDE90001B06FFB
:1020700002F094FC02460B460FF64C21384602F063
:10208000B9FC384602F0D0FC4FF47A73024692B2A3
:102090003946404601F01DFB05F53979D9F80C00A9
:1020A00002F07CFCCDE90201D9F8080002F076FCD0
:1020B000CDE90001D9F8040002F070FC02460B469D
:1020C0000FF61C21384602F095FC384602F0ACFCB5
:1020D0004FF47A73024692B23946404601F0F9FA5B
:1020E0000FF61421504601F0A3FA6060002800F0BA
:1020F000EE8000F20B0060600178412904D075D3B6
:1021000043294DD026D371E000216170801C6060AE
:102110000BE0C255581C6060481C6070616809780B
:102120000D2902D1C0B20021C15563681A780D2A69
:1021300003D0617808460928EBDB384601F07AFACB
:1021400080B2DFF8581991ED0E0AFFF779FD86EDA0
:10215000120A53E000216170801C60600BE0C255E0
:10216000581C6060481C6070616809780D2902D1B4
:10217000C0B20021C15563681A780D2A03D0617876
:1021800008460928EBDB384601F054FA80B2DFF844
:102190000C1991ED0F0AFFF753FD86ED150A2DE09E
:1021A00000216170801C60600BE0C255581C6060AB
:1021B000481C6070616809780D2902D1C0B2002105
:1021C000C15563681A780D2A03D06178084609283A
:1021D000EBDB384601F02EFA80B2DFF8C01891ED43
:1021E000100AFFF72DFD86ED180A07E04FF47A7309
:1021F0000722DFF8AC18404601F06BFA284601F0E0
:102200006CFE00A801F0C3FE284600A94FF44372FB
:1022100002F088FB306D02F0C1FBCDE90201F06CE9
:1022200002F0BCFBCDE90001B06C02F0B7FB024646
:102230000B460FF6DC01384602F0DCFB384602F0B4
:10224000F3FB4FF47A73024692B23946404601F0EE
:1022500040FAF06D02F0A2FBCDE90201B06D02F090
:102260009DFBCDE90001706D02F098FB02460B4624
:102270000FF6B401384602F0BDFB384602F0D4FB3D
:102280004FF47A73024692B23946404601F021FA81
:10229000B06E02F083FBCDE90201706E02F07EFBAE
:1022A000CDE90001306E02F079FB02460B460FF6D5
:1022B0009001384602F09EFB384602F0B5FB4FF421
:1022C0007A73024692B23946404601F002FA0FF69E
:1022D0003401504601F0ACF96060002800F00A813A
:1022E00000F20B0060600178412905D0C0F09180B8
:1022F00043295FD02FD38CE000216170801C606087
:102300000BE0C255581C6060481C60706168097819
:102310000D2902D1C0B20021C15563681A780D2A77
:1023200003D0617808460928EBDB384602F097FBBA
:1023300051EC100B02F09CFB00EE900ADFF85C07FA
:1023400090ED0E0A96ED121A20EE010AFFF78DFCB1
:1023500086ED140A65E000216170801C60600BE06E
:10236000C255581C6060481C6070616809780D296E
:1023700002D1C0B20021C15563681A780D2A03D07A
:10238000617808460928EBDB384602F068FB51EC1F
:10239000100B02F06DFB00EE900ADFF8000790EDE5
:1023A0000F0A96ED151A20EE010AFFF75EFC86ED86
:1023B000170A36E000216170801C60600BE0C25596
:1023C000581C6060481C6070616809780D2902D152
:1023D000C0B20021C15563681A780D2A03D0617814
:1023E00008460928EBDB384602F039FB51EC100BAC
:1023F00002F03EFB00EE900ADFF8A00690ED100A16
:1024000096ED181A20EE010AFFF72FFC86ED1A0A46
:1024100007E04FF47A7307220FF6C051404601F0EF
:1024200058F9284601F059FD00A801F0B0FD2846F2
:1024300000A94FF4437202F075FA306D02F0AEFA63
:10244000CDE90201F06C02F0A9FACDE90001B06C0F
:1024500002F0A4FA02460B460FF2B461384602F0CD
:10246000C9FA384602F0E0FA4FF47A73024692B2A3
:102470003946404601F02DF9F06D02F08FFACDE9B2
:102480000201B06D02F08AFACDE90001706D02F030
:1024900085FA02460B460FF29061384602F0AAFA1E
:1024A000384602F0C1FA4FF47A73024692B23946C6
:1024B000404601F00EF9B06E02F070FACDE902016B
:1024C000706E02F06BFACDE90001306E02F066FA30
:1024D00002460B460FF26861384602F08BFA384626
:1024E00002F0A2FA4FF47A73024692B2394640469D
:1024F00001F0EFF80FF6EC41504601F099F86060FA
:10250000002801D000F028FB0FF6E441504601F00E
:102510008FF86060002801D000F008FC0FF6D84169
:10252000504601F085F86060002807D04FF47A73B8
:1025300017220FF6CC41404601F0CBF80FF6D841F8
:10254000504601F075F86060002809D001F008FDE0
:102550004FF47A7323220FF6CC41404601F0B9F8CC
:102560000FF6E441504601F063F86060002800F087
:10257000658100F20B0060600178312906D0C0F05F
:102580005D81332900F0E88073D357E10021617049
:10259000801C60600FE0401980F86B21581C60605F
:1025A000481C6070616809782C2904D1C0B24019B8
:1025B000002180F86B1163681A782C2A03D06178A7
:1025C00008463F28E7DB581C6060002060700FE081
:1025D000401980F8AB21581C6060481C607061682D
:1025E00009782C2904D1C0B24019002180F8AB1120
:1025F00063681A782C2A03D0617808463F28E7DB05
:10260000581C6060002060700BE0C255581C606070
:10261000481C6070616809780D2902D1C0B20021A0
:10262000C15563681A780D2A03D0617808460928D5
:10263000EBDB384600F0FEFFA5F8BC01284601F0B0
:102640004CFCB5F8BC01009005F2AB1305F26B121F
:102650000FF60041384602F0CDF9384602F0E4F9B1
:102660004FF47A73024692B23946404601F031F88F
:10267000E4E000216170801C60600FE0401980F888
:10268000BF21581C6060481C6070616809782C2963
:1026900004D1C0B24019002180F8BF1163681A78D4
:1026A0002C2A03D0617808463F28E7DB581C60607D
:1026B000002060700FE0401980F8FF21581C606016
:1026C000481C6070616809782C2904D1C0B2401997
:1026D000002180F8FF1163681A782C2A03D06178F2
:1026E00008463F28E7DB581C6060002060700BE064
:1026F000C255581C6060481C6070616809780D29DB
:1027000002D1C0B20021C15563681A780D2A03D0E6
:10271000617808460928EBDB384600F08BFFA5F806
:102720001002284601F0D9FBB5F81002009005F21E
:10273000FF1305F2BF120FF63431384602F05AF992
:10274000384602F071F94FF47A73024692B2394674
:10275000404600F0BEFF71E000216170801C6060A7
:102760000FE0401980F81322581C6060481C60700C
:10277000616809782C2904D1C0B24019002180F881
:10278000131263681A782C2A03D0617808463F2810
:10279000E7DB581C6060002060700FE0401980F893
:1027A0005322581C6060481C6070616809782C29AD
:1027B00004D1C0B24019002180F8531263681A781E
:1027C0002C2A03D0617808463F28E7DB581C60605C
:1027D000002060700BE0C255581C6060481C60709F
:1027E000616809780D2902D1C0B20021C155636822
:1027F0001A780D2A03D0617808460928EBDB3846A1
:1028000000F018FFA5F86402284601F066FBB5F851
:102810006402009005F2532305F213220FF664219F
:10282000384602F0E7F8384602F0FEF84FF47A73C3
:10283000024692B23946404600F04BFF0FF65C214B
:10284000504600F0F5FE6060002800F0188100F2AC
:102850000900606000202070024602E0C255481C5A
:102860002070217808460C28F8DB6068017831294F
:1028700006D0C0F00481332900F0AC8055D3FEE0CF
:1028800011466170801C60600FE0401980F84420A0
:10289000581C6060481C6070616809782C2904D15C
:1028A000C0B24019002180F8441063681A782C2ABD
:1028B00003D0617808463F28E7DB581C60600020A1
:1028C00060700FE0401980F88420581C6060481C3C
:1028D0006070616809780D2904D1C0B240190021E7
:1028E00080F8841063681A780D2A03D0617808464E
:1028F0001F28E7DB284601F0F0FA05F1840305F113
:1029000044020FF6A411384602F074F8384602F07B
:102910008BF84FF47A73024692B2394640460DF571
:10292000447DBDE8F04700F0D4BE11466170801CC4
:1029300060600FE0401980F8A620581C6060481CB9
:102940006070616809782C2904D1C0B24019002157
:1029500080F8A61063681A782C2A03D0617808469C
:102960003F28E7DB581C6060002060700FE04019D2
:1029700080F8E620581C6060481C60706168097827
:102980000D2904D1C0B24019002180F8E610636817
:102990001A780D2A03D0617808461F28E7DB2846FD
:1029A00001F09BFA05F1E60305F1A6020FF60C1102
:1029B000384602F01FF8384602F036F84FF47A73C2
:1029C000024692B2394640460DF5447DBDE8F047D7
:1029D00000F07FBE11466170801C60600FE04019FE
:1029E00080F80821581C6060481C60706168097894
:1029F0002C2904D1C0B24019002180F80811636865
:102A00001A782C2A03D0617808463F28E7DB581C47
:102A10006060002060700FE0401980F84821581C69
:102A20006060481C6070616809780D2904D1C0B2EB
:102A30004019002180F8481163681A780D2A03D0E4
:102A4000617808461F28E7DB284601F046FA05F5BD
:102A5000A47305F584720FF67801384601F0CAFFB9
:102A6000384601F0E1FF4FF47A73024692B23946DC
:102A700040460DF5447DBDE8F04700F02ABE0DF557
:102A8000447DBDE8F0870000F8F700084CDF012026
:102A9000D8B4012008DE0120F0D80120E4B70120DD
:102AA000DC31000841542B434C4241434352000067
:102AB0004375727220413A204B3D256620423D25E8
:102AC0006620523D25660A004375727220423A2004
:102AD0004B3D256620423D256620523D25660A0075
:102AE0004375727220433A204B3D256620423D25B6
:102AF0006620523D25660A0041542B434C42414317
:102B0000564B000041542B434C4241435652000067
:102B1000566F6C7420413A204B3D256620423D257E
:102B20006620523D25660A00566F6C7420423A209A
:102B30004B3D256620423D256620523D25660A0014
:102B4000566F6C7420433A204B3D256620423D254C
:102B50006620523D25660A007CB5DFF86C460FF210
:102B60008471204601F046FF204601F05DFFDFF84A
:102B70005C564FF47A73024692B22146284600F022
:102B8000A8FD0FF26C71204601F034FF204601F0E1
:102B90004BFF02464FF47A7392B22146284600F06A
:102BA00098FD0FF278720FF26471204601F022FF57
:102BB000204601F039FF4FF47A73024692B2214663
:102BC000284600F086FDDFF808260FF264712046E3
:102BD00001F010FF204601F027FF4FF47A73024600
:102BE00092B22146284600F074FDDFF8E86506F150
:102BF000840306F144020FF24471204601F0FAFE0C
:102C0000204601F011FF4FF47A73024692B221463A
:102C1000284600F05EFD06F1E60306F1A6020FF27B
:102C20003471204601F0E6FE204601F0FDFE4FF42F
:102C30007A73024692B22146284600F04AFD06F514
:102C4000A47306F584720FF22471204601F0D2FEBF
:102C5000204601F0E9FE4FF47A73024692B2214613
:102C6000284600F036FD06F266220FF21871204663
:102C700001F0C0FE204601F0D7FE4FF47A73024601
:102C800092B22146284600F024FDB6F8BC0101901E
:102C900006F2AB10009006F26B1396F86A210FF261
:102CA000F061204601F0A6FE204601F0BDFE4FF483
:102CB0007A73024692B22146284600F00AFDB6F821
:102CC0001002019006F2FF10009006F2BF1396F872
:102CD000BE210FF2EC61204601F08CFE204601F08F
:102CE000A3FE4FF47A73024692B22146284600F0C2
:102CF000F0FCB6F86402019006F25320009006F250
:102D0000132396F812220FF2E861204601F072FEBA
:102D1000204601F089FE4FF47A73024692B22146B2
:102D2000284602B0BDE8704000F0D3BC2DE9F04366
:102D300083B0DFF894440FF2E861204601F05AFEB8
:102D4000204601F071FEDFF884544FF47A73024696
:102D500092B22146284600F0BCFC0FF2C0530FF29D
:102D6000E0620FF2C861204601F044FE204601F007
:102D70005BFE02464FF47A7392B22146284600F079
:102D8000A8FCDFF8548408F10C06706A01F006FE16
:102D9000CDE90001F06901F001FE02460B460FF299
:102DA000B461204601F026FE204601F03DFE4FF4BE
:102DB0007A73024692B22146284600F08AFCB06B34
:102DC00001F0ECFDCDE90001F06A01F0E7FD0246FB
:102DD0000B460FF2A061204601F00CFE204601F0E8
:102DE00023FE4FF47A73024692B22146284600F041
:102DF00070FCDFF8E09309F52B7796ED0E0AD7ED1E
:102E0000090A20EE200AD7ED0B0A20EE200A10EE68
:102E1000100A01F0C3FDCDE9000196ED0B0AD9EDD2
:102E2000AB0A20EE200AD7ED020A20EE200A10EEAF
:102E3000100A01F0B3FD02460B460FF25061204626
:102E400001F0D8FD204601F0EFFD4FF47A73024601
:102E500092B22146284600F03CFC96ED0F0AD7EDD1
:102E60000C0A20EE200AD7ED0E0A20EE200A10EE02
:102E7000100A01F093FDCDE9000196ED0C0AD7EDA3
:102E8000030A20EE200AD7ED050A20EE200A10EEF4
:102E9000100A01F083FD02460B460FF2086120463E
:102EA00001F0A8FD204601F0BFFD4FF47A73024601
:102EB00092B22146284600F00CFC96ED100AD7EDA0
:102EC0000F0A20EE200AD7ED110A20EE200A10EE9C
:102ED000100A01F063FDCDE9000196ED0D0AD7ED72
:102EE000060A20EE200AD7ED080A20EE200A10EE8E
:102EF000100A01F053FD02460B460FF2C051204666
:102F000001F078FD204601F08FFD4FF47A73024600
:102F100092B22146284600F0DCFBD8F80C0001F004
:102F20003DFD02460B460FF2AC51204601F062FD1A
:102F3000204601F079FD4FF47A73024692B22146A1
:102F4000284600F0C6FB706801F028FD02460B46DB
:102F50000FF29451204601F04DFD204601F064FD32
:102F60004FF47A73024692B22146284600F0B1FB34
:102F7000B06801F013FD02460B460FF28051204667
:102F800001F038FD204601F04FFD4FF47A73024600
:102F900092B22146284600F09CFBF06801F0FEFC4E
:102FA00002460B460FF26851204601F023FD2046F1
:102FB00001F03AFD4FF47A73024692B22146284658
:102FC00000F087FB306901F0E9FC02460B460FF286
:102FD0005451204601F00EFD204601F025FD4FF42E
:102FE0007A73024692B22146284600F072FB70695D
:102FF00001F0D4FC02460B460FF23C51204601F092
:10300000F9FC204601F010FD4FF47A73024692B2AB
:103010002146284600F05DFBB06901F0BFFC024686
:103020000B460FF22851204601F0E4FC204601F047
:10303000FBFC4FF47A73024692B22146284600F018
:1030400048FB98F8500000F001020FF2145120469E
:1030500001F0D0FC204601F0E7FC4FF47A73024601
:1030600092B22146284600F034FB98F85000C0F395
:1030700040020FF20051204601F0BCFC204601F056
:10308000D3FC4FF47A73024692B22146284600F0F0
:1030900020FB98F85000C0F380020FF2EC4120466C
:1030A00001F0A8FC204601F0BFFC4FF47A73024601
:1030B00092B22146284600F00CFB98F85000C0F36D
:1030C000C0020FF2D841204601F094FC204601F0E6
:1030D000ABFC4FF47A73024692B22146284600F0C8
:1030E000F8FA98F85000C0F300120FF2C4412046DD
:1030F00001F080FC204601F097FC4FF47A73024601
:1031000092B22146284600F0E4FA98F85000C0F345
:1031100040120FF2B041204601F06CFC204601F055
:1031200083FC4FF47A73024692B22146284600F09F
:10313000D0FA98F85000C0F380120FF29C4120465C
:1031400001F058FC204601F06FFC4FF47A73024600
:1031500092B22146284600F0BCFA98F85000C20905
:103160000FF28841204601F045FC204601F05CFC4E
:103170004FF47A73024692B22146284600F0A9FA2B
:103180000FF27C41204601F035FC204601F04CFC5A
:103190004FF47A73024692B22146284600F099FA1B
:1031A0000FF27441204601F025FC204601F03CFC62
:1031B0004FF47A73024692B22146284603B0BDE826
:1031C000F04300F086BA0000F0D8012008DE0120AC
:1031D00038B80120D8B40120E4B701200A45525282
:1031E0004F520A0041542B4E4554534554000000A1
:1031F00041542B4D4541530041542B53454E4400FF
:103200000A2B53454E44204E6F7420696D706C65D7
:103210006D656E7465640A0041542B5345544445F2
:10322000460000000A44656661756C74207365741D
:1032300074696E6773206C6F6164656420746F20BD
:10324000454550524F4D0A0041542B534554534568
:1032500052563D000A2B534554534552563D312C8E
:1032600025732C25732C25640A0000000A2B534576
:1032700054534552563D322C25732C25732C25640E
:103280000A0000000A2B534554534552563D332C37
:1032900025732C25732C25640A00000041542B5300
:1032A000455441503D0000000A2B53455441503DC8
:1032B000312C25732C25730A000000000A2B53457E
:1032C0005441503D322C25732C25730A0000000018
:1032D0000A2B53455441503D332C25732C25730A3A
:1032E000000000002B4E45545345540D0A000000C9
:1032F000436F6E63656E747261746F7220556E6990
:1033000076657273616C2D310D0A000046572056A8
:10331000657273696F6E2025730D0A005265762EF3
:10332000312E302031302E30372E323031390000FE
:1033300044697649443A2025730D0A004150313AD8
:1033400020535349443D25732C20506173733D2510
:10335000730D0A004150323A20535349443D2573BE
:103360002C20506173733D25730D0A004150333A90
:1033700020535349443D25732C20506173733D25E0
:10338000730D0A00444E53313D25730D0A000000B1
:10339000535256313A20456E61626C653D25642C6E
:1033A00020446F6D61696E3D25732C2049503D2589
:1033B000732C20506F72743D25640D0A00000000CC
:1033C000535256323A20456E61626C653D25642C3D
:1033D00020446F6D61696E3D25732C2049503D2559
:1033E000732C20506F72743D25640D0A000000009C
:1033F000535256333A20456E61626C653D25642C0C
:1034000020446F6D61696E3D25732C2049503D2528
:10341000732C20506F72743D25640D0A000000006B
:103420000A2B4D4541530D0A0000000048573A2031
:1034300025732C2046573A2025730D0A0000000002
:103440005265762E312E302031332E30362E3230EA
:103450003139000045787420706F7765723A202505
:103460002E3166562C20564241543A20252E316684
:10347000560D0A0041444320413A20252E3366561A
:103480002C20252E3366410D0A0000005068617320
:103490006520413A20252E3166562C20252E326695
:1034A000410D0A00506861736520423A20252E3193
:1034B00066562C20252E3266410D0A005068617335
:1034C0006520433A20252E3166562C20252E326663
:1034D000410D0A00444320496E5F303A20252E33C7
:1034E00066560D0A00000000444320496E5F313AE1
:1034F00020252E3366560D0A000000004443204963
:103500006E5F323A20252E3366560D0A0000000009
:10351000444320496E5F333A20252E3366560D0A08
:1035200000000000444320496E5F343A20252E33CA
:1035300066560D0A00000000444320496E5F353A8C
:1035400020252E3366560D0A000000004443204912
:103550006E5F363A20252E3366560D0A00000000B5
:10356000446973637265746520494E5F303A202563
:10357000640D0A00446973637265746520494E5F87
:10358000313A2025640D0A004469736372657465DD
:1035900020494E5F323A2025640D0A004469736366
:1035A0007265746520494E5F333A2025640D0A0028
:1035B000446973637265746520494E5F343A20250F
:1035C000640D0A00446973637265746520494E5F37
:1035D000353A2025640D0A00446973637265746589
:1035E00020494E5F363A2025640D0A004469736312
:1035F0007265746520494E5F373A2025640D0A00D4
:10360000537065656420313A203E313030303020CF
:103610006D730D0A00000000537065656420323A36
:10362000203E3130303030206D730D0A0000000034
:1036300001F066BA0A22002101F004BB10B50400B3
:1036400001D1012010BD94F83900002805D10020D7
:1036500084F83800204601F01CFE242084F839004C
:103660002068C16821F40051C160204600F0B7FA1B
:103670002068016921F4904101612068416921F0CD
:103680002A0141612068C16841F40051C1600020F5
:10369000E063202084F8390084F83A00002010BD4F
:1036A00010B5040001D1012010BD242084F8390098
:1036B0002068C16821F40051C160204601F0CAFEB3
:1036C0000020E06384F8390084F83A0084F8380078
:1036D00010BD2DE9F04182B004460D4616461F4646
:1036E00094F83900202857D1002D01D0002E01D1A7
:1036F000012052E094F8380001284DD0012084F8D0
:1037000038000020E063212084F8390001F036FF02
:103710008046A684E68403E0206815F8011B41601A
:10372000E08C002826D0E08C401EE084A068B0F534
:10373000805F0097434614D100228021204600F08C
:1037400071F9002801D0032027E020682988C905E5
:10375000C90D41602069002801D1AD1CE0E76D1C56
:10376000DEE700228021204600F05CF90028D3D05B
:10377000032012E00097434600224021204600F03B
:1037800051F9002801D0032007E0202084F83900F7
:10379000002084F8380000E00220BDE8F68190F8AF
:1037A0003A30202B2AD1002901D0002A01D1012052
:1037B000704790F83830012B01D102207047012367
:1037C00080F8383081628285C2850021C163222160
:1037D00080F83A10002180F838100168CA6842F475
:1037E0008072CA6001684A6942F001024A61006859
:1037F000C16841F02001C16000207047022070477D
:1038000010B5044694F83900202839D1002901D098
:10381000002A01D1012010BD94F83800012801D1FF
:10382000022010BD012084F838002162A284E284C5
:103830000020E063212084F83900206B0FF255133B
:10384000C363206B0FF27D130364206B0FF28113AF
:10385000C364206B0023036513462068021D206BA0
:1038600001F03EFF20686FF040010160002084F805
:1038700038002068416941F080014161002010BD9D
:10388000022010BD38B5044622681068D16852691C
:1038900010F00F0307D1850605D58D0603D5204608
:1038A000BDE8324050E1002B60D0D30702D411F4C0
:1038B000907F5BD00346DB0705D5CB0503D5E36BD3
:1038C00043F00103E363430706D51346DB0703D543
:1038D000E36B43F00203E363830706D51346DB077C
:1038E00003D5E36B43F00403E363030705D5D20775
:1038F00003D5E26B42F00802E263E26B002A45D096
:10390000800604D5880602D5204600F01DF92068FF
:103910004069800900F00100E16B090701D400282B
:103920001ED0204600F0BBF820684169490613D537
:10393000416921F040014161606B00280CD00FF219
:103940007D110165606B01F006FF00281ED0606BE1
:10395000016DBDE834400847204602F088F831BDCB
:10396000204602F084F80020E06331BD020605D550
:103970000A0603D52046BDE83240A7E0400605D53B
:10398000480603D52046BDE83240D0E031BD70473F
:103990007047000080B5816B00680068C0050CD4DA
:1039A0000020C8840868426922F0800242610868E9
:1039B000C16841F04001C16001BD084602F047F80E
:1039C00001BD000080B5806BFFF7E1FF01BD000085
:1039D00010B5846B20684069C00900F0010094F8BC
:1039E0003910212906D1002804D00020E084204687
:1039F00000F04CF820684069800900F0010094F85C
:103A00003A10222906D1002804D00020E085204663
:103A100000F045F8E06B40F01000E063204602F053
:103A200026F810BD2DE9F04104460D4616461F4606
:103A3000DDF81880206800682840A84201D10120E4
:103A400000E00020B0421ED118F1010FF2D0B8F111
:103A5000000F04D001F092FDC01B8045EAD220681F
:103A6000C16821F4D071C1602068416949084900EA
:103A70004161202084F8390084F83A00002084F85D
:103A80003800032000E00020BDE8F0810168CA682A
:103A900022F0C002CA60202180F839107047016806
:103AA000CA6822F49072CA6001684A6952085200DA
:103AB0004A61202180F83A107047000080B5806B81
:103AC0000021C185C18401F0D2FF01BD90F83910F9
:103AD00021292AD1016A8268B2F5805F0ED102687D
:103AE0000988C905C90D5160016A0269002A02D11D
:103AF000891C016207E0491C016204E04A1C026261
:103B0000026809785160C18C491EC18489B20029BC
:103B100009D10168CA6822F08002CA600068C168E1
:103B200041F04001C160002070470220704780B51D
:103B30000168CA6822F04002CA60202180F839106A
:103B400001F085FF002002BD80B590F83A102229CF
:103B500043D10269816A8368B3F5805F10D103683D
:103B6000002A5A6806D1D205D20D0A80816A891CC2
:103B7000816214E0D2B20A80816A491C81620EE03F
:103B8000002A05D14A1C8262026852680A7006E067
:103B90004A1C82620268526802F07F020A70C18D7C
:103BA000491EC18589B2002915D10168CA6822F071
:103BB0002002CA600168CA6822F48072CA60016883
:103BC0004A69520852004A61202180F83A10FFF7F2
:103BD000DFFE002002BD002002BD022002BD2DE953
:103BE000F04704462068016921F44051E26811431E
:103BF00001612068C1689B4A1140A2681143226993
:103C0000114362691143E2691143C160206841694F
:103C100021F44071A2691143416120689249E2692F
:103C2000B2F5004F40F08F80884202D08F49884221
:103C300044D102F004FA824602F001FA074602F08B
:103C4000FEF9804602F0FBF961684FEA41096425FC
:103C5000192606FB0AF1B1FBF9F12A46B1FBF2F194
:103C600006FB07F2B2FBF9F206FB08F3B3FBF9F32C
:103C70002F46B3FBF7F305FB1322D20032322B465B
:103C8000B2FBF3F202F0F802520002EB01177043AC
:103C9000B0FBF9F802F0D3F97043B0FBF9F0294614
:103CA000B0FBF1F005FB1080C0003230B0FBF1F04A
:103CB00000F00700C01921688860D0E002F0B4F974
:103CC000824602F0B1F9074602F0AEF9804602F0F2
:103CD000ABF961684FEA41096425192606FB0AF130
:103CE000B1FBF9F12A46B1FBF2F106FB07F2B2FB98
:103CF000F9F206FB08F3B3FBF9F32F46B3FBF7F336
:103D000005FB1322D20032322B46B2FBF3F202F053
:103D1000F802520002EB01177043B0FBF9F802F011
:103D200083F97043B0FBF9F02946B0FBF1F005FBD5
:103D30001080C0003230B0FBF1F000F00700C01975
:103D4000216888608BE0884202D04849884243D18C
:103D500002F075F9824602F072F9074602F06FF937
:103D6000804602F06CF961684FEA810964251926E2
:103D700006FB0AF1B1FBF9F12A46B1FBF2F106FBB1
:103D800007F2B2FBF9F206FB08F3B3FBF9F32F4697
:103D9000B3FBF7F305FB1322120132322B46B2FBC1
:103DA000F3F202F0F00202EB01177043B0FBF9F8F6
:103DB00002F045F97043B0FBF9F02946B0FBF1F091
:103DC00005FB108000013230B0FBF1F000F00F0075
:103DD000C0192168886042E002F026F9824602F0AC
:103DE00023F9074602F020F9804602F01DF96168C8
:103DF0004FEA81096425192606FB0AF1B1FBF9F1A6
:103E00002A46B1FBF2F106FB07F2B2FBF9F206FB20
:103E100008F3B3FBF9F32F46B3FBF7F305FB1322CB
:103E2000120132322B46B2FBF3F202F0F00202EB47
:103E300001177043B0FBF9F802F0F6F87043B0FBDD
:103E4000F9F02946B0FBF1F005FB1080000132309B
:103E5000B0FBF1F000F00F00C01921688860BDE8E8
:103E6000F0870000F369FFFF0010014000140140DB
:103E700010B501224FF40061DFF8FC0602F084FA6D
:103E8000DFF8F84601F07DFB206001F07DFB60600B
:103E900001F07DFBA0600FF2347104F10C0000F022
:103EA000A9FDC82002F002FB2068C0F30743C2B29C
:103EB0000FF2247104F10C0000F09CFD4FF4FA7035
:103EC00002F0F4FA0FF2247104F10C0000F092FDFC
:103ED0000A20BDE8104002F0E9BAFEB50446DFF85A
:103EE000A056002085F89403C82003F0B2FA0027FA
:103EF000DFF8906617E064230122A021304603F02A
:103F00007AFE0028F7D14FF4FA6002902020019049
:103F100004EB4710009010237A0192B2A0213046A2
:103F200003F07CFC7F1C182FE5D364230122A02121
:103F3000304603F060FE0028F7D14FF4FA6002909B
:103F40000C20019004F54070009010234FF4407253
:103F5000A021304603F062FC012085F89403F7BDF0
:103F600000B5ADF5437D00A80FF28C614FF44372AC
:103F700000F0D8FC00A8FFF7B0FFDFF8040600A9A6
:103F80004FF4437200F0CEFC0DF5437D00BD70B5DB
:103F9000ADF5467D0446DFF8E855002085F894032A
:103FA000C82003F056FADFF8DC654FF0FF3301223A
:103FB000A021304603F01FFE0028F6D14FF4FA602E
:103FC00002904FF44370019003A800901023002248
:103FD000A021304603F0C4FC012085F8940320465C
:103FE00003A94FF4437200F09DFC0DF5467D70BDB2
:103FF00010B5ADF5447DDFF89005016841F008018A
:104000000160FFF735FFDFF8844501224FF40041DE
:10401000204602F0B9F901220821204602F0B4F945
:1040200001221021204602F0AFF901222021204672
:1040300002F0AAF90021DFF8580504F040F900A8C1
:10404000FFF7A5FFDFF83845204600A94FF443727B
:1040500000F068FC0020C4F81003C4F8140384F8CE
:104060009303012084F89203B7EE000A04F5A760D9
:1040700004F082F9B7EE000A04F56A7004F07CF9E6
:10408000B7EE000A04F58E6004F076F9B7EE000A88
:1040900004F29C5004F070F9B7EE000A04F20C40F0
:1040A00004F06AF9B7EE000A04F2D44004F064F9AF
:1040B0000020DFF8E03410E0C0EBC0018900DFF839
:1040C000D8248B508918DFF8D4244A60DFF8D02434
:1040D0008A604FF08042CA60401C0B28ECDB0DF573
:1040E000447D10BD2DE9F8430446DFF8945495F85B
:1040F0000C0300283AD1002605F5437934E006EB9D
:104100004600870007EB0408B8F8081005F5A7601B
:1041100004F04BF989ED0E0A395B05F56A7004F07D
:1041200044F989ED0F0AB8F8041005F58E6004F023
:104130003CF989ED100AB8F80A1005F29C5004F019
:1041400034F989ED110AB8F8021005F20C4004F0B8
:104150002CF989ED120AB8F8061005F2D44004F0E3
:1041600024F989ED130A761C282EC8DBBDE8F183FB
:104170002DE9F0472DED028B0446DFF8046496F834
:104180000C03002840F04E81002506F54377DFF848
:1041900008A488E0162010FB05F808EB0409B9F81C
:1041A000140000EE100AB8EE400A0AF58C7004F014
:1041B00083F987ED0D0AB9F8120000EE100AB8EE87
:1041C000400A0AF1FC0004F077F987ED0C0AB9F80F
:1041D0000E0000EE100AB8EE400A0AF1C40004F026
:1041E0006BF987ED0A0AB9F8100000EE100AB8EE74
:1041F000400A0AF1E00004F05FF987ED0B0A38F895
:10420000040000EE100AB8EE400A504604F054F9DB
:1042100087ED030AB9F8020000EE100AB8EE400A72
:104220000AF11C0004F048F987ED040AB9F804000B
:1042300000EE100AB8EE400A0AF1380004F03CF92A
:1042400087ED050AB9F8060000EE100AB8EE400A3C
:104250000AF1540004F030F987ED060AB9F80800B5
:1042600000EE100AB8EE400A0AF1700004F024F9DA
:1042700087ED070AB9F80A0000EE100AB8EE400A06
:104280000AF18C0004F018F987ED080AB9F80C005F
:1042900000EE100AB8EE400A0AF1A80004F00CF98A
:1042A00087ED090A6D1C282DFFF674AF97ED0D8A76
:1042B00006F5217896EDA10AD7ED0C0A20EE200A2A
:1042C000F0EE000A20EE200A80EE080AD8ED090A76
:1042D00020EE200A87ED0C0A96EDA10AD7ED0A0A16
:1042E00020EE200A10EE100A00F058FBAD4AAE4B4B
:1042F00004F004F904460D4618EE100A00F04EFBD7
:1043000002460B462046294604F0CAF904460D46EB
:10431000D8F8200000F042FB22462B4604F0EEF8CD
:1043200000F0A6FBB86296EDA10AD7ED0B0A20EECD
:10433000200A80EE080A10EE100A00F02FFB024659
:104340000B469A489A4904F0CFFA0022994B04F0A0
:10435000A7F90022984B04F087FB00F089FBF86274
:1043600096EDA10AD7ED030A20EE200A80EE080A96
:10437000D8ED010A20EE200A87ED030A96EDA10A86
:10438000D7ED040A20EE200A80EE080AD8ED020AD2
:1043900020EE200A87ED040A96EDA10AD7ED050A62
:1043A00020EE200A80EE080AD8ED030A20EE200A4B
:1043B00087ED050A96EDA10AD7ED060A20EE200A40
:1043C00080EE080AD8ED040A20EE200A87ED060ADE
:1043D00096EDA10AD7ED070A20EE200A80EE080A22
:1043E000D8ED050A20EE200A87ED070A96EDA10A0E
:1043F000D7ED080A20EE200A80EE080AD8ED060A5A
:1044000020EE200A87ED080A96EDA10AD7ED090AE9
:1044100020EE200A80EE080AD8ED070A20EE200AD6
:1044200087ED090ABDEC028BBDE8F08738B5634D16
:104430008021284601F0A1FF514C94F85C1360F3F1
:10444000000184F85C134FF48071284601F095FF59
:1044500094F85C1360F3410184F85C13584D4FF4F9
:104460008041284601F089FF94F85C1360F38201D3
:1044700084F85C134FF40041284601F07EFF94F865
:104480005C1360F3C30184F85C134FF48051284639
:1044900001F073FF94F85C1360F3041184F85C136B
:1044A0004FF40051284601F068FF94F85C1360F364
:1044B000451184F85C134FF48061284601F05DFFDC
:1044C00094F85C1360F3861184F85C134FF4006178
:1044D000284601F052FF94F85C1301F07F0141EA95
:1044E000C01084F85C0331BD38B5364C244D95F8C6
:1044F000A00300284FF47A7206D1214604F5A030BB
:10450000503004F025FB06E004F57A7104F5A23082
:10451000383004F01DFB05F56870417800292AD079
:1045200095F8A01300290DD10021FA2919DA426863
:10453000521804EB420204EB81035B88A2F8D037E7
:10454000491CF2E700210AE04268521804EB4202DB
:1045500004EB8103B3F8EA33A2F8D037491CFA29F7
:10456000F2DB4168FA31416049F64042914202D3A0
:1045700000214170416031BD0000024064D801203B
:10458000D8B401205CDC0120082004E000100240C7
:104590002CDF01209766253504D6012035B7FFBFF3
:1045A000946E7F3F936FB6B931BD274052B81E85D8
:1045B000EB51E83F00000440000039400008024091
:1045C000000C0240C407002030E7000041542B5289
:1045D0004F4C45300000000041542B4E414D455694
:1045E00049425F25303264253032640041542B52F9
:1045F0004553455400000000000000003100000059
:1046000000000000000000000000000000000000AA
:10461000000000000000000000000000000000009A
:10462000000000000000000000000000000000008A
:104630000000000000000000000000004869546510
:1046400063685F32470000000000000000000000C7
:10465000000000000000000000000000000000005A
:10466000000000000000000000000000000000004A
:1046700000000000000000000000000043726F63B3
:104680006F64696C653130323031370000000000F2
:10469000000000000000000000000000000000001A
:1046A000000000000000000000000000000000000A
:1046B00000000000000000000000000000000000FA
:1046C00000000000000000000000000000000000EA
:1046D00000000000000000000000000000000000DA
:1046E00000000000000000000000000000000000CA
:1046F00000000000000000000000000000000000BA
:1047000000000000000000000000000000000000A9
:104710000000000000000000000000000000000099
:104720000000000000000000000000000000000089
:104730000000000000000000000000000000000079
:104740000000000000000000000000000000000069
:104750000000000000000000000000000000000059
:104760000000016D6F746F722D646961672E37628E
:104770006974732E697400000000000000000000DE
:104780000000000000000000000000000000000029
:104790000000000000000000000000000000000019
:1047A0000000000000000000000000000000000009
:1047B00000000000BB1F000000000000000000001F
:1047C00000000000000000000000000000000000E9
:1047D00000000000000000000000000000000000D9
:1047E00000000000000000000000000000000000C9
:1047F00000000000000000000000000000000000B9
:1048000000000000000000000000000000000000A8
:104810000000000000000000000000000000000098
:104820000000000000000000000000000000000088
:104830000000000000000000000000000000000078
:104840000000000000000000000000000000000068
:1048500000000000000000000000000000003230F6
:10486000382E36372E3232322E32323200000000ED
:10487000000001010000000000000000EC51983F22
:104880000000803F0000803F0000803F0000803F2C
:104890000000803F0000803F0000803F0000803F1C
:1048A0000000803F0000803F000000000000803FCB
:1048B0000000803F000000000000803F0000803FBB
:1048C000000000000000803F0000803F000000006A
:1048D0000000803F0000803F000000000000803F9B
:1048E0000000803F000000000000803F000000004A
:1048F00000000000000000000000000000000000B8
:104900000000140062B38B0708D0521E11F8013B5F
:1049100000F8013B00F024808B07F6D1830740F0BC
:10492000208000BF103A07D330B4B1E83810103AF5
:10493000A0E83810F9D230BC530724BFB1E8081002
:10494000A0E8081044BF51F8043B40F8043BD207EC
:1049500024BF31F8022B20F8022B44BF0B780370E0
:104960007047083A07D3B1E80810083A40F8043B0A
:1049700040F804CBF7D25307E4E750F8041B61B1C9
:1049800050F8042BD30744BFA9F101039A18002360
:1049900042F8043B091FFAD1EFE770475FF0FF0CC4
:1049A0001CEAD05114BF614506E0C110400721F058
:1049B000E04101F16051704779B900F00041000217
:1049C0000AD0B0FA80FC00FA0CF001F16051A1EBC2
:1049D0000C5101EBD0214005704741020CBF40F45F
:1049E000E0016FF00001002070470268531C036073
:1049F000117070470CB41CB5044604A801900A4617
:104A0000009401AB00A907487844183004F0A6F8D8
:104A1000009900220A7000285CBF0098001B16BC99
:104A20005DF80CFBC7FFFFFF00F10103810704D015
:104A300010F8011B89B18107FAD10268B2F1013186
:104A4000914311F0803F04BF50F8042FF6E710F8AF
:104A5000011B11B110F8011BFBE7C01A704780B5AC
:104A60000022002105F0E4F941EC100B01BD00002B
:104A70004FEAF17CBCF1E04C2CBFBCF5001F11E00B
:104A80005FEA4C0C34BFBCF17F5F2EE05FEA9C0C08
:104A90004FEA0C1C4FEA3C0CC10071F100414CEB99
:104AA00050707047C90241EA5051C00218BF41F02E
:104AB000010141F000414FEA6C50C0F1090021288A
:104AC00010D240EACC7CCCF1200C11FA0CF070F141
:104AD0000040CCF1200C21FA0CF00CF0004C40EB23
:104AE0000C0070474FEACC707047490011F5001F69
:104AF00004D84FEACC10FF30C0057047C817704784
:104B000038B50C46217831B932BD11F8013F15781E
:104B1000AB4206D0401C217805F08CF928B1014643
:104B2000224612F8013F002BEFD132BD2DE9F04FA4
:104B300085B080460D4614461E001CBF0020306024
:104B4000474600E07F1C387805F089F90028F9D144
:104B500038782D2816BF2B2817F8019B4FF02B090A
:104B6000002C44D4012C42D0252C40DA012C0ADB45
:104B7000102C04BF3878302802BF787840F020002D
:104B800078280ED10AE03878302818BF0A2408D1D6
:104B9000787840F02000782802D11024BF1C00E073
:104BA0000824039700E07F1C38783028FBD0029758
:104BB0000FF294004FF0000A8DF8040009E09DF810
:104BC0000410CDF800A0401A5FFA80FB04FB0ABA7B
:104BD0007F1C387805F04DF9014622460FF2680037
:104BE00005F052F90028EAD10398B84204D10DB17A
:104BF000C5F80080002022E00FF274010298615C89
:104C0000381A401A13D4012807DABAEB0B0004D380
:104C10000099B0FBF4F0884209D005F061F9222137
:104C200001600EB1012030604FF0FF3A04E0B9F1AD
:104C30002D0F08BFCAF1000A05B12F60504605B01C
:104C4000BDE8F08F002371E7303132333435363729
:104C500038396162636465666768696A6B6C6D6E3A
:104C60006F707172737475767778797A00000000CE
:104C700000002115110E0D0C0B0B0A0A0909090978
:104C800009080808080808080707070707070707AB
:104C9000070707070700000082B000200090DFF838
:104CA0003408416841F480414160416801F4804129
:104CB0000091009900210091016841F0805101604C
:104CC000006800F080500090009800220F216FF0E3
:104CD000010002B005F061B930B587B0044601A803
:104CE000142105F077F92068DFF8EC1788426FD1BE
:104CF00000200090DFF8E407416941F480714161D0
:104D0000416901F4807100910099002100910168CE
:104D100041F004010160016801F004010091009973
:104D200000210091016841F001010160016801F07A
:104D300001010091009900210091016841F00201F8
:104D40000160006800F00200009000983F20019090
:104D5000032002900020039001A9DFF8840701F0EE
:104D6000ABF9CF200190032002900020039001A90D
:104D7000DFF8700701F0A0F90320019002900020F5
:104D8000039001A9DFF8600701F096F9DFF85C579E
:104D9000DFF85C07286000206860A860E8604FF4D6
:104DA000806028614FF4006068614FF40050A86192
:104DB0004FF48070E861002028626862284600F0A5
:104DC000F5FB002801D002F096FAA563AC6375E00C
:104DD000DFF82017884271D100200090DFF8FC0630
:104DE000416941F400714161416901F40071009130
:104DF000009900210091016841F0040101600168FF
:104E000001F004010091009900210091016841F036
:104E100001010160016801F0010100910099002188
:104E20000091016841F002010160006800F0020099
:104E3000009000983E2001900320029000200390F3
:104E400001A9DFF89C0601F037F9CF20019003207B
:104E500002900020039001A9DFF8880601F02CF9E8
:104E60000320019002900020039001A9DFF878064A
:104E700001F022F9DFF88056DFF874063030286040
:104E80004FF0007068600020A860E8604FF4806018
:104E900028614FF4006068614FF40050A8614FF43E
:104EA0008070E861002028626862284600F07EFB7E
:104EB000002801D002F01FFAA563AC6307B030BD33
:104EC00010B586B0044601A8142105F083F82068C7
:104ED000DFF82816884222D100200090DFF8FC0578
:104EE000016941F000510161016901F00051009137
:104EF000009900210091016841F001010160006802
:104F000000F00100009000983020019003200290F2
:104F10000020039001A9DFF8CC0501F0CDF806B020
:104F200010BD10B586B0044601A8142105F052F852
:104F30002068DFF8CC15884227D100200090DFF8E8
:104F40009C45206840F002002060206800F00200CC
:104F500000900098C0200190122002900120039040
:104F6000032004900420059001A9DFF87C0501F0DE
:104F7000A3F800200090206940F40010206120690F
:104F800000F400100090009846E0DFF878158842A1
:104F900042D100200090DFF84445206840F0040032
:104FA0002060206800F0040000900098002000902D
:104FB000206840F001002060206800F001000090AF
:104FC00000984FF40070019012200290012003908D
:104FD000032004900420059001A9DFF8040501F0E6
:104FE0006BF84FF480700190122002900120039022
:104FF000032004900420059001A9DFF8E80401F0E3
:105000005BF800200090206940F4000020612069D6
:1050100000F400000090009806B010BD2DE9F047A4
:1050200086B0044601A8142104F0D4FF2068DFF8FC
:10503000D814884240F0918000200090DFF89C0452
:10504000016941F480410161016901F480410091ED
:10505000009900210091016841F00201016001689E
:1050600001F002010091009900210091016841F0D6
:1050700004010160006800F00400009000984FF403
:10508000144001900220029000200390049005201B
:105090000590DFF8545401A9284601F00DF84FF4AB
:1050A000804001900220029000200390049006208E
:1050B000059001A9284600F0FFFF40200190022042
:1050C00002900020039004900520059001A9DFF8CC
:1050D000100400F0F1FFDFF83464DFF83454356079
:1050E0004FF0C06070600020B060F0604FF48067E7
:1050F00037614FF40068C6F814804FF40059C6F8C1
:1051000018904FF4807AC6F81CA030627062304666
:1051100000F04CFA002801D002F0EDF8E663B46329
:10512000DFF8F06305F11800306000207060402067
:10513000B0600020F0603761C6F81480C6F818909F
:10514000C6F81CA030627062304600F02FFA0028CA
:1051500001D002F0D0F8A663B46306B0BDE8F087D2
:1051600010B586B0044601A8142104F033FF20686E
:10517000DFF8A413884227D100200090DFF85C03F9
:10518000016941F400410161016901F400410091AC
:10519000009900210091016841F00401016000685C
:1051A00000F00400009000984FF4E05001900220BD
:1051B000029000200390032004900620059001A98E
:1051C000DFF81C0300F078FF06B010BD10B586B004
:1051D000044601A8142104F0FDFE2068DFF83C130A
:1051E00088422DD100200090BC48416941F0010166
:1051F0004161416901F00101009100990021009194
:10520000016841F010010160006800F0100000909A
:1052100000984FF42060019002200290002003903B
:1052200004900120059001A9BD4800F045FF00222F
:1052300005211B2004F0B1FE1B2004F0BDFE26E07A
:10524000B849884214D100200090A448016941F077
:1052500008010161006900F0080000900098002238
:105260000521322004F099FE322004F0A5FE0EE064
:10527000AD4988420BD1002000909848416941F423
:1052800080314161406900F480300090009806B0A0
:1052900010BD30B587B0044601A8142104F09AFE71
:1052A0002068A24988424AD1002000908B48416979
:1052B00041F010014161416901F010010091009934
:1052C00000210091016841F001010160006800F0D7
:1052D0000100009000984FF4C060019002200290FD
:1052E00001200390032004900720059001A97D4828
:1052F00000F0E2FE8E4D8F4828604FF0006068603D
:105300004020A8600020E8604FF480602861002001
:105310006861A861E86128626862284600F046F981
:10532000002801D001F0E7FF2563AC6300220521CE
:10533000252004F032FE252004F03EFE88E07E4960
:10534000884254D1002000906448016941F4003142
:105350000161016901F4003100910099002100917F
:10536000016841F008010160006800F00800009049
:1053700000986020019002200290012003900320F9
:1053800004900720059001A96C4800F095FE6C4D33
:105390006C4828604FF0006068604020A8600020E2
:1053A000E8604FF48060286100206861A861E861CE
:1053B00028626862284600F0F9F8002801D001F060
:1053C0009AFF2563AC6300220521262004F0E5FD49
:1053D000262004F0F1FD262004F0EFFD0022042138
:1053E000262004F0DAFD262004F0E6FD30E05649E0
:1053F00088422DD1002000903848016941F4802175
:105400000161016901F4802100910099002100915E
:10541000016841F008010160006800F00800009098
:1054200000984FF4407001900220029001200390F8
:10543000032004900720059001A9404800F03CFE9D
:1054400000220521272004F0A8FD272004F0B4FD48
:1054500007B030BD10B5044620683449884211D1E8
:105460001C48416821F0100141604FF4C0611D48A3
:1054700000F0F5FE206B00F000F92520BDE810409B
:1054800004F09BBD2C49884210D11248016821F4D8
:10549000003101606021294800F0E1FE206B00F03E
:1054A000ECF82620BDE8104004F087BD264988426C
:1054B0000ED10848016821F4802101604FF4407149
:1054C0001E4800F0CCFE2720BDE8104004F075BD5A
:1054D00010BD00004038024000200140303802403A
:1054E00000080240000002400004024070D9012080
:1054F0001064024000210140D0D901200074004016
:1055000000540040005C00400038004030DA0120C8
:105510005860024090DA0120003C00400000014049
:1055200000100240000C004000400140001001400B
:10553000F0DA0120B864024000440040000C024050
:1055400050DB0120A06002400048004080B51248B6
:10555000016841F400710160016841F480610160FB
:10556000016841F480710160032004F015FD002002
:1055700004F034FDFFF790FB002002BD07484068AF
:10558000704707480068704706480068704706483B
:105590000068704700000000003C0240A0070020A7
:1055A000107AFF1F147AFF1F187AFF1F38B50446C0
:1055B000FFF7E4FF0546002C01D1012032BD002099
:1055C00084F83400022084F8350020680168490816
:1055D0004900016020680168C9070AD5FFF7CEFFBE
:1055E000401B0628F6D320206065032084F8350090
:1055F00032BD0168DFF84C23114062681143A26894
:105600001143E26811432269114362691143A2699F
:105610001143E2691143226A1143626A042A03D1E9
:10562000E26A236B1A431143016020684069616A92
:10563000C00841EAC00504290FD1A06A0543E06A09
:1056400000280AD0204600F0AAF9002805D0402002
:105650006065012084F8350032BD20684561204630
:1056600000F089F93F21E26D914081600020606582
:10567000012084F83500002032BD10B5040001D1AE
:10568000012010BD94F83500022801D1022010BD80
:105690002068016849084900016020680021016014
:1056A00020684160206881602068C16020680161D5
:1056B000206821214161204600F05DF90021E1636D
:1056C00021646164A164E16421653F21E26D914040
:1056D00081600020606584F8350084F8340010BDD6
:1056E00070B505460024AE6D95F83400012801D14F
:1056F000022070BD012085F8340095F8350001289E
:1057000023D1022085F8350020466865284600F040
:105710001DF93F20E96D8840B0602868016841F0BC
:10572000160101602868416941F080014161286CDF
:10573000002804D02868016841F008010160286849
:10574000016841F00101016003E0204685F8340062
:105750000224204670BD90F83510022903D0802124
:10576000416501207047052180F835100068016807
:1057700049084900016000207047F8B50446002040
:105780000090714800684FF41651B0FBF1F5A66D1A
:1057900037680820E16D00FA01F10F420ED0216850
:1057A0000A6852070AD50A6822F004020A60E16D0D
:1057B0008840B060606D40F001006065E06D27FAE0
:1057C00000F1C9070BD521684969090607D50121F0
:1057D00001FA00F0B060606D40F0020060650420E6
:1057E000E16D8840074208D021680968890704D51F
:1057F000B060606D40F0040060651020E16D88408D
:10580000074223D02168096809071FD5B0602068C6
:10581000016849030ED50068000305D4216C080017
:1058200014D02046884711E0A16C08000ED0204615
:1058300088470BE00168C90503D4016821F008011D
:105840000160216C080001D0204688472020E16DCE
:105850008840074251D021680968C9064DD5B0601B
:10586000206894F835100529016823D121F016012C
:1058700001602068416921F080014161206C0028AD
:1058800002D1A06C002804D02068016821F0080132
:1058900001603F20E16D8840B060002084F8340052
:1058A000012084F83500216D08004AD02046BDE86B
:1058B000F440084749030ED50068000305D4616C25
:1058C00008001AD02046884717E0E16B080014D082
:1058D0002046884711E00168C90509D4016821F014
:1058E00010010160002084F83400012084F83500A4
:1058F000E16B080001D020468847606D002820D069
:10590000606DC00716D5052084F835002068016851
:105910004908490001600098401C0090854203D36B
:1059200020680068C007F6D4002084F83400012005
:1059300084F83500E16C080003D02046BDE8F4404F
:105940000847F1BD3F8010F0BC07002030B4046868
:10595000256825F4802525600468636003688468F1
:10596000402C03D19A600068C16002E09960006831
:10597000C26030BC7047017810391822B1FBF2F1D7
:105980000FF294028A5CC2650268920A92020429AC
:1059900002D3111D816500E08265806D7047002192
:1059A000826A8369002B10D1002A03D0022A01D019
:1059B00005D32DE0C06AC0012AD5012128E0C06AC4
:1059C000B0F1C07F24D1012122E0B3F5005F14D1F2
:1059D000002A05D0022A03D004D3032A07D017E0F7
:1059E000012115E0C06AC00112D5012110E0C06A92
:1059F000B0F1C07F0CD101210AE0022A02D9D21EE7
:105A000002D005E0012103E0C06AC00100D50121F8
:105A10000846704700000000000610160006101629
:105A2000674804F037BB674804F034BB634A6649F3
:105A3000884200D02C32816A491E8162C18D491C86
:105A4000C185806A017802F1080004F00DBB5E494F
:105A5000884204D15948002180F8291070475B49D9
:105A6000884203D15548002180F85510704710B581
:105A7000524C5549884200D02C34FFF7E8FF0422ED
:105A800004F114012068BDE81040FDF788BE002134
:105A9000C16180F8291080F82810042200F1140157
:105AA0000068FDF77CBE10B5444C2068FDF7F8FD9A
:105AB0004FF4007204F1580104F1080004F0CCFA2C
:105AC00000F0B0FC2046BDE81040E0E710B53B4CCC
:105AD000E06AFDF7E5FD4FF4806204F5167104F10C
