:020000040800F2
:10000000A0EA012045000108B9FA0008BBFA00087F
:10001000BDFA0008BFFA0008C1FA0008000000009D
:10002000000000000000000000000000F1ED0008EA
:10003000C3FA00080000000099ED0008A9EB0008D1
:1000400095000108990001089D000108A100010820
:10005000A5000108A9000108AD000108B1000108D0
:10006000B5000108B9000108BD000108C100010880
:10007000C5000108C9000108C5FA00081FFB0008F7
:10008000CD00010825FB0008D1000108D5000108BA
:10009000D9000108DD000108E1000108E5000108C0
:1000A000E9000108ED000108F10001082BFB000840
:1000B00031FB0008F5000108F9000108FD00010806
:1000C0000101010805010108090101080D010108EC
:1000D0001101010837FB000855FB000873FB0008FD
:1000E00015010108190101081D010108210101087C
:1000F00025010108290101082D010108310101082C
:10010000350101083901010879FB00083D010108AA
:100110004101010845010108490101084D0101089B
:10012000A1FB000851010108A7FB000855010108C7
:10013000590101085D01010861010108650101081B
:10014000690101086D0101087101010875010108CB
:10015000790101087D010108ADFB0008810101085A
:1001600085010108890101088D010108910101083B
:1001700095010108990101089D0101080000000096
:10018000A1010108A5010108BFF34F8F17490A68B3
:1001900002F4E062164802430A60BFF34F8F00BFCB
:1001A000FDE7144901220A70B5EE400AF1EE10FA9B
:1001B00002D1B7EE000A704700220A7080B200EE4A
:1001C000900AF8EE600A80EE800A70470948012123
:1001D0000170B5EE400AF1EE10FA02D1B7EE000A56
:1001E00070470021017080EE800A70470CED00E03E
:1001F0000400FA0590B101202DE9F04FADF5437DE3
:100200008146DFF8DC1901F0DBFEDFF8D8496060D9
:10021000DFF8D45905F51976DFF8D089DFF8D07901
:10022000002800F037810B3060600078412806D04C
:1002300042282BD0432850D0582877D0B3E0002054
:1002400060706068801C60600BE07A54401C6070D5
:100250006168491C616009780D2902D10021C0B292
:100260003954606802780D2A03D060780146092964
:10027000EBDB384601F05AFF80B2DFF8781991EDD8
:100280001A0AFFF78EFF86ED1B0A94E000206070CB
:100290006068801C60600BE07A54401C607061688C
:1002A000491C616009780D2902D10021C0B239547E
:1002B000606802780D2A03D0607801460929EBDBDB
:1002C000384601F033FF80B2DFF8281991ED1B0AA0
:1002D000FFF767FF86ED1E0A6DE000206070606822
:1002E000801C60600BE07A54401C60706168491C9F
:1002F000616009780D2902D10021C0B239546068CB
:1003000002780D2A03D0607801460929EBDB3846D4
:1003100001F00CFF80B2DFF8DC1891ED1C0AFFF74A
:1003200040FF05F5397080ED010A44E0002060705F
:100330006068801C60600BE07A54401C60706168EB
:10034000491C616009780D2902D10021C0B23954DD
:10035000606802780D2A03D0607801460929EBDB3A
:10036000384601F0E3FEDFF88CA880B29AED1A0A55
:10037000FFF717FF86ED1B0A384601F0D7FE80B263
:100380009AED1B0AFFF70DFF86ED1E0A384601F0B5
:10039000CDFE80B29AED1C0AFFF703FF05F5397018
:1003A00080ED010A07E04FF47A730722DFF848185E
:1003B000404601F006FF284602F026FB684602F0A0
:1003C0007DFB284669464FF4437203F051F9706F84
:1003D00003F0AEF9CDE90201306F03F0A9F9CDE9E0
:1003E0000001F06E03F0A4F902460B46DFF80C188A
:1003F000384603F0C1F9384603F0DEF902464FF4FF
:100400007A7392B23946404601F0DBFE05F5397A3F
:10041000DAF8000003F08CF9CDE90201F06F03F087
:1004200087F9CDE90001B06F03F082F902460B466F
:10043000DFF8CC17384603F09FF9384603F0BCF9D3
:100440004FF47A73024692B23946404601F0B9FE43
:10045000DAF80C0003F06CF9CDE90201DAF80800D3
:1004600003F066F9CDE90001DAF8040003F060F961
:1004700002460B46DFF88C17384603F07DF9384604
:1004800003F09AF94FF47A73024692B23946404625
:1004900001F097FEDFF87017484601F091FD6060AB
:1004A000002800F06E810B3060600078412807D092
:1004B000422835D0432863D0582800F09380E9E0E3
:1004C000002060706068801C60600BE07A54401C03
:1004D00060706168491C616009780D2902D10021B2
:1004E000C0B23954606802780D2A03D060780146A2
:1004F0000929EBDB384603F08CF951EC100B03F0C3
:1005000091F900EE900ADFF8EC0690ED1A0A96EDEC
:100510001B1A20EE010AFFF759FE86ED1D0AC1E005
:10052000002060706068801C60600BE07A54401CA2
:1005300060706168491C616009780D2902D1002151
:10054000C0B23954606802780D2A03D06078014641
:100550000929EBDB384603F05CF951EC100B03F092
:1005600061F900EE900ADFF88C0690ED1B0A96ED1B
:100570001E1A20EE010AFFF729FE85EDB90A91E067
:10058000002060706068801C60600BE07A54401C42
:1005900060706168491C616009780D2902D10021F1
:1005A000C0B23954606802780D2A03D060780146E1
:1005B0000929EBDB384603F02CF905F5397A51ECC3
:1005C000100B03F02FF900EE900ADFF8280690EDEB
:1005D0001C0A9AED011A20EE010AFFF7F7FD8AEDD9
:1005E000030A5FE0002060706068801C60600BE0C0
:1005F0007A54401C60706168491C616009780D295B
:1006000002D10021C0B23954606802780D2A03D0AB
:10061000607801460929EBDB384603F0FAF805F566
:10062000397BDFF8D0A551EC100B03F0FBF800EE9E
:10063000900A9AED1C0A9BED011A20EE010AFFF7C1
:10064000C5FD8BED030A384603F0E3F851EC100BBF
:1006500003F0E8F800EE900A9AED1B0A96ED1E1AD8
:1006600020EE010AFFF7B2FD8BED000A384603F0D9
:10067000D0F851EC100B03F0D5F800EE900A9AED8B
:100680001A0A96ED1B1A20EE010AFFF79FFD86ED70
:100690001D0A07E04FF47A730722DFF85C15404625
:1006A00001F08FFD284602F0AFF9684602F006FA25
:1006B000284669464FF4437202F0DAFF706F03F088
:1006C00037F8CDE90201306F03F032F8CDE90001CF
:1006D000F06E03F02DF802460B460FF62441384623
:1006E00003F04AF8384603F067F84FF47A7302468D
:1006F00092B23946404601F064FD05F5397ADAF8E0
:10070000000003F015F8CDE90201F06F03F010F8D6
:10071000CDE90001B06F03F00BF802460B460FF66F
:10072000F831384603F028F8384603F045F84FF41E
:100730007A73024692B23946404601F042FDDAF839
:100740000C0002F0F5FFCDE90201DAF8080002F032
:10075000EFFFCDE90001DAF8040002F0E9FF0246FC
:100760000B460FF6CC31384603F006F8384603F056
:1007700023F84FF47A73024692B23946404601F0AC
:1007800020FD0FF6C431484601F01AFC60600028D5
:1007900000F02C810B3060600078412806D04228A0
:1007A0002BD0432850D0582874D0AEE00020607081
:1007B0006068801C60600BE07A54401C6070616867
:1007C000491C616009780D2902D10021C0B2395459
:1007D000606802780D2A03D0607801460929EBDBB6
:1007E000384601F0A3FC80B2DFF8081491ED0E0A40
:1007F000FFF7D7FC86ED120A8FE00020607060687A
:10080000801C60600BE07A54401C60706168491C79
:10081000616009780D2902D10021C0B239546068A5
:1008200002780D2A03D0607801460929EBDB3846AF
:1008300001F07CFC80B2DFF8BC1391ED0F0AFFF7EA
:10084000B0FC86ED150A68E0002060706068801CCE
:1008500060600BE07A54401C60706168491C616004
:1008600009780D2902D10021C0B23954606802789C
:100870000D2A03D0607801460929EBDB384601F0E8
:1008800055FC80B2DB4991ED100AFFF78AFC86ED3A
:10089000180A42E0002060706068801C60600BE015
:1008A0007A54401C60706168491C616009780D29A8
:1008B00002D10021C0B23954606802780D2A03D0F9
:1008C000607801460929EBDB384601F02FFCDFF8A0
:1008D00024A380B29AED0E0AFFF763FC86ED120A9C
:1008E000384601F023FC80B29AED0F0AFFF759FC5D
:1008F00086ED150A384601F019FC80B29AED100A0F
:10090000FFF74FFC86ED180A07E04FF47A730722D1
:100910000FF64C21404601F054FC284602F074F8D2
:10092000684602F0CBF8284669464FF4437202F05D
:100930009FFE306D02F0FCFECDE90201F06C02F08A
:10094000F7FECDE90001B06C02F0F2FE02460B4664
:100950000FF61421384602F00FFF384602F02CFF44
:100960004FF47A73024692B23946404601F029FCB0
:10097000F06D02F0DDFECDE90201B06D02F0D8FEAF
:10098000CDE90001706D02F0D3FE02460B460FF672
:10099000F011384602F0F0FE384602F00DFF4FF439
:1009A0007A73024692B23946404601F00AFCB06EB4
:1009B00002F0BEFECDE90201706E02F0B9FECDE993
:1009C0000001306E02F0B4FE02460B460FF6C8116D
:1009D000384602F0D1FE384602F0EEFE4FF47A734C
:1009E000024692B23946404601F0EBFB0FF6641125
:1009F000484601F0E5FA6060002800F078810B308D
:100A000060600078412807D0422834D0432861D064
:100A1000582800F08E80F9E0002060706068801C2B
:100A200060600BE07A54401C60706168491C616032
:100A300009780D2902D10021C0B2395460680278CA
:100A40000D2A03D0607801460929EBDB384602F015
:100A5000E0FE51EC100B02F0E5FE00EE900A654856
:100A600090ED0E0A96ED121A20EE010AFFF7AEFB8A
:100A700086ED140AD2E0002060706068801C60601F
:100A80000BE07A54401C60706168491C6160097811
:100A90000D2902D10021C0B23954606802780D2AB4
:100AA00003D0607801460929EBDB384602F0B1FE3D
:100AB00051EC100B02F0B6FE00EE900A4D4890ED9E
:100AC0000F0A96ED151A20EE010AFFF77FFB86ED5F
:100AD000170AA3E0002060706068801C60600BE073
:100AE0007A54401C60706168491C616009780D2966
:100AF00002D10021C0B23954606802780D2A03D0B7
:100B0000607801460929EBDB384602F082FE51ECA1
:100B1000100B02F087FE00EE900A364890ED100AA6
:100B200096ED181A20EE010AFFF750FB86ED1A0A1F
:100B300074E0002060706068801C60600BE07A5494
:100B4000401C60706168491C616009780D2902D100
:100B50000021C0B23954606802780D2A03D0607851
:100B600001460929EBDB384602F053FEDFF884A08A
:100B700051EC100B02F056FE00EE900A9AED0E0AB0
:100B800096ED121A20EE010AFFF720FB86ED140AFB
:100B9000384602F03EFE51EC100B02F043FE00EE30
:100BA000900A9AED0F0A96ED151A20EE010AFFF74A
:100BB0000DFB86ED170A384602F02BFE51EC100BA8
:100BC00002F030FE00EE900A9AED100A96ED181A27
:100BD00020EE010AFFF7FAFA86ED1A0A1EE000BFBE
:100BE000C8FF00087CE201202CAD012038E1012083
:100BF00020DC012090B101206013000800130008E0
:100C00001813000830130008D4FF00084FF47A735B
:100C100007220FF24C71404601F0D3FA284601F04A
:100C2000F3FE684601F04AFF284669464FF44372D6
:100C300002F01EFD306D02F07BFDCDE90201F06C8B
:100C400002F076FDCDE90001B06C02F071FD0246C4
:100C50000B460FF21471384602F08EFD384602F052
:100C6000ABFD4FF47A73024692B23946404601F02A
:100C7000A8FAF06D02F05CFDCDE90201B06D02F062
:100C800057FDCDE90001706D02F052FD02460B46A2
:100C90000FF2EC61384602F06FFD384602F08CFD31
:100CA0004FF47A73024692B23946404601F089FA0F
:100CB000B06E02F03DFDCDE90201706E02F038FD2C
:100CC000CDE90001306E02F033FD02460B460FF213
:100CD000C861384602F050FD384602F06DFD4FF411
:100CE0007A73024692B23946404601F06AFA0FF230
:100CF000C061484601F064F96060002801D000F04E
:100D000095FB0FF2B861484601F05AF9606000287F
:100D100001D000F07BFC0FF2AC61484601F050F9C5
:100D2000606000280CD04FF47A7308220FF2A061A3
:100D3000404601F046FAC82002F0F6FDFFF724FA1B
:100D40000FF29861484601F03BF96060002807D037
:100D50004FF47A7317220FF28C61404601F031FA9A
:100D60000FF29861484601F02BF96060002809D025
:100D700001F08DFE4FF47A732322DFF8281E4046DF
:100D800001F01FFA0FF28061484601F019F9606026
:100D9000002800F059810B3060600078312806D0BF
:100DA000C0F05281332800F0E28070D34CE1002083
:100DB00060706068801C60600DE005F26B118B5400
:100DC000401C60706268521C626012782C2A02D14A
:100DD0000022C0B20A5461680B782C2B03D06078D3
:100DE00002463F2AE9DB481C6060002060700DE08D
:100DF00005F2AB118B54401C60706268521C62603B
:100E000012782C2A02D10022C0B20A5461680B78F1
:100E10002C2B03D0607802463F2AE9DB481C606037
:100E2000002060700BE07A54401C60706168491CBF
:100E3000616009780D2902D10021C0B2395460687F
:100E400002780D2A03D0607801460929EBDB384689
:100E500001F06CF9A5F8BC01284601F0D5FDB5F804
:100E6000BC01009005F2AB1305F26B120FF2A45116
:100E7000384602F081FC384602F09EFC4FF47A734B
:100E8000024692B23946404601F09BF9DCE0002070
:100E900060706068801C60600DE005F2BF118B54CB
:100EA000401C60706268521C626012782C2A02D169
:100EB0000022C0B20A5461680B782C2B03D06078F2
:100EC00002463F2AE9DB481C6060002060700DE0AC
:100ED00005F2FF118B54401C60706268521C626006
:100EE00012782C2A02D10022C0B20A5461680B7811
:100EF0002C2B03D0607802463F2AE9DB481C606057
:100F0000002060700BE07A54401C60706168491CDE
:100F1000616009780D2902D10021C0B2395460689E
:100F200002780D2A03D0607801460929EBDB3846A8
:100F300001F0FCF8A5F81002284601F065FDB5F8AF
:100F40001002009005F2FF1305F2BF120FF6704178
:100F5000384602F011FC384602F02EFC4FF47A734A
:100F6000024692B23946404601F02BF96CE000206F
:100F700060706068801C60600DE005F213218B5486
:100F8000401C60706268521C626012782C2A02D188
:100F90000022C0B20A5461680B782C2B03D0607811
:100FA00002463F2AE9DB481C6060002060700DE0CB
:100FB00005F253218B54401C60706268521C6260C1
:100FC00012782C2A02D10022C0B20A5461680B7830
:100FD0002C2B03D0607802463F2AE9DB481C606076
:100FE000002060700BE07A54401C60706168491CFE
:100FF000616009780D2902D10021C0B239546068BE
:1010000002780D2A03D0607801460929EBDB3846C7
:1010100001F08CF83080284601F0F6FC3088009012
:1010200005F2532305F213220FF6AC31384602F0D5
:10103000A3FB384602F0C0FB4FF47A73024692B22B
:101040003946404601F0BDF80FF6A431484600F09D
:10105000B7FF6060002800F0038109306060002065
:101060002070024602E07A54401C2070207801462D
:101070000C29F8DB60680178312906D0C0F0F080D7
:10108000332900F0A08050D3EAE011466170801C43
:1010900060600FE005F144035A54401C60706168C1
:1010A000491C616009782C2904D1002105F1440212
:1010B000C0B2115463681A782C2A03D060780146B4
:1010C0003F29E7DB581C60600020607005F1840157
:1010D0000BE08B54401C60706268521C6260127896
:1010E0000D2A02D10022C0B20A54606803780D2B89
:1010F00003D0607802461F2AEBDB284601F084FC0F
:1011000005F1840305F144020FF6F021384602F0A0
:1011100033FB384602F050FB4FF47A73024692B22A
:101120003946404601F04DF89AE011466170801C46
:1011300060600DE005F1A6018B54401C6070626890
:10114000521C626012782C2A02D10022C0B20A54CA
:1011500061680B782C2B03D0607802463F2AE9DBCC
:10116000481C60600020607005F1E6010BE08B54C4
:10117000401C60706268521C626012780D2A02D1B5
:101180000022C0B20A54606803780D2B03D0607847
:1011900002461F2AEBDB284601F036FC05F1E60388
:1011A00005F1A6020FF66821384602F0E5FA384646
:1011B00002F002FB4FF47A73024692B2394640467F
:1011C00000F0FFFF4CE011466170801C60600DE094
:1011D00005F584718B54401C60706268521C62601B
:1011E00012782C2A02D10022C0B20A5461680B780E
:1011F0002C2B03D0607802463F2AE9DB481C606054
:101200000020607005F5A4710BE08B54401C6070E9
:101210006268521C626012780D2A02D10022C0B2AC
:101220000A54606803780D2B03D0607802461F2AA9
:10123000EBDB284601F0E8FB05F5A47305F58472A5
:101240000FF6E011384602F097FA384602F0B4FA89
:101250004FF47A73024692B23946404600F0B1FF2D
:101260000FF6D411484600F0ABFE6060002843D072
:101270000930606000202070024602E07A54401C71
:101280002070207801460C29F8DB104660706068F9
:10129000801C606005F124030DE05A54401C60700E
:1012A0006168491C616009780D2904D1002105F1AC
:1012B0008402C0B21154606802780D2A03D06078AD
:1012C00001461F29E9DB284601F09EFB05F12402B7
:1012D0000FF67011384602F04FFA384602F06CFAF9
:1012E0004FF47A73024692B2394640460DF5437D7B
:1012F000BDE8F04F00F065BF0DF5437DBDE8F08F10
:101300004375727220413A204B3D256620423D25AF
:101310006620523D25660A004375727220423A20CB
:101320004B3D256620423D256620523D25660A003C
:101330004375727220433A204B3D256620423D257D
:101340006620523D25660A0041542B434C424143DE
:10135000564B000041542B434C424143565200002F
:101360000A4552524F520A00566F6C7420413A207F
:101370004B3D256620423D256620523D25660A00EC
:10138000566F6C7420423A204B3D256620423D2525
:101390006620523D25660A00566F6C7420433A2041
:1013A0004B3D256620423D256620523D25660A00BC
:1013B00041542B4E455453455400000041542B4D8D
:1013C0004541530041542B52455345540000000001
:1013D0002B52455345540D0A0000000041542B5335
:1013E000454E44000A2B53454E44204E6F742069ED
:1013F0006D706C656D656E7465640A0041542B53A5
:10140000455444454600000041542B534554534530
:1014100052563D000A2B534554534552563D312CEC
:1014200025732C25732C25640A0000002DE9FE434A
:10143000DFF874470FF61801204602F09DF92046A8
:1014400002F0BAF90246DFF864574FF47A7392B2A9
:101450002146284600F0B5FE0FF60001204602F0B6
:101460008BF9204602F0A8F94FF47A73024692B243
:101470002146284600F0A5FE0FF60C020FF2F87187
:10148000204602F079F9204602F096F94FF47A737B
:10149000024692B22146284600F093FEDFF810275C
:1014A0000FF2F871204602F067F9204602F084F945
:1014B0004FF47A73024692B22146284600F081FE2C
:1014C000DFF8F06606F1840306F144020FF2D871EA
:1014D000204602F051F9204602F06EF94FF47A737B
:1014E000024692B22146284600F06BFE06F1E60362
:1014F00006F1A6020FF2C871204602F03DF920461F
:1015000002F05AF94FF47A73024692B22146284605
:1015100000F057FE06F5A47306F584720FF2B87159
:10152000204602F029F9204602F046F94FF47A737A
:10153000024692B22146284600F043FE06F2662299
:101540000FF2AC71204602F017F9204602F034F990
:101550004FF47A73024692B22146284600F031FEDB
:1015600006F5DE78DFF85076B8F80000019006F254
:10157000AB10009006F26B1396F86A2139462046AC
:1015800002F0FAF8204602F017F94FF47A73024697
:1015900092B22146284600F014FE06F50479B9F807
:1015A0000000019006F2FF10009006F2BF1398F8B9
:1015B000022007F13001204602F0DEF8204602F05A
:1015C000FBF84FF47A73024692B22146284600F0A7
:1015D000F8FDB6F86402019006F25320009006F27E
:1015E000132399F8022007F16001204602F0C4F8A5
:1015F000204602F0E1F84FF47A73024692B2214697
:10160000284603B0BDE8F04300F0DBBD2DE9FC4106
:10161000DFF894450FF2E461204602F0ADF8204671
:1016200002F0CAF80246DFF884554FF47A7392B29A
:101630002146284600F0C5FD0FF24C630FF2DC6234
:101640000FF2C461204602F097F8204602F0B4F889
:101650004FF47A73024692B22146284600F0B1FD5B
:10166000DFF85865306B02F063F8CDE90001B06A2D
:1016700002F05EF802460B460FF2B461204602F01B
:101680007BF8204602F098F84FF47A73024692B243
:101690002146284600F095FD706F02F049F8CDE92B
:1016A0000001706C02F044F802460B460FF2A06194
:1016B000204602F061F8204602F07EF84FF47A737B
:1016C000024692B22146284600F07BFD0FF2040844
:1016D00002E000BF0D0A00004FF47A730222414677
:1016E000284600F06EFD706F02F022F8CDE900018F
:1016F000706C02F01DF802460B460FF26C6120463A
:1017000002F03AF8204602F057F84FF47A73024696
:1017100092B22146284600F054FDD6F8800002F02F
:1017200007F8CDE90001306D02F002F802460B46E1
:101730000FF25061204602F01FF8204602F03CF8FC
:101740004FF47A73024692B22146284600F039FDE2
:1017500006F18407B86801F0EBFFCDE90001F06DF8
:1017600001F0E6FF02460B460FF23461204602F01C
:1017700003F8204602F020F84FF47A73024692B242
:101780002146284600F01DFD4FF47A73022241469F
:10179000284600F016FDB06F01F0CAFFCDE9000148
:1017A000B06C01F0C5FF02460B460FF210612046F7
:1017B00001F0E2FF204601F0FFFF4FF47A7302468A
:1017C00092B22146284600F0FCFC386801F0B0FFD8
:1017D000CDE90001706D01F0ABFF02460B460FF240
:1017E000F851204601F0C8FF204601F0E5FF4FF414
:1017F0007A73024692B22146284600F0E2FCF8686D
:1018000001F096FFCDE90001306E01F091FF024634
:101810000B460FF2E051204601F0AEFF204601F0EA
:10182000CBFF4FF47A73024692B22146284600F06D
:10183000C8FC4FF47A7302224146284600F0C1FCEE
:10184000F06F01F075FFCDE90001F06C01F070FF61
:1018500002460B460FF2B851204601F08DFF20469C
:1018600001F0AAFF4FF47A73024692B2214628464D
:1018700000F0A7FC786801F05BFFCDE90001B06DD6
:1018800001F056FF02460B460FF2A051204601F030
:1018900073FF204601F090FF4FF47A73024692B234
:1018A0002146284600F08DFC386901F041FFCDE962
:1018B0000001706E01F03CFF02460B460FF28851AA
:1018C000204601F059FF204601F076FF4FF47A736D
:1018D000024692B22146284600F073FC4FF47A7318
:1018E00002224146284600F06CFC01F093F9F068B2
:1018F00001F01EFF02460B460FF26851204601F030
:101900003BFF204601F058FF4FF47A73024692B233
:101910002146284600F055FC306901F009FF0246D7
:101920000B460FF25451204601F026FF204601F0ED
:1019300043FF4FF47A73024692B22146284600F0E4
:1019400040FC706901F0F4FE02460B460FF23C5178
:10195000204601F011FF204601F02EFF4FF47A736C
:10196000024692B22146284600F02BFCB06901F0F5
:10197000DFFE02460B460FF22851204601F0FCFE26
:10198000204601F019FF4FF47A73024692B22146C5
:10199000284600F016FCF06901F0CAFE02460B462C
:1019A0000FF21051204601F0E7FE204601F004FF3F
:1019B0004FF47A73024692B22146284600F001FCA9
:1019C000306A01F0B5FE02460B460FF2FC4120469C
:1019D00001F0D2FE204601F0EFFE4FF47A7302468A
:1019E00092B22146284600F0ECFB706A01F0A0FE9E
:1019F00002460B460FF2E441204601F0BDFE2046B0
:101A000001F0DAFE4FF47A73024692B2214628467C
:101A100000F0D7FB4FF47A7302224146284600F0CB
:101A2000D0FB3A7D02F001020FF2C441204601F0E2
:101A3000A3FE204601F0C0FE4FF47A73024692B234
:101A40002146284600F0BDFB387DC0F340020FF26E
:101A5000B441204601F090FE204601F0ADFE4FF467
:101A60007A73024692B22146284600F0AAFB387DDE
:101A7000C0F380020FF2A041204601F07DFE204617
:101A800001F09AFE4FF47A73024692B2214628463C
:101A900000F097FB387DC0F3C0020FF29041204662
:101AA00001F06AFE204601F087FE4FF47A73024689
:101AB00092B22146284600F084FB387DC0F3001224
:101AC0000FF27C41204601F057FE204601F074FEE3
:101AD0004FF47A73024692B22146284600F071FB19
:101AE000387DC0F340120FF26C41204601F044FEF5
:101AF000204601F061FE4FF47A73024692B221460D
:101B0000284600F05EFB387DC0F380120FF258418A
:101B1000204601F031FE204601F04EFE4FF47A736C
:101B2000024692B22146284600F04BFB3A7DD2098C
:101B30000FF24841204601F01FFE204601F03CFE16
:101B40004FF47A73024692B22146284600F039FBE0
:101B50004FF47A7302224146284600F032FB0FF21E
:101B60003041204601F008FE204601F025FE4FF4EA
:101B70007A73024692B22146284600F022FB0FF209
:101B80002841204601F0F8FD204601F015FE4FF4F3
:101B90007A73024692B22146284602B0BDE8F0416F
:101BA00000F00FBBE4FE000820DC012038E101203A
:101BB00038B001202CAD012008FC000890B10120B4
:101BC0000A2B534554534552563D322C25732C2530
:101BD000732C25640A0000000A2B534554534552C8
:101BE000563D332C25732C25732C25640A000000E8
:101BF00041542B53455441503D0000000A2B53459E
:101C00005441503D312C25732C25730A00000000EF
:101C10000A2B53455441503D322C25732C25730A11
:101C2000000000000A2B53455441503D332C2573CE
:101C30002C25730A0000000041542B534554534E89
:101C40003D0000000A2B534554534E3D25730A00B6
:101C50002B4E45545345540D0A000000436F6E63EC
:101C6000656E747261746F7220556E6976657273F9
:101C7000616C2D310D0A000046572056657273695C
:101C80006F6E2025730D0A005265762E312E30209E
:101C900031302E30372E32303139000044697649E8
:101CA000443A2025730D0A004150313A20535349DC
:101CB000443D25732C20506173733D25730D0A003C
:101CC0004150323A20535349443D25732C205061F2
:101CD00073733D25730D0A004150333A2053534925
:101CE000443D25732C20506173733D25730D0A000C
:101CF000444E53313D25730D0A0000000A2B4D451B
:101D000041530D0A0000000048573A2025732C204B
:101D100046573A2025730D0A000000005265762EC2
:101D2000312E302031332E30362E32303139000012
:101D300045787420706F7765723A20252E3166568B
:101D40002C20564241543A20252E3166560D0A0069
:101D500041444320413A20252E3366562C20252E1F
:101D60003366410D0A000000506861736520413AF6
:101D70002020202020252E3166562C20252E32664C
:101D8000410D0A0050686173652041204D41583A69
:101D900020252E3166562C20252E3266410D0A0054
:101DA00050686173652041204D494E3A20252E31FF
:101DB00066562C20252E3266410D0A00506861734C
:101DC000652042202020203A20252E3166562C20E6
:101DD000252E3266410D0A00506861736520425F0E
:101DE0004D41583A20252E3166562C20252E32663C
:101DF000410D0A00506861736520425F4D494E3ABB
:101E000020252E3166562C20252E3266410D0A00E3
:101E100050686173652043202020203A20252E3110
:101E200066562C20252E3266410D0A0050686173DB
:101E30006520435F4D41583A20252E3166562C20AF
:101E4000252E3266410D0A00506861736520435F9C
:101E50004D494E3A20252E3166562C20252E3266CD
:101E6000410D0A00444320496E5F303A20252E334D
:101E700066560D0A00000000444320496E5F313A67
:101E800020252E3366560D0A0000000044432049E9
:101E90006E5F323A20252E3366560D0A0000000090
:101EA000444320496E5F333A20252E3366560D0A8F
:101EB00000000000444320496E5F343A20252E3351
:101EC00066560D0A00000000444320496E5F353A13
:101ED00020252E3366560D0A000000004443204999
:101EE0006E5F363A20252E3366560D0A000000003C
:101EF000446973637265746520494E5F303A2025EA
:101F0000640D0A00446973637265746520494E5F0D
:101F1000313A2025640D0A00446973637265746563
:101F200020494E5F323A2025640D0A0044697363EC
:101F30007265746520494E5F333A2025640D0A00AE
:101F4000446973637265746520494E5F343A202595
:101F5000640D0A00446973637265746520494E5FBD
:101F6000353A2025640D0A0044697363726574650F
:101F700020494E5F363A2025640D0A004469736398
:101F80007265746520494E5F373A2025640D0A005A
:101F9000537065656420313A203E31303030302056
:101FA0006D730D0A00000000537065656420323ABD
:101FB000203E3130303030206D730D0A00000000BB
:101FC00070B50D462C7834B970BD11F8013F167804
:101FD000B34206D0401C214601F02EFD28B1014637
:101FE0002A4612F8013F002BEFD170BD2DE9F84FC2
:101FF00084B00E4617460BB100221A600446A04674
:1020000001E008F1010898F8000001F020FD002827
:10201000F7D198F800002D2816BF2B2818F8015B7F
:102020002B25002F019603D4012F01D0252F03DB90
:10203000002E55D0346053E0002F0CDD102F04BF6C
:1020400098F80000302802BF98F8010040F0200006
:10205000782811D10CE098F80000302818BF0A2722
:102060000AD198F8010040F02000782803D1102709
:1020700008F1020800E00827CDF80C8001E008F123
:10208000010898F800003028F9D0064E7E44143636
:102090004FF0000906F12800CDF80880CA468DF8F7
:1020A00000000BE028DD00009DF80010401ACA4631
:1020B0005FFA80FB07FB09B908F1010898F80000F6
:1020C00001F0CFFC01463A4606F1280001F0D4FCAD
:1020D0000028E9D10399414504D1019800B1046079
:1020E000002020E00299F05DA8EB0101081A002809
:1020F00010D406DCB9EB0B0103D3B1FBF7F050456C
:1021000008D0AFF30080049808B1012101604FF0BE
:10211000FF3903E02D2D08BFC9F10009019808B16E
:10212000C0F80080484605B0BDE8F08FFFE7002307
:102130000A2200215AE7000038B5040001D101202D
:1021400032BD04F138056878002804D100202870D9
:10215000204601F0C0FF242068702068C16821F487
:102160000051C160204600F0A5FA2068016921F401
:10217000904101612068416921F02A014161206894
:10218000C16841F40051C16000206860202068707F
:10219000A870002032BD10B5002801D1012010BD6B
:1021A00000F13804242161700168CA6822F40052E9
:1021B000CA6002F072F8002060606070A070207049
:1021C00010BD2DE9F84305460C4690461E4605F124
:1021D00038077878202855D1002C02D040460028B6
:1021E00001D101204FE0387801284BD00120387010
:1021F000002078602120787002F0CAF88146A5F8A6
:102200002480A5F8268003E014F8010B29684860B3
:10221000E88C002826D0E88C401EE884A868B0F539
:10222000805F00964B4614D100228021284600F0A2
:1022300066F9002801D0032025E02088C0F30800BB
:10224000296848602869002801D1A41CE0E7641CC3
:10225000DEE700228021284600F051F90028D3D083
:10226000032010E000964B4600224021284600F053
:1022700046F9002801D0032005E0202078700020D6
:10228000387000E00220BDE8F28310B400F138039A
:102290009C78202C26D1002901D0140001D10120E6
:1022A00021E01C78012C01D102201CE001241C70CB
:1022B00081628285C28500215960222199700021A6
:1022C00019700168CA6842F48072CA6001684A697C
:1022D00042F001024A610068C16841F02001C1601A
:1022E000002000E0022010BC704738B504461346B9
:1022F00004F138056878202834D1002901D018006D
:1023000001D1012032BD2878012801D1022032BD3F
:10231000012028702162A384E384002068602120CA
:1023200068700FF25110226BD0630FF27510226BA0
:1023300010640FF27510226BD0640020226B1065C0
:102340002068021D206B02F0BEF86FF0400021688B
:102350000860002028702068416941F080014161D7
:10236000002032BD022032BD38B504462068016825
:10237000C268436911F00F0007D18D0605D5950697
:1023800003D52046BDE8324048E1002861D0D80797
:1023900002D412F4907F5CD00846C00705D5D00562
:1023A00003D5E06B40F00100E063480706D518460E
:1023B000C00703D5E06B40F00200E063880706D554
:1023C0001846C00703D5E06B40F00400E06308073F
:1023D00005D5D80703D5E06B40F00800E063E06B5B
:1023E000002846D0880604D5900602D5204600F085
:1023F00015F920684069800900F00100E16B0907C8
:1024000001D400281FD0204600F0B5F820684169AB
:10241000490613D5416921F040014161606B0028F4
:102420000CD00FF271110165606B02F084F8002886
:102430001FD0606B016DBDE8344008472046BDE801
:10244000324002F006BA204602F003FA0020E063B0
:1024500031BD080605D5100603D52046BDE832403B
:102460009EE0480605D5500603D52046BDE832401B
:10247000C7E031BD816B00680068C0050CD4002046
:10248000C8840868426922F0800242610868C16815
:1024900041F04001C1607047084602F0CAB900002F
:1024A000806B02F08BBA000038B5846B20684069FD
:1024B000C00900F0010004F139052978212906D16D
:1024C000002804D00020E084204600F04BF820686B
:1024D0004069800900F001006978222906D10028AE
:1024E00004D00020E085204600F045F8E06B40F085
:1024F0001000E0632046BDE8324002F0AAB92DE9A1
:10250000F04105460E4617469846069C2868006826
:102510003040B04201D1012000E00020394688421D
:102520001DD114F1010FF1D0002C05D001F030FFC6
:10253000A0EB08008442E9D22868C16821F4D07178
:10254000C1602868416949084900416105F13800C6
:1025500020214170817000210170032000E00020E3
:10256000BDE8F0810168CA6822F0C002CA6020217B
:1025700080F8391070470168CA6822F49072CA6006
:1025800001684A69520852004A61202180F83A10D5
:1025900070470000806B0021C185C18402F059B9E9
:1025A00090F8391021292AD1016A8268B2F5805F3A
:1025B0000ED10988C1F3080102685160026A0169FD
:1025C000002902D1911C016207E0511C016204E064
:1025D0004A1C0262097802685160C18C491EC1849C
:1025E00089B2002909D10168CA6822F08002CA6054
:1025F0000068C16841F04001C160002070470220BE
:10260000704780B50168CA6822F04002CA60202184
:1026100080F8391002F00DF9002002BD80B590F865
:102620003A10222944D10169826A8368B3F5805F38
:1026300011D103680029596806D1C1F3080111803E
:10264000816A891C816215E001F0FF011180816AB5
:10265000491C81620EE0002905D1511C816201688C
:102660004968117006E0511C81620168496801F0F7
:102670007F011170C18D491EC18589B2002915D114
:102680000168CA6822F02002CA600168CA6822F4A0
:102690008072CA6001684A69520852004A6120216A
:1026A00080F83A1002F08BF9002002BD002002BD34
:1026B000022002BD2DE9F041044621680A6922F496
:1026C0004052E06802430A612168CA6897480240A4
:1026D000A06802432069024360690243E069024343
:1026E000CA6021684A6922F44072A06902434A61C3
:1026F00020688F49E269B2F5004F40F08B80884234
:1027000002D08C49884242D102F0EFF9054602F02E
:10271000ECF9064602F0E9F9074602F0E6F98046D0
:1027200002F0E3F961684900642219235D43B5FBB7
:10273000F1F59446B5FBFCF55E43B6FBF1F65F435D
:10274000B7FBF1F7B7FBFCF702FB1766F600323672
:102750001746B6FBF7F6760006F4F87606EB051694
:1027600003FB08F8B8FBF1F54343B3FBF1F0114666
:10277000B0FBF1F002FB1052D20032320846B2FB3D
:10278000F0F000F00700861920688660CAE002F0C9
:10279000A1F9054602F09EF9064602F09BF90746AC
:1027A00002F098F9804602F095F9616849006422C8
:1027B00019235D43B5FBF1F59446B5FBFCF55E438B
:1027C000B6FBF1F65F43B7FBF1F7B7FBFCF702FB93
:1027D0001766F60032361746B6FBF7F6760006F4B3
:1027E000F87606EB051603FB08F8B8FBF1F5434352
:1027F000B3FBF1F01146B0FBF1F002FB1052D20036
:1028000032320846B2FBF0F000F00700861920686B
:10281000866087E0884202D04649884241D102F072
:1028200064F9054602F061F9064602F05EF90746D2
:1028300002F05BF9804602F058F961688900642271
:1028400019235D43B5FBF1F59446B5FBFCF55E43FA
:10285000B6FBF1F65F43B7FBF1F7B7FBFCF702FB02
:102860001766360132361746B6FBF7F606F0F00665
:1028700006EB051603FB08F8B8FBF1F54343B3FB81
:10288000F1F01146B0FBF1F002FB105212013232AE
:102890000846B2FBF0F000F00F0086192068866051
:1028A00040E002F017F9054602F014F9064602F07E
:1028B00011F9074602F00EF9804602F00BF9616843
:1028C0008900642219235D43B5FBF1F59446B5FBFD
:1028D000FCF55E43B6FBF1F65F43B7FBF1F7B7FBE0
:1028E000FCF702FB1766360132361746B6FBF7F6E1
:1028F00006F0F00606EB051603FB08F8B8FBF1F549
:102900004343B3FBF1F01146B0FBF1F002FB105270
:10291000120132320846B2FBF0F000F00F008619C7
:1029200020688660BDE8F08100000000F369FFFFC9
:10293000001001400014014038B501224FF400613D
:10294000DFF8D40B02F0ACFADFF8D44B02F0E6FA71
:10295000206002F0E6FA606002F0E6FAA0600FF68E
:10296000344104F10C0000F007FF04F10C0000F00A
:1029700023FF0246DFF8AC5B4FF4FA7392B204F126
:102980000C012846FFF71DFC642000F0CDFFC82095
:1029900002F069FB2268C2F3074302F0FF020FF660
:1029A000004104F10C0000F0E7FE04F10C0000F01F
:1029B00003FF4FF4FA73024692B204F10C01284669
:1029C000FFF7FFFB642000F0AFFF4FF4FA7002F056
:1029D0004AFB0FF6E03104F10C0000F0CDFE04F1EB
:1029E0000C0000F0E9FE4FF4FA73024692B204F1D3
:1029F0000C012846FFF7E5FB642000F095FF0A2054
:102A0000BDE8324002F02FBBFEB50446DFF8185B8C
:102A1000012085F84103C82000F086FF0027DFF879
:102A20000C6B17E064230122A021304603F0C8FD9F
:102A30000028F7D14FF4FA6002902020019004EBB7
:102A40004710009010237A0192B2A021304603F083
:102A5000C3FB7F1C182FE5D364230122A02130463D
:102A600003F0AEFD0028F7D14FF4FA6002900C207D
:102A7000019004F54070009010234FF44072A021A3
:102A8000304603F0A9FB002085F84103F7BD00B5EF
:102A9000ADF5437D6846DFF8981A4FF4437200F0B5
:102AA000E7FD6846FFF7B0FFDFF87C0A69464FF4A0
:102AB000437200F0DDFD0DF5437D00BD70B5ADF551
:102AC000467D0446DFF8605A012085F84103C8209E
:102AD00000F02AFFDFF8546A4FF0FF330122A021F3
:102AE000304603F06DFD0028F6D14FF4FA600290F5
:102AF0004FF44370019003A8009010230022A021FE
:102B0000304603F00DFC002085F84103204603A960
:102B10004FF4437200F0ACFD0DF5467D70BD18B565
:102B2000ADF5437DDFF80C0A016841F00801016052
:102B3000FFF702FFDFF8004A01224FF40041204670
:102B400002F0AEF901220821204602F0A9F9012283
:102B50001021204602F0A4F901222021204602F093
:102B60009FF90021DFF8D40904F083F86846FFF7E5
:102B7000A5FFDFF8B449204669464FF4437200F0E0
:102B800077FD04F58D6000210160416004F23F3063
:102B9000417001210170B7EE000A04F5D26004F023
:102BA000C5F8B7EE000A04F5A06004F0BFF8B7EE70
:102BB000000A04F5B96004F0B9F8B7EE000A04F2AF
:102BC000F46004F0B3F8B7EE000A04F2645004F0C5
:102BD000ADF8B7EE000A04F22C6004F0A7F800206C
:102BE00012E0DFF85C19C0EBC00201EB8201DFF8F4
:102BF00054290A60DFF850294A60DFF850298A60BA
:102C00004FF08042CA60401C0B28EADB0DF5447D82
:102C100010BD0000DFF838090021016041608160CB
:102C20009FEDA50A80ED030A80ED040A80ED050AF8
:102C300001634163816380ED0F0A80ED100A80ED2E
:102C4000110A704790ED000AD2ED000AF4EE400A36
:102C5000F1EE10FA01D582ED000A90ED000AD1EDF7
:102C6000000AB4EE600AF1EE10FA01D581ED000A17
:102C700070472DE9F8430746DFF8AC5805F2644485
:102C80002078002840F015814FF0000805F2E44656
:102C900064E008EB480007EB8009B9F8081005F577
:102CA000D26004F05CF884ED0E0AB9F8001005F566
:102CB000A06004F054F884ED0F0AB9F8041005F58B
:102CC000B96004F04CF884ED100A05F2B44205F541
:102CD000986105F29C40FFF7B5FF05F5976205F294
:102CE000C44105F59460FFF7ADFF05F2BC4205F560
:102CF000996105F2A440FFF7A5FFB9F80A1005F2A3
:102D0000F46004F02CF884ED1A0AB9F8021005F208
:102D1000645004F024F884ED1B0AB9F8061005F29B
:102D20002C6004F01CF884ED1C0A324605F59E6107
:102D300005F2CC40FFF786FF05F59D6205F2F441F0
:102D400005F59A60FFF77EFF05F2EC4205F59F61FD
:102D500005F2D440FFF776FF08F10108B8F1280F1B
:102D600097DB05F52B7090ED020AD0ED000A94ED8B
:102D70000E1A21EE201A21EE001A84ED111A90EDA0
:102D8000051AD0ED031A94ED0F2A22EE212A22EE25
:102D9000012A84ED122A90ED082AD0ED062A94ED3E
:102DA000103A23EE223A23EE023A84ED133A94EDE0
:102DB000143A23EE203A23EE003A84ED143AD4ED8F
:102DC000153A63EEA13A63EE813AC4ED153AD4EDBB
:102DD000163A63EEA23A63EE823AC4ED163A63EE17
:102DE000200A20EE800A84ED140A94ED180A20EEE1
:102DF000210A20EE010A84ED140A94ED190A20EE4E
:102E0000220A20EE020A84ED140A90ED0B0AD0ED9E
:102E1000090A94ED1A1A21EE201A21EE001A84ED07
:102E20001D1A90ED0E1AD0ED0C1A94ED1B2A22EE0D
:102E3000212A22EE012A84ED1E2A90ED112AD0EDDE
:102E40000F2A94ED1C3A23EE223A23EE023A84ED47
:102E50001F3A96ED003A23EE203A23EE003A86ED33
:102E6000003A96ED013A23EE213A23EE013A86ED3F
:102E7000013A96ED023A23EE223A23EE023A86ED2B
:102E8000023A96ED033A63EE200A20EE800A86EDC0
:102E9000030A96ED040A20EE210A20EE010A86EDCF
:102EA000040A96ED050A20EE220A20EE020A86EDBB
:102EB000050ABDE8F1830000FFFF7F7F2DE9F8439D
:102EC0002DED028B8046DFF8607607F2644630789D
:102ED000002840F037814FF00009DFF864567EE0AB
:102EE000162010FB09F008EB0004A08A00EE100A7F
:102EF000B8EE400A05F58C7003F0B8FF86ED0D0AB8
:102F0000608A00EE100AB8EE400A05F1FC0003F0FA
:102F1000ADFF86ED0C0AE08900EE100AB8EE400A1B
:102F200005F1C40003F0A2FF86ED0A0A208A00EE34
:102F3000100AB8EE400A05F1E00003F097FF86EDB5
:102F40000B0A208800EE100AB8EE400A284603F06B
:102F50008DFF86ED030A608800EE100AB8EE400A85
:102F600005F11C0003F082FF86ED040AA08800EE44
:102F7000100AB8EE400A05F1380003F077FF86ED3D
:102F8000050AE08800EE100AB8EE400A05F1540088
:102F900003F06CFF86ED060A208900EE100AB8EEF9
:102FA000400A05F1700003F061FF86ED070A6089B1
:102FB00000EE100AB8EE400A05F18C0003F056FF4F
:102FC00086ED080AA08900EE100AB8EE400A05F165
:102FD000A80003F04BFF86ED090A09F10109B9F1D8
:102FE000280FFFF67DAF96ED0D8A07F52177D7ED17
:102FF000008A96ED0C0A28EE800AF0EE000A20EE18
:10300000200A80EE080AD7ED090A20EE200A86ED94
:103010000C0A96ED0A0A28EE800A10EE100A00F05B
:1030200087FBDFF83025DFF8303503F041FF044639
:103030000D4618EE100A00F07BFB02460B462046B8
:10304000294604F007F804460D46386A00F070FB84
:1030500022462B4603F02CFF00F0E4FBB06296ED15
:103060000B0A28EE800A80EE080A10EE100A00F023
:103070005FFB02460B46DFF8E404DFF8E41404F0DB
:103080000DF90022DFF8DC3403F0E4FF0022DFF862
:10309000D83404F075F900F0C5FBF06296ED030A30
:1030A00028EE800A80EE080AD7ED010A20EE200AF9
:1030B00086ED030A96ED040A28EE800A80EE080ADF
:1030C000D7ED020A20EE200A86ED040A96ED050AE5
:1030D00028EE800A80EE080AD7ED030A20EE200AC7
:1030E00086ED050A96ED060A28EE800A80EE080AAB
:1030F000D7ED040A20EE200A86ED060A96ED070AAF
:1031000028EE800A80EE080AD7ED050A20EE200A94
:1031100086ED070A96ED080A28EE800A80EE080A76
:10312000D7ED060A20EE200A86ED080A96ED090A78
:1031300028EE800A80EE080AD7ED070A20EE200A62
:1031400086ED090ABDEC028BBDE8F18338B5DFF8E6
:103150001C548021284601F09BFEDFF8CC4394F8F4
:10316000FC1460F3000184F8FC144FF480712846CD
:1031700001F08EFE94F8FC1460F3410184F8FC1415
:10318000DFF8EC534FF48041284601F081FE94F8BB
:10319000FC1460F3820184F8FC144FF400412846CB
:1031A00001F076FE94F8FC1460F3C30184F8FC147B
:1031B0004FF48051284601F06BFE94F8FC1460F344
:1031C000041184F8FC144FF40051284601F060FE0D
:1031D00094F8FC1460F3451184F8FC144FF48061FA
:1031E000284601F055FE94F8FC1460F3861184F82B
:1031F000FC144FF40061284601F04AFE94F8FC14D8
:1032000001F07F0141EAC01184F8FC1431BD10B512
:10321000D84C0221C84801F03BFE0028208807D185
:10322000014641F2707291421ADA401C208010BDB2
:10323000002801D0401E20802088642805D100206D
:1032400020800120B84981F85004208840F6B83128
:10325000884205D1002020800120B34981F8500424
:1032600010BD70B5C44D2C784FF47A72C34E002C4B
:1032700005D13146C248304400F0FAF905E006F5C0
:103280007A71C048304400F0F3F96878002828D0FB
:10329000002C0DD1002006F5FA61FA2817DA6A68C9
:1032A000121806EB80035B8821F81230401CF4E70B
:1032B000002006F5FA6108E06A68121806EB800340
:1032C000B3F8EA3321F81230401CFA28F4DB6868BE
:1032D000FA30686049F64041884202D300206870A5
:1032E000686070BD32E70000042800D9704738B527
:1032F0002DED028B90B0DFE810F005004C0092003D
:10330000FA00EA00002004F06DF90021084604F0FC
:103310002DFA9D4CA06E00F00BFA02464FEA010315
:10332000A7A1684600F028FA984D0123D5E90001CD
:103330000A460146684604F004FA0921002004F018
:1033400015FAE06E00F0F4F902460B46A0A16846BB
:1033500000F012FA0123D5E900010A460146684649
:1033600004F0EFF91221002004F000FA206F00F0C1
:10337000DFF902464FEA010399A1684600F0FCF923
:103380000123D5E900010A460146684604F0D9F94F
:10339000ADE0002004F026F90021084604F0E6F92B
:1033A000794CA06B00F0C4F902460B4690A1684628
:1033B00000F0E2F9754D0123D5E900010A46014606
:1033C000684604F0BEF90921002004F0CFF9E06B53
:1033D00000F0AEF902460B4689A1684600F0CCF930
:1033E0000123D5E900010A460146684604F0A9F91F
:1033F0001221002004F0BAF9206C00F099F902467D
:103400004FEA010382A1684600F0B6F90123D5E92D
:1034100000010A460146684604F093F967E000207F
:1034200004F0E0F80021084604F0A0F9564C9FEDA6
:103430003B8A94ED000A20EE080A10EE100A00F014
:1034400077F902464FEA010375A1684600F094F946
:103450004E4D0123D5E900010A460146684604F0B5
:1034600070F90921002004F081F994ED010A20EEA1
:10347000080A10EE100A00F05BF902464FEA010359
:103480006BA1684600F078F90123D5E900010A46EE
:103490000146684604F055F91221002004F066F94F
:1034A00094ED020A20EE080A10EE100A00F040F92E
:1034B00002460B4662A1684600F05EF90123D5E999
:1034C00000010A460146684604F03BF90FE000207F
:1034D00004F088F80021084604F048F901232B483D
:1034E000D0E9004521462A46294804F02AF910B0BF
:1034F000BDEC028B31BD10B501460B4C04F24730D8
:1035000000F03AF904F242300021418004210171B7
:103510000121017010BD0000000002400000C842FF
:1035200094DB012038E101202CAD01208CDF01204B
:10353000C8F50008082004E0001002405CE2012009
:1035400034D901209766253535B7FFBF946E7F3F8C
:10355000E0B10120936FB6B931BD274052B81E8546
:10356000EB51E83F000004400000394000080240F1
:10357000000C02409AE2012088B10120440700209B
:1035800050400100384401009CB10120000000209F
:1035900073B0012041542B524F4C453000000000C5
:1035A00041542B4E414D455649425F2530326425EA
:1035B0003032640041542B52455345540000000002
:1035C000546F6B20412020252E3066410000000002
:1035D000546F6B20422020252E30664100000000F1
:1035E000546F6B20432020252E30664100000000E0
:1035F00048616E7020412020252E30665600000064
:1036000048616E7020422020252E30665600000052
:1036100048616E7020432020252E30665600000041
:1036200054656D6E20312020252E30662A00000062
:1036300054656D6E20322020252E30662A00000051
:1036400054656D6E20332020252E30662A00000040
:1036500062B38B0708D0521E11F8013B00F8013B02
:1036600000F024808B07F6D1830740F0208000BF54
:10367000103A07D330B4B1E83810103AA0E8381047
:10368000F9D230BC530724BFB1E80810A0E80810F5
:1036900044BF51F8043B40F8043BD20724BF31F843
:1036A000022B20F8022B44BF0B7803707047121FC7
:1036B00017D35B0009D151F8043B20F8023B1B0CE7
:1036C000121F20F8023BF6D20BE051F8043B00F841
:1036D000013B1B0A20F8023B1B0C121F00F8013BA8
:1036E000F3D238BF121D521E24BF11F8013B00F85F
:1036F000013BF8D8704730B4002513E050F8042B94
:10370000D30744BFA9F101039A18091F042942F8FD
:10371000045BFAD213468C0744BF15809B1CC90773
:1037200048BF1D7050F8041B0029E7D130BC70471A
:10373000C0F3C75181B1FF2906D0C110400721F065
:10374000E04101F16051704741020CBF40F4E001DB
:103750006FF000410020704700F0004100020AD0E5
:10376000B0FA80FC00FA0CF001F16051A1EB0C51B1
:1037700001EBD021400570470CB430B583B00A4648
:1037800006A90291044600250194009502AB01A907
:10379000084878441E3003F0F3FF019A15700028A2
:1037A0004EBF04460198041B204603B030BC5DF8B0
:1037B0000CFB00BF6700000000F10103810704D08B
:1037C00010F8011B820781B1FAD10268A2F1013120
:1037D000914311F0803104BF50F8042FF6E709BA85
:1037E000B1FA81F100EBD100401CC01A7047B1F56D
:1037F000807F02D34FF0FF30704701700120704787
:103800000078401E8041C043C00F704741EC100B50
:1038100001BD80B505F090FAF8E70268531C03601B
:103820001170704701F000428B1AA3F16051B1F59D
:10383000801F0ADBB1F17F6F1FD242EAC102C100D3
:1038400071F1004142EB507070470B15C3F1090351
:10385000212B10D2890241EA90518002012849416E
:1038600041F0004121FA03F0C3F12003994071F1C6
:10387000004150417047100070476FF0000013EB9B
:10388000103F5CBF000E42EAC05070470146002066
:103890000A46842A01D0C91C08467047EFF3058008
:1038A000401E8041C043C00F704780B505F073FBD8
:1038B000002002BD38B584B004460D46606900287A
:1038C00015D0A069002812D0B4F90800FFF7DEFF78
:1038D000A16902916169019100902B4622692168DA
:1038E000606805F02DFA0390039805B030BDB4F977
:1038F0000800FFF7CBFF03A9019100902B46226936
:1039000092B22168606805F058FA0128ECD00020D6
:10391000EBE74FF08050DFF81C110860BFF34F8FCA
:10392000BFF36F8F0020704780B5002800D10120C1
:1039300005F00BFB002002BD1CB54368002B0BD02B
:10394000012907D10320009000221146012005F033
:10395000F2FE16BD002016BD01290DD10322002163
:10396000012005F039FF040004D000231A46114657
:1039700005F065FF204616BD002016BD38B504468B
:1039800000200090002C01D1802032BD054611F1AD
:10399000010F02D14FF0FF3502E0002900D00D46A3
:1039A000FFF77CFF002814D06A460021204606F06D
:1039B00026F9012813D10098002808D04FF0805034
:1039C000DFF870100860BFF34F8FBFF36F8F0020D8
:1039D00032BD2946204606F047F80128F7D0FF20DF
:1039E00032BD38B50446002528460090FFF756FF43
:1039F000002814D06946204605F0DFFF012801D0D9
:103A0000FF2032BD0098002812D04FF08050DFF820
:103A100024100860BFF34F8FBFF36F8F08E02B4671
:103A20001A461146204605F00AFF012800D0FF255E
:103A3000284632BD04ED00E0C9B202788A421AB1CC
:103A40001CBF10F8012FF9E718BF0020704710B510
:103A5000044606F0EFF901462046096ABDE8104029
:103A6000084710B5044606F0E5F901462046896A84
:103A7000BDE8104008472E00C9B2830706D0521E89
:103A800022D310F8013B9942F7D11FE0083A13D333
:103A900002F1040241EA012141EA014150F8043BEC
:103AA000121F21BF4B40A3F1013C2CEA030C1CF078
:103AB000803FF3D0C9B2001F083210F8013B521EFC
:103AC00028BF91EA030FF8D818BF0120401E7047A5
:103AD00082B000200090DFF84008416841F4804146
:103AE0004160416801F480410091009900210091FA
:103AF000016841F080510160006800F08050009042
:103B0000009800220F216FF0010002B006F025BAE4
:103B100038B586B0044600221421684606F03AFA09
:103B20002068DFF8F81788426FD100200590DFF891
:103B3000F007416941F480714161416901F480718C
:103B40000591059900210591016841F0040101608A
:103B5000016801F0040105910599002105910168B2
:103B600041F001010160016801F001010591059931
:103B700000210591016841F002010160006800F038
:103B80000200059005983F2000900320019000203E
:103B900002906946DFF88C0701F00AF8CF20009008
:103BA00003200190002002906946DFF87C0700F0B6
:103BB000FFFF032000900190002002906946DFF88B
:103BC0006C0700F0F5FFDFF86857DFF8680728603A
:103BD00000206860A860E8604FF4806028614FF4BE
:103BE000006068614FF40050A8614FF48070E86194
:103BF000002028626862284600F0D0FB002801D02F
:103C000002F0D9F8A563AC6375E0DFF82C178842A1
:103C100071D100200590DFF80807416941F4007177
:103C20004161416901F400710591059900210591F7
:103C3000016841F004010160016801F0040105918F
:103C4000059900210591016841F0010101600168B9
:103C500001F001010591059900210591016841F0EC
:103C600002010160006800F00200059005983E2006
:103C7000009003200190002002906946DFF8A4061E
:103C800000F096FFCF2000900320019000200290CA
:103C90006946DFF8940600F08BFF03200090019046
:103CA000002002906946DFF8840600F081FFDFF80B
:103CB0008C56DFF88006303028604FF00070686066
:103CC0000020A860E8604FF4806028614FF4006035
:103CD00068614FF40050A8614FF48070E8610020E3
:103CE00028626862284600F059FB002801D002F0E3
:103CF00062F8A563AC6307B030BD10B586B004466A
:103D00000022142101A806F045F92068DFF83016DA
:103D1000884222D100200090DFF80406016941F0BA
:103D200000510161016901F00051009100990021E9
:103D30000091016841F001010160006800F001009C
:103D40000090009830200190032002900020039002
:103D500001A9DFF8D40500F02BFF06B010BD10B5A7
:103D600086B0044600221421684606F013F9206844
:103D7000DFF8D015884227D100200590DFF8A04554
:103D8000206840F002002060206800F002000590EA
:103D90000598C0200090122001900120029003207D
:103DA0000390042004906946DFF8800500F000FFCE
:103DB00000200590206940F400102061206900F483
:103DC00000100590059846E0DFF87C15884242D146
:103DD00000200590DFF84845206840F0040020608E
:103DE000206800F0040005900598002005902068E8
:103DF00040F001002060206800F001000590059867
:103E00004FF40070009012200190012002900320D6
:103E10000390042004906946DFF8080500F0C8FE0E
:103E20004FF4807000901220019001200290032036
:103E30000390042004906946DFF8EC0400F0B8FE1B
:103E400000200590206940F400002061206900F402
:103E500000000590059806B010BD2DE9F04786B02A
:103E6000044600221421684606F094F82068DFF822
:103E7000DC14884240F0918000200590DFF8A00417
:103E8000016941F480410161016901F480410591BA
:103E9000059900210591016841F002010160016866
:103EA00001F002010591059900210591016841F099
:103EB00004010160006800F00400059005984FF4CB
:103EC00014400090022001900020029003900520F1
:103ED0000490DFF858546946284600F069FE4FF414
:103EE0008040009002200190002002900390062064
:103EF00004906946284600F05BFE402000900220B6
:103F00000190002002900390052004906946DFF89C
:103F1000140400F04DFEDFF83864DFF838543560E3
:103F20004FF0C06070600020B060F0604FF48067B8
:103F300037614FF40068C6F814804FF40059C6F892
:103F400018904FF4807AC6F81CA030627062304638
:103F500000F024FA002801D001F02DFFE663B463DD
:103F6000DFF8F46305F11800306000207060402035
:103F7000B0600020F0603761C6F81480C6F8189071
:103F8000C6F81CA030627062304600F007FA0028C4
:103F900001D001F010FFA663B46306B0BDE8F0875E
:103FA00010B586B004460022142101A805F0F2FFE6
:103FB0002068DFF8A813884227D100200090DFF89E
:103FC0006003016941F400410161016901F40041AC
:103FD0000091009900210091016841F00401016005
:103FE000006800F00400009000984FF4E050019049
:103FF00002200290002003900320049006200590E8
:1040000001A9DFF8200300F0D3FD06B010BD10B504
:1040100086B004460022142101A805F0BBFF2068E9
:10402000DFF83C1388422DD100200090BC48416944
:1040300041F001014161416901F0010100910099E4
:1040400000210091016841F010010160006800F05A
:104050001000009000984FF4206001900220029020
:104060000020039004900120059001A9BD4800F0B4
:104070009FFD002205211B2005F06FFF1B2005F08E
:104080007BFF26E0B849884214D100200090A44864
:10409000016941F008010161006900F00800009029
:1040A000009800220521322005F057FF322005F04C
:1040B00063FF0EE0AD4988420BD100200090984884
:1040C000416941F480314161406900F480300090E1
:1040D000009806B010BD38B586B004460022142101
:1040E000684605F057FF2068A14988424AD1002060
:1040F00005908B48416941F010014161416901F02F
:1041000010010591059900210591016841F0010117
:104110000160006800F00100059005984FF4C06050
:1041200000900220019001200290032003900720BC
:10413000049069467C4800F03BFD8E4D8E48286017
:104140004FF0006068604020A8600020E8604FF4F5
:104150008060286100206861A861E8612862686267
:10416000284600F01BF9002801D001F024FE256349
:10417000AC6300220521252005F0EFFE252005F087
:10418000FBFE88E07D49884254D1002005906448B8
:10419000016941F400310161016901F400310591C7
:1041A000059900210591016841F00801016000684E
:1041B00000F0080005900598602000900220019012
:1041C00001200290032003900720049069466C4868
:1041D00000F0EEFC6B4D6C4828604FF000606860AA
:1041E0004020A8600020E8604FF480602861002033
:1041F0006861A861E86128626862284600F0CEF82C
:10420000002801D001F0D7FD2563AC630022052111
:10421000262005F0A2FE262005F0AEFE262005F0A1
:10422000ACFE00220421262005F097FE262005F092
:10423000A3FE30E0554988422DD100200590384832
:10424000016941F480210161016901F48021059136
:10425000059900210591016841F00801016000689D
:1042600000F00800059005984FF44070009002207F
:1042700001900120029003200390072004906946DA
:104280003F4800F095FC00220521272005F065FE3F
:10429000272005F071FE07B030BD10B50446206838
:1042A0003349884211D11C48416821F01001416016
:1042B0004FF4C0611C4800F04FFD206B00F0D2F8B5
:1042C0002520BDE8104005F058BE2C49884210D189
:1042D0001148016821F4003101606021284800F094
:1042E0003BFD206B00F0BEF82620BDE8104005F035
:1042F00044BE264988420ED10748016821F4802136
:1043000001604FF440711E4800F026FD2720BDE8F3
:10431000104005F032BE10BD403802400020014080
:104320003038024000080240000002400004024011
:10433000A0DC0120106402400021014000DD0120CA
:104340000074004000540040005C00400038004011
:1043500060DD012058600240C0DD0120003C0040CB
:104360000000014000100240000C004000400140ED
:104370000010014020DE0120B864024000440040EB
:10438000000C024080DE0120A06002400048004096
:1043900001484068704700BF1400002070B5044613
:1043A000FFF7F6FF0646002C01D1012070BD04F195
:1043B00034050020287002206870206801684908D0
:1043C0004900016021680868C00709D5FFF7E0FFD0
:1043D000801B0628F6D3202028620320687070BD59
:1043E0000A68DFF84803024060680243A06802439D
:1043F000E06802432069024360690243A069024306
:10440000E0690243206A0243606A042803D1E36A38
:10441000206B03431A430A6020684669606AF60805
:1044200050EAC60604280ED1A06A0643E06A0028B6
:1044300009D0204600F0A8F9002804D040202862C6
:104440000120687070BD20684661204600F088F940
:104450003F22A96A8A408260002028620120687099
:10446000002070BD10B5002801D1012010BD00F161
:1044700034046178022901D1022010BD01680A6864
:10448000520852000A6000210268116002685160FF
:10449000026891600268D16002681161212102689E
:1044A000516100F05DF90021A160E160216161616D
:1044B000A161E1613F22A16A8A40826000202062FE
:1044C0006070207010BDF8B50446002504F1340674
:1044D000776A3078012801D10220F2BD01203070C6
:1044E0007078012822D10220707028463062204660
:1044F00000F020F93F21B06A8140B960206801686E
:1045000041F0160101602068416941F0800141617C
:10451000F068002804D02068016841F008010160BB
:104520002068016841F00101016002E02846307016
:1045300002252846F2BD90F83510022903D08021CB
:10454000416501207047052180F835100068016839
:10455000490849000160002070472DE9FC410446EC
:1045600000200090724800684FF41651B0FBF1F53E
:1045700004F13406776AD7F800800821B06A01FA9E
:1045800000F018EA000F0ED02068026852070AD522
:10459000026822F004020260B06A8140B960306AA9
:1045A00040F001003062B06A4146C140C9070BD5F6
:1045B00021684969090607D5012101FA00F0B860B0
:1045C000306A40F0020030620421B06A01FA00F063
:1045D00018EA000F08D021680968890704D5B86077
:1045E000306A40F0040030621021B06A01FA00F035
:1045F00018EA000F23D02168096809071FD5B860A1
:104600002068016849030ED50068000305D4F168ED
:10461000002914D02046884711E0716900290ED086
:10462000204688470BE00168C90503D4016821F0E2
:1046300008010160F168002901D020468847202147
:10464000B06A01FA00F018EA000F4CD0216809683E
:10465000C90648D5B860206871780529016821D15C
:1046600021F0160101602068416921F0800141615B
:10467000F068002802D17069002804D02068016821
:1046800021F0080101603F21B06A8140B96000203B
:10469000307001207070F169002945D02046BDE8D6
:1046A000FC41084749030ED50068000305D4316971
:1046B000002918D02046884715E0B168002912D09B
:1046C000204688470FE00168C90507D4016821F03A
:1046D000100101600020307001207070B168002965
:1046E00001D020468847306A00281DD0306AC007B4
:1046F00013D50520707020680168490849000160E1
:104700000098401C0090854203D320680068C007D1
:10471000F6D40020307001207070B169002903D0F8
:104720002046BDE8FC410847BDE8F3813F8010F01A
:104730002000002030B40468256825F48025256019
:104740000468636003688468402C03D19A60006841
:10475000C16002E099600068C26030BC7047000030
:10476000017810391822B1FBF2F200BF23A1895C55
:10477000C1650168890A8902042A02D3091D81657D
:1047800000E08165806D704702460020936A916960
:10479000002910D1002B03D0022B01D005D3704784
:1047A000D16AC90128D501207047D16AB1F1C07F13
:1047B00022D101207047B1F5005F12D1032B1BD825
:1047C000DFE803F00204020901207047D16AC90141
:1047D00012D501207047D16AB1F1C07F0CD1012000
:1047E0007047022B02D9DB1E02D0704701207047B0
:1047F000D16AC90100D501207047000000061016DB
:1048000000061016684805F006BC684805F003BCB1
:10481000644A6749884200D02C32816A491E81620D
:10482000C18D491CC185806A017802F1080005F03C
:10483000D6BB5F49884204D100205A4981F829003B
:1048400070475C49884203D10020564981F85500E1
:10485000704710B5534C5649884200D02C34FFF7AE
:10486000E8FF042204F114012068BDE81040FDF7C0
:104870000CBD0021C16100F1280100224A700A70BC
:10488000042200F114010068FDF7FFBC10B5454C8F
:104890002068FDF780FC4FF4007204F1580104F128
:1048A000080005F094FB00F077FB2046BDE81040BF
:1048B000DFE710B53B4CE06AFDF76DFC4FF480621A
:1048C00004F5167104F1340005F081FB00F068FB7B
:1048D00004F12C00BDE81040CBE710B5314CE06A84
:1048E000FDF759FC4FF4806204F5167104F13400B1
:1048F00005F06DFB00F052FB04F12C00BDE8104008
:10490000B7E7F8B505460E4617464FF4FA7403E0CC
:10491000641E0A2000F0A7FB97F82900002801D0A8
:10492000002CF5D1002C03D03868C06B002801D0D2
:1049300078688047012087F82900324692B22946DC
:104940003868BDE8F840FDF7D0BC80B51A4AFFF7DB
:10495000D8FF401E8041C043C00F02BD38B5054698
:104960000C4694F82800002801D0606A00E0206A14
:10497000E1694A1CE2614554E1690A2D02D0A2694D
:1049800091420BD32246FFF7BCFF0020E06194F870
:104990002800401E8041C00F84F82800284632BD00
:1049A0000049DBE7240000202C00002058000020F4
:1049B00038E1012078E10120500000207047704765
:1049C0002DE9F04104460F46002C5BD0594E30686B
:1049D00000F00F00B84205D23770306800F00F00C9
:1049E000B8424FD12068544D810712D5400703D5F6
:1049F000A86840F4E050A8602078000703D5A868B4
:104A000040F46040A860A96821F0F001A06801436B
:104A1000A9602078C0072AD56068012803D12968D9
:104A200089030BD42EE0022801D0032803D1296882
:104A3000890103D426E02968890723D5A968890854
:104A400050EA8100A860FFF7A3FC8046A86800F048
:104A50000C006168B0EB810F09D0FFF799FCA0EB67
:104A6000080041F289318842F0D303202DE03068FC
:104A700000F00F00874207D23770306800F00F0057
:104A8000B84201D0012020E02078400705D5A96870
:104A900021F4E051E0680143A9602078000706D5C1
:104AA000A86820F46040216940EAC100A86000F0D5
:104AB0004DF82249AA68C2F30312895CC840204914
:104AC0000860002005F0C0FA0020BDE8F0811C4815
:104AD0000068704780B5FFF7FAFF1B49194A126852
:104AE000C2F38222895CC84002BD80B5FFF7EFFFA8
:104AF0001549144A1268C2F34232895CC84002BDAB
:104B00000F2202600F4A136803F003034360136827
:104B100003F0F0038360136803F4E053C36012688A
:104B2000D20802F4E05202610248006800F00F006F
:104B300008607047003C02400038024060FD0008F9
:104B400020000020083802408800010810B5154CEC
:104B5000606800F00C00042802D0082802D01EE093
:104B6000114810BD226802F03F0200232068400275
:104B70002068C0F3881005D50B49A1FB000105F0A2
:104B8000A1FA04E00949A1FB000105F09BFA2168A4
:104B9000C1F30141491C4900B0FBF1F010BD0348CD
:104BA00010BD00BF0438024000127A000024F40057
:104BB000F8B400232DE04FF0080C05E0DFF800C347
:104BC0006045F8D14FF0070C0CFA06FC4CEA070CD4
:104BD00045F824C0BB4C2668D5432E404F68FF03E0
:104BE00000D51643266066682E404F68BF0300D587
:104BF00016436660A6682E404F68FF0200D5164334
:104C0000A660E6682E404D68AD0200D51643E6600A
:104C10005B1C0F2B00F29E8001249C400A682240FE
:104C2000A242F5D14D68022D01D0122D13D11D469F
:104C3000ED0800EB8506356A9F0007F01C074FF072
:104C40000F0C0CFA07FC25EA0C05D1F810C00CFA81
:104C500007F73D43356207685D000326AE40F64323
:104C6000374091F804C00CF0030C0CFA05FC4CEA38
:104C7000070707604F68012F05D0022F03D0112FBF
:104C800001D0122F10D187683740D1F80CC00CFA30
:104C900005FC4CEA070787604768A7434C68C4F3E4
:104CA00000149C4027434760C46834408E6806FA6D
:104CB00005F52C43C4604C68E400A9D50024009499
:104CC000814C256845F480452560246804F48044BF
:104CD0000094009C1C46A4087C4D55F824709E004E
:104CE00006F00C064FF00F0C0CFA06FC27EA0C0736
:104CF000DFF8DCC1604502D14FF0000C64E7DFF85B
:104D0000D4C1604502D14FF0010C5DE7DFF8C8C1A6
:104D1000604502D14FF0020C56E7DFF8C0C1604594
:104D200002D14FF0030C4FE7DFF8B4C1604502D168
:104D30004FF0040C48E7DFF8ACC1604502D14FF0FA
:104D4000050C41E7DFF8A0C160457FF437AF4FF0B5
:104D5000060C39E7F1BC70472DE9F04780464FF06B
:104D600000090F2249E04FF0080A05E0DFF850A1E2
:104D7000D045F8D14FF0070A0AFA0CFAD64513D1FC
:104D800056F825C02CEA070746F82570E4434D4D38
:104D90002E6826402E606E6826406E60AE68264003
:104DA000AE60EE683440EC6003254FEA490405FA32
:104DB00004F4E443D8F800502540C8F800504D46AC
:104DC000ED0808EB85052E6A00F01C0002FA00F0E1
:104DD00026EA00002862D8F808002040C8F8080039
:104DE000D8F8040020EA0303C8F80430D8F80C000F
:104DF0000440C8F80C4009F10109B9F10F0F45D87A
:104E0000012303FA09F303EA01049C42F3D14D465E
:104E1000AD082E4E56F825E04FEA890000F00C0C44
:104E200002FA0CF707EA0E0EDFF8A4A0D04502D173
:104E30004FF0000AA0E7DFF89CA0D04502D14FF068
:104E4000010A99E7DFF890A0D04502D14FF0020A9D
:104E500092E7DFF888A0D04502D14FF0030A8BE734
:104E6000DFF87CA0D04502D14FF0040A84E7DFF8D8
:104E700074A0D04502D14FF0050A7DE7DFF868A0A5
:104E8000D0457FF473AF4FF0060A75E7BDE8F087B1
:104E9000006901400846401E8041C043C00F704772
:104EA000002A01D08161704709048161704742691D
:104EB0000A408A4202D109048161704781617047CA
:104EC000001C0240003C01404438024008380140C8
:104ED000000002400004024000080240000C0240B2
:104EE00000100240001402400018024080B5104833
:104EF000016841F400710160016841F48061016062
:104F0000016841F480710160032005F025F800205C
:104F100005F09AF8FEF7DCFD002002BD05480068A8
:104F200070470548006870470448006870470000F3
:104F3000003C0240107AFF1F147AFF1F187AFF1FEF
:104F4000DFF8600C00F14C01DFF8102DC2F84811B9
:104F5000806CFEF746BDDFF84C0C00F56F71DFF892
:104F6000FC2CC2F84811806CFEF73BBDDFF86C0CDE
:104F700000F16C01DFF8E42CC2F84C11006EFEF772
:104F800030BDDFF8580C00F51371DFF8D02CC2F8F3
:104F90004C11006EFEF725BD00F09DBC00F0B5BCC5
:104FA00080B5DFF8700CDFF8F41C01604FF461315C
:104FB000416000218160C16001610C2141610021DB
:104FC0008161C161FDF7B8F8002803D0BDE8014058
:104FD00000F0F1BE01BDDFF8400C0168DFF83C2CA9
:104FE000127889180160DFF8381C4868002802D060
:104FF0004868401E48608868002802D08868401EC3
:1050000088600888401C0880DFF8502C80B2B0F51A
:105010007A7F12D100200880DFF8C80C4168491C53
:10502000416002F59E710868002801D0401E0860AA
:105030004868002801D0401E486002F136004188CF
:10504000491C418089B2B1F5FA6F0BDB0021418028
:105050000179491C0171C9B2032901DB00210171E9
:1050600001210170704738B50446FFF791F90546F4
:1050700014F1010F05D0DFF8A40B0078241800E02C
:1050800030BFFFF785F9401BA042F9D331BD10B501
:10509000DFF8544C002280212046FFF701FF142046
:1050A000FFF7E1FF012280212046FFF7F9FEC8202B
:1050B000BDE81040D7E7F8B5B2B0FFF717FF00F032
:1050C00005F900F09FFC00F052FC00F066F900F0DA
:1050D0008DFA00F0B3FA00F0CDFA00F0E7FA00F034
:1050E00002FB00F020FB00F0F6FB00F00EFC00F0ED
:1050F00024FC00F076FB00F000FA00F0C8FBDFF8BB
:10510000EC4BDFF8EC5B02212846FFF7C1FE0028DC
:1051100057D1FDF711FCFDF7BAFC4FF47A73192251
:105120000FF694412046FDF74CF8DFF8C87B3A684B
:10513000DFF8C46BC2F3074302F0FF020FF694419D
:105140003046FEF719FB3046FEF736FB4FF47A7314
:10515000024692B231462046FDF733F802F0DEF9FE
:105160000021084602F002FB3A68C2F3074302F04E
:10517000FF020FF678413046FEF7FEFADFF87C7B3F
:105180000123D7E900010A460146304602F0D9FA68
:105190001021002002F0EAFA0FF668413046FEF7CF
:1051A000EBFA0123D7E900010A460146304602F036
:1051B000C8FA02F025FA02212846FFF769FE002806
:1051C000F9D0FDF7ACFCFFF762FFFFF75FFBFFF7DD
:1051D00084FB4FF47A731C220FF63C412046FCF707
:1051E000F0FF0FF66840D0E90023CDE90623012146
:1051F00006A8FEF7A1FBDFF8AC1988640FF654404F
:10520000D0E90023CDE90423DFF8F44A012104A802
:10521000FEF792FB20660FF64440D0E90023CDE96B
:105220000223012102A8FEF787FB60660FF63440D7
:10523000D0E90023CDE9002301216846FEF77CFB7D
:10524000A0662BA80FF624411C22FEF711FA0021BC
:105250002BA8FEF72FFBA06424A80FF62C411C22DC
:10526000FEF706FA002124A8FEF724FBE0641DA83F
:105270000FF630411C22FEF7FBF900211DA8FEF7B6
:1052800019FB206516A80FF638411C22FEF7F0F92D
:10529000002116A8FEF70EFB60650FA80FF63C4133
:1052A0001C22FEF7E5F900210FA8FEF703FBA0651D
:1052B00008A80FF644411C22FEF7DAF9002108A8DD
:1052C000FEF7F8FAE065FEF7F0FAFEE780B596B073
:1052D000002230210AA804F05DFE0022142105A856
:1052E00004F058FE0022102101A804F053FE002013
:1052F0000090DFF8100A016841F0805101600068F9
:1053000000F080500090009800200090DFF8F8092D
:10531000016841F480410160006800F48040009021
:10532000009801200A904FF480300B9002201090DA
:105330004FF48000119004201290A82013900220B6
:105340001490042015900AA804F0D4FF002801D07E
:1053500000F031FD0F2005900220069000200790FC
:105360004FF4A05008904FF480500990052105A8F3
:10537000FFF726FB002801D000F01DFD0120019061
:10538000322002900220039001A805F027F900289E
:1053900001D000F010FD17B000BD1FB50022102194
:1053A000684604F0F7FDDFF8FC47DFF8600920608D
:1053B0004FF4803060600020A060012020612076E2
:1053C000002084F82000E062DFF84409A062002099
:1053D000E0600B20E061012084F83000606120462D
:1053E00005F0C2F9002801D000F0E5FC0320009090
:1053F00001200190072002906946204605F07AFAC4
:10540000002801D000F0D7FC062000900220019077
:105410006946204605F06EFA002801D000F0CBFC6A
:1054200007200090032001906946204605F062FAAB
:10543000002801D000F0BFFC0E2000900420019055
:105440006946204605F056FA002801D000F0B3FC6A
:105450000F200090052001906946204605F04AFA89
:10546000002801D000F0A7FC082000900620019041
:105470006946204605F03EFA002801D000F09BFC6A
:1054800009200090072001906946204605F032FA75
:10549000002801D000F08FFC0A2000900820019025
:1054A0006946204605F026FA002801D000F083FC6A
:1054B00010200090092001906946204605F01AFA54
:1054C000002801D000F077FC122000900A20019003
:1054D0006946204605F00EFA002801D000F06BFC6A
:1054E000112000900B2001906946204605F002FA39
:1054F000002801D000F05FFC1FBD1FB50022102165
:10550000684604F047FDDFF8D446DFF8080820605D
:105510004FF4803060600020A060012020610020F6
:105520002076012084F82000062060624FF0805031
:10553000E0624FF02060A0620020E0600620E061A1
:10554000012084F830006061204605F00DF9002844
:1055500001D000F030FC00200090012001900020DC
:1055600002906946204605F0C5F9002801D000F0F8
:1055700022FC0B200090022001906946204605F095
:10558000B9F9002801D000F016FC0120009003209A
:1055900001906946204605F0ADF9002801D000F0E1
:1055A0000AFC0C200090042001906946204605F07A
:1055B000A1F9002801D000F0FEFB02200090052098
:1055C00001906946204605F095F9002801D000F0C9
:1055D000F2FB0D200090062001906946204605F060
:1055E00089F9002801D000F0E6FB1FBD1CB50022A0
:1055F0000821684604F0CEFCDFF81C47DFF81C07E2
:105600002060204601F020FB002801D000F0D3FBF1
:1056100000200090019002466946204601F061FB9F
:10562000002801D000F0C7FB10226946204601F097
:1056300058FB002801D000F0BEFB13BD80B5DFF899
:10564000E006DFF8E0160160DFF8DC1641600021BB
:105650008160C1604FF4804101610021416181613D
:10566000C161016200F056FC002802D0BDE8014093
:10567000A1E301BD80B5DFF8B406DFF8B416016020
:10568000DFF8A416416000218160C1604FF48041C1
:105690000161002141618161C161016200F03AFC58
:1056A000002802D0BDE8014085E301BD80B5DFF8E8
:1056B0008406DFF8841601604FF400714160002217
:1056C0008260C26001614BF68031416111468161A7
:1056D000C1610121016205F095FA002802D0BDE800
:1056E000014068E301BD80B5DFF85006DFF85016D1
:1056F00001604FF48271416000218160C1600161ED
:1057000041614FF4007181610021C1610162416218
:1057100081620A21C16205F0C7FB002802D0BDE802
:10572000014048E301BD10B58AB00022102106A84F
:1057300004F030FC00220821684604F02BFC002213
:10574000102102A804F026FCDFF8F845DFF8F80580
:10575000206000206060A060E06020616061A06166
:10576000204605F0E1FB002801D000F024FB4FF4B7
:105770008050069006A9204605F0A9FD002801D01A
:1057800000F019FB204605F012FC002801D000F0C3
:1057900012FB0020009001906946204605F0E6FFCC
:1057A000002801D000F007FB0A200290012003909E
:1057B000002004900590024602A9204605F0B9FC9D
:1057C000002801D000F0F7FA00200290042202A97C
:1057D000204605F0AEFC002801D000F0ECFA0AB03B
:1057E00010BD18B58DB00022102109A804F0D2FB1D
:1057F00000220821684604F0CDFB00221C2102A8EB
:1058000004F0C8FBDFF84445DFF8440520600020C1
:105810006060A06042F60410E06000202061A0619A
:10582000204605F081FB002801D000F0C4FA4FF4B7
:105830008050099009A9204605F049FD002801D0B3
:1058400000F0B9FA204605F099FB002801D000F0DD
:10585000B2FA40200090002001906946204605F0F1
:1058600085FF002801D000F0A6FA60200290642095
:105870000390002004900690024602A9204605F0FD
:10588000ABFC002801D000F096FA0EB010BD1FB599
:1058900000221021684604F07DFBDFF8B844DFF8F1
:1058A000B804206000206060A060E0602061A0611A
:1058B000204605F039FB002801D000F07CFA4FF4B7
:1058C000805000906946204605F001FD002801D077
:1058D00000F071FA1FBD80B5DFF81004DFF87C140A
:1058E00001604FF41651416000218160C160016187
:1058F0000C21416100218161C161FCF71DFC002880
:1059000002D0BDE8014056E201BD80B5C148E3497F
:1059100001604FF4E131416000218160C1600161AB
:105920000C21416100218161C161FCF705FC002867
:1059300002D0BDE801403EE201BD80B5DFF82004A1
:10594000DFF8201401604FF4E131416000218160F3
:10595000C16001610C21416100218161C161FCF7DD
:10596000EBFB002802D0BDE8014024E201BD80B578
:1059700000200090DFF8F003016841F4800101602D
:10598000016801F4800100910099002100910168F3
:1059900041F400110160006800F4001000900098CC
:1059A000002205210E2004F0D8FA0E2004F0E4FABB
:1059B000002205210F2004F0D0FA0F2004F0DCFAB9
:1059C00000220521112004F0C8FA112004F0D4FAB5
:1059D00000220521382004F0C0FA382004F0CCFA67
:1059E000002205213A2004F0B8FA3A2004F0C4FA63
:1059F00000220521462004F0B0FA4620BDE802400E
:105A000004F0BABA2DE9F84386B0002214216846A2
:105A100004F0C0FA00200590D348016841F010015D
:105A20000160016801F010010591059900210591BF
:105A3000016841F004010160016801F00401059171
:105A4000059900210591016841F08001016001681C
:105A500001F080010591059900210591016841F04F
:105A600001010160016801F0010105910599002122
:105A70000591016841F002010160016801F0020135
:105A80000591059900210591016841F00801016027
:105A9000006800F008000590059849F2BC59944C44
:105AA000002249462046FFF7FBF942F60405AF4EB7
:105AB000002229463046FFF7F3F9AD4F00224FF49C
:105AC00018413846FFF7ECF9DFF81C8200228121EB
:105AD0004046FFF7E5F9CDF8009001200190002045
